{
  "_format": "hh-sol-artifact-1",
  "contractName": "Wallet",
  "sourceName": "contracts/WalletContract.sol",
  "abi": [
    {
      "inputs": [
        {
          "internalType": "address",
          "name": "_usdtAddress",
          "type": "address"
        }
      ],
      "stateMutability": "nonpayable",
      "type": "constructor"
    },
    {
      "anonymous": false,
      "inputs": [
        {
          "indexed": true,
          "internalType": "address",
          "name": "previousOwner",
          "type": "address"
        },
        {
          "indexed": true,
          "internalType": "address",
          "name": "newOwner",
          "type": "address"
        }
      ],
      "name": "OwnershipTransferred",
      "type": "event"
    },
    {
      "stateMutability": "payable",
      "type": "fallback"
    },
    {
      "inputs": [
        {
          "internalType": "address[]",
          "name": "_addressTokens",
          "type": "address[]"
        }
      ],
      "name": "addManyTokenSupport",
      "outputs": [],
      "stateMutability": "nonpayable",
      "type": "function"
    },
    {
      "inputs": [
        {
          "internalType": "address",
          "name": "_token",
          "type": "address"
        },
        {
          "internalType": "address",
          "name": "_recipient",
          "type": "address"
        },
        {
          "internalType": "uint256",
          "name": "amount",
          "type": "uint256"
        }
      ],
      "name": "approveERCToken",
      "outputs": [],
      "stateMutability": "nonpayable",
      "type": "function"
    },
    {
      "inputs": [],
      "name": "owner",
      "outputs": [
        {
          "internalType": "address",
          "name": "",
          "type": "address"
        }
      ],
      "stateMutability": "view",
      "type": "function"
    },
    {
      "inputs": [],
      "name": "renounceOwnership",
      "outputs": [],
      "stateMutability": "nonpayable",
      "type": "function"
    },
    {
      "inputs": [
        {
          "internalType": "address",
          "name": "_tokenAddress",
          "type": "address"
        },
        {
          "internalType": "address",
          "name": "_recipient",
          "type": "address"
        },
        {
          "internalType": "uint256",
          "name": "_amount",
          "type": "uint256"
        }
      ],
      "name": "transferErcToken",
      "outputs": [],
      "stateMutability": "nonpayable",
      "type": "function"
    },
    {
      "inputs": [
        {
          "internalType": "address",
          "name": "_recipient",
          "type": "address"
        },
        {
          "internalType": "uint256",
          "name": "_amount",
          "type": "uint256"
        }
      ],
      "name": "transferNativeToken",
      "outputs": [],
      "stateMutability": "nonpayable",
      "type": "function"
    },
    {
      "inputs": [
        {
          "internalType": "address",
          "name": "newOwner",
          "type": "address"
        }
      ],
      "name": "transferOwnership",
      "outputs": [],
      "stateMutability": "nonpayable",
      "type": "function"
    },
    {
      "inputs": [],
      "name": "withDrawAllToken",
      "outputs": [],
      "stateMutability": "nonpayable",
      "type": "function"
    },
    {
      "stateMutability": "payable",
      "type": "receive"
    }
  ],
  "bytecode": "0x60806040523480156200001157600080fd5b5060405162001a4538038062001a45833981810160405281019062000037919062000303565b620000576200004b620001cd60201b60201c565b620001d560201b60201c565b600073ffffffffffffffffffffffffffffffffffffffff168173ffffffffffffffffffffffffffffffffffffffff161415620000ca576040517f08c379a0000000000000000000000000000000000000000000000000000000008152600401620000c19062000396565b60405180910390fd5b80600260006101000a81548173ffffffffffffffffffffffffffffffffffffffff021916908373ffffffffffffffffffffffffffffffffffffffff1602179055506004819080600181540180825580915050600190039060005260206000200160009091909190916101000a81548173ffffffffffffffffffffffffffffffffffffffff021916908373ffffffffffffffffffffffffffffffffffffffff1602179055506001600360008373ffffffffffffffffffffffffffffffffffffffff1673ffffffffffffffffffffffffffffffffffffffff16815260200190815260200160002060006101000a81548160ff02191690831515021790555050620003b8565b600033905090565b60008060009054906101000a900473ffffffffffffffffffffffffffffffffffffffff169050816000806101000a81548173ffffffffffffffffffffffffffffffffffffffff021916908373ffffffffffffffffffffffffffffffffffffffff1602179055508173ffffffffffffffffffffffffffffffffffffffff168173ffffffffffffffffffffffffffffffffffffffff167f8be0079c531659141344cd1fd0a4f28419497f9722a3daafe3b4186f6b6457e060405160405180910390a35050565b600080fd5b600073ffffffffffffffffffffffffffffffffffffffff82169050919050565b6000620002cb826200029e565b9050919050565b620002dd81620002be565b8114620002e957600080fd5b50565b600081519050620002fd81620002d2565b92915050565b6000602082840312156200031c576200031b62000299565b5b60006200032c84828501620002ec565b91505092915050565b600082825260208201905092915050565b7f496e76616c696420616464726573730000000000000000000000000000000000600082015250565b60006200037e600f8362000335565b91506200038b8262000346565b602082019050919050565b60006020820190508181036000830152620003b1816200036f565b9050919050565b61167d80620003c86000396000f3fe60806040526004361061007f5760003560e01c80639c203e4a1161004e5780639c203e4a1461010a578063ae77a70814610133578063d31e587b1461015c578063f2fde38b1461018557610086565b806352eba20814610088578063715018a61461009f5780638b4a269e146100b65780638da5cb5b146100df57610086565b3661008657005b005b34801561009457600080fd5b5061009d6101ae565b005b3480156100ab57600080fd5b506100b461045b565b005b3480156100c257600080fd5b506100dd60048036038101906100d89190610f0f565b61046f565b005b3480156100eb57600080fd5b506100f4610629565b6040516101019190610f67565b60405180910390f35b34801561011657600080fd5b50610131600480360381019061012c9190610fb8565b610652565b005b34801561013f57600080fd5b5061015a6004803603810190610155919061100b565b610741565b005b34801561016857600080fd5b50610183600480360381019061017e9190610fb8565b6108ad565b005b34801561019157600080fd5b506101ac60048036038101906101a7919061104b565b610b76565b005b6101b6610bfa565b60005b6004805490508110156103ab57600481815481106101da576101d9611078565b5b9060005260206000200160009054906101000a900473ffffffffffffffffffffffffffffffffffffffff16600160006101000a81548173ffffffffffffffffffffffffffffffffffffffff021916908373ffffffffffffffffffffffffffffffffffffffff1602179055506000600160009054906101000a900473ffffffffffffffffffffffffffffffffffffffff1673ffffffffffffffffffffffffffffffffffffffff166370a08231306040518263ffffffff1660e01b81526004016102a29190610f67565b602060405180830381865afa1580156102bf573d6000803e3d6000fd5b505050506040513d601f19601f820116820180604052508101906102e391906110bc565b9050600081111561039757600160009054906101000a900473ffffffffffffffffffffffffffffffffffffffff1673ffffffffffffffffffffffffffffffffffffffff1663a9059cbb610334610629565b836040518363ffffffff1660e01b81526004016103529291906110f8565b6020604051808303816000875af1158015610371573d6000803e3d6000fd5b505050506040513d601f19601f820116820180604052508101906103959190611159565b505b5080806103a3906111b5565b9150506101b9565b5060003373ffffffffffffffffffffffffffffffffffffffff16476040516103d29061122f565b60006040518083038185875af1925050503d806000811461040f576040519150601f19603f3d011682016040523d82523d6000602084013e610414565b606091505b5050905080610458576040517f08c379a000000000000000000000000000000000000000000000000000000000815260040161044f906112a1565b60405180910390fd5b50565b610463610bfa565b61046d6000610c78565b565b610477610bfa565b60008151116104bb576040517f08c379a00000000000000000000000000000000000000000000000000000000081526004016104b29061130d565b60405180910390fd5b60005b81518110156106255760008282815181106104dc576104db611078565b5b60200260200101519050600073ffffffffffffffffffffffffffffffffffffffff168173ffffffffffffffffffffffffffffffffffffffff161415610556576040517f08c379a000000000000000000000000000000000000000000000000000000000815260040161054d90611379565b60405180910390fd5b6001600360008373ffffffffffffffffffffffffffffffffffffffff1673ffffffffffffffffffffffffffffffffffffffff16815260200190815260200160002060006101000a81548160ff0219169083151502179055506004819080600181540180825580915050600190039060005260206000200160009091909190916101000a81548173ffffffffffffffffffffffffffffffffffffffff021916908373ffffffffffffffffffffffffffffffffffffffff16021790555050808061061d906111b5565b9150506104be565b5050565b60008060009054906101000a900473ffffffffffffffffffffffffffffffffffffffff16905090565b61065a610bfa565b82600160006101000a81548173ffffffffffffffffffffffffffffffffffffffff021916908373ffffffffffffffffffffffffffffffffffffffff160217905550600160009054906101000a900473ffffffffffffffffffffffffffffffffffffffff1673ffffffffffffffffffffffffffffffffffffffff1663095ea7b383836040518363ffffffff1660e01b81526004016106f89291906110f8565b6020604051808303816000875af1158015610717573d6000803e3d6000fd5b505050506040513d601f19601f8201168201806040525081019061073b9190611159565b50505050565b610749610bfa565b600073ffffffffffffffffffffffffffffffffffffffff168273ffffffffffffffffffffffffffffffffffffffff1614156107b9576040517f08c379a00000000000000000000000000000000000000000000000000000000081526004016107b0906113e5565b60405180910390fd5b478111156107fc576040517f08c379a00000000000000000000000000000000000000000000000000000000081526004016107f390611451565b60405180910390fd5b60008273ffffffffffffffffffffffffffffffffffffffff16826040516108229061122f565b60006040518083038185875af1925050503d806000811461085f576040519150601f19603f3d011682016040523d82523d6000602084013e610864565b606091505b50509050806108a8576040517f08c379a000000000000000000000000000000000000000000000000000000000815260040161089f906114bd565b60405180910390fd5b505050565b6108b5610bfa565b600360008473ffffffffffffffffffffffffffffffffffffffff1673ffffffffffffffffffffffffffffffffffffffff16815260200190815260200160002060009054906101000a900460ff16610941576040517f08c379a000000000000000000000000000000000000000000000000000000000815260040161093890611529565b60405180910390fd5b600073ffffffffffffffffffffffffffffffffffffffff168273ffffffffffffffffffffffffffffffffffffffff1614156109b1576040517f08c379a00000000000000000000000000000000000000000000000000000000081526004016109a8906113e5565b60405180910390fd5b82600160006101000a81548173ffffffffffffffffffffffffffffffffffffffff021916908373ffffffffffffffffffffffffffffffffffffffff160217905550600160009054906101000a900473ffffffffffffffffffffffffffffffffffffffff1673ffffffffffffffffffffffffffffffffffffffff166370a08231306040518263ffffffff1660e01b8152600401610a4d9190610f67565b602060405180830381865afa158015610a6a573d6000803e3d6000fd5b505050506040513d601f19601f82011682018060405250810190610a8e91906110bc565b811115610ad0576040517f08c379a0000000000000000000000000000000000000000000000000000000008152600401610ac790611451565b60405180910390fd5b600160009054906101000a900473ffffffffffffffffffffffffffffffffffffffff1673ffffffffffffffffffffffffffffffffffffffff1663a9059cbb83836040518363ffffffff1660e01b8152600401610b2d9291906110f8565b6020604051808303816000875af1158015610b4c573d6000803e3d6000fd5b505050506040513d601f19601f82011682018060405250810190610b709190611159565b50505050565b610b7e610bfa565b600073ffffffffffffffffffffffffffffffffffffffff168173ffffffffffffffffffffffffffffffffffffffff161415610bee576040517f08c379a0000000000000000000000000000000000000000000000000000000008152600401610be5906115bb565b60405180910390fd5b610bf781610c78565b50565b610c02610d3c565b73ffffffffffffffffffffffffffffffffffffffff16610c20610629565b73ffffffffffffffffffffffffffffffffffffffff1614610c76576040517f08c379a0000000000000000000000000000000000000000000000000000000008152600401610c6d90611627565b60405180910390fd5b565b60008060009054906101000a900473ffffffffffffffffffffffffffffffffffffffff169050816000806101000a81548173ffffffffffffffffffffffffffffffffffffffff021916908373ffffffffffffffffffffffffffffffffffffffff1602179055508173ffffffffffffffffffffffffffffffffffffffff168173ffffffffffffffffffffffffffffffffffffffff167f8be0079c531659141344cd1fd0a4f28419497f9722a3daafe3b4186f6b6457e060405160405180910390a35050565b600033905090565b6000604051905090565b600080fd5b600080fd5b600080fd5b6000601f19601f8301169050919050565b7f4e487b7100000000000000000000000000000000000000000000000000000000600052604160045260246000fd5b610da682610d5d565b810181811067ffffffffffffffff82111715610dc557610dc4610d6e565b5b80604052505050565b6000610dd8610d44565b9050610de48282610d9d565b919050565b600067ffffffffffffffff821115610e0457610e03610d6e565b5b602082029050602081019050919050565b600080fd5b600073ffffffffffffffffffffffffffffffffffffffff82169050919050565b6000610e4582610e1a565b9050919050565b610e5581610e3a565b8114610e6057600080fd5b50565b600081359050610e7281610e4c565b92915050565b6000610e8b610e8684610de9565b610dce565b90508083825260208201905060208402830185811115610eae57610ead610e15565b5b835b81811015610ed75780610ec38882610e63565b845260208401935050602081019050610eb0565b5050509392505050565b600082601f830112610ef657610ef5610d58565b5b8135610f06848260208601610e78565b91505092915050565b600060208284031215610f2557610f24610d4e565b5b600082013567ffffffffffffffff811115610f4357610f42610d53565b5b610f4f84828501610ee1565b91505092915050565b610f6181610e3a565b82525050565b6000602082019050610f7c6000830184610f58565b92915050565b6000819050919050565b610f9581610f82565b8114610fa057600080fd5b50565b600081359050610fb281610f8c565b92915050565b600080600060608486031215610fd157610fd0610d4e565b5b6000610fdf86828701610e63565b9350506020610ff086828701610e63565b925050604061100186828701610fa3565b9150509250925092565b6000806040838503121561102257611021610d4e565b5b600061103085828601610e63565b925050602061104185828601610fa3565b9150509250929050565b60006020828403121561106157611060610d4e565b5b600061106f84828501610e63565b91505092915050565b7f4e487b7100000000000000000000000000000000000000000000000000000000600052603260045260246000fd5b6000815190506110b681610f8c565b92915050565b6000602082840312156110d2576110d1610d4e565b5b60006110e0848285016110a7565b91505092915050565b6110f281610f82565b82525050565b600060408201905061110d6000830185610f58565b61111a60208301846110e9565b9392505050565b60008115159050919050565b61113681611121565b811461114157600080fd5b50565b6000815190506111538161112d565b92915050565b60006020828403121561116f5761116e610d4e565b5b600061117d84828501611144565b91505092915050565b7f4e487b7100000000000000000000000000000000000000000000000000000000600052601160045260246000fd5b60006111c082610f82565b91507fffffffffffffffffffffffffffffffffffffffffffffffffffffffffffffffff8214156111f3576111f2611186565b5b600182019050919050565b600081905092915050565b50565b60006112196000836111fe565b915061122482611209565b600082019050919050565b600061123a8261120c565b9150819050919050565b600082825260208201905092915050565b7f4661696c6420746f20776974686472617720746f6b656e000000000000000000600082015250565b600061128b601783611244565b915061129682611255565b602082019050919050565b600060208201905081810360008301526112ba8161127e565b9050919050565b7f496e76616c6964206c656e676874000000000000000000000000000000000000600082015250565b60006112f7600e83611244565b9150611302826112c1565b602082019050919050565b60006020820190508181036000830152611326816112ea565b9050919050565b7f496e76616c696420616464726573730000000000000000000000000000000000600082015250565b6000611363600f83611244565b915061136e8261132d565b602082019050919050565b6000602082019050818103600083015261139281611356565b9050919050565b7f496e76616c6964206164647265737320726563697069656e7400000000000000600082015250565b60006113cf601983611244565b91506113da82611399565b602082019050919050565b600060208201905081810360008301526113fe816113c2565b9050919050565b7f496e76616c696420616d6f756e74000000000000000000000000000000000000600082015250565b600061143b600e83611244565b915061144682611405565b602082019050919050565b6000602082019050818103600083015261146a8161142e565b9050919050565b7f4661696c656420746f2073656e64204574686572000000000000000000000000600082015250565b60006114a7601483611244565b91506114b282611471565b602082019050919050565b600060208201905081810360008301526114d68161149a565b9050919050565b7f496e76616c6964206164647265737320746f6b656e0000000000000000000000600082015250565b6000611513601583611244565b915061151e826114dd565b602082019050919050565b6000602082019050818103600083015261154281611506565b9050919050565b7f4f776e61626c653a206e6577206f776e657220697320746865207a65726f206160008201527f6464726573730000000000000000000000000000000000000000000000000000602082015250565b60006115a5602683611244565b91506115b082611549565b604082019050919050565b600060208201905081810360008301526115d481611598565b9050919050565b7f4f776e61626c653a2063616c6c6572206973206e6f7420746865206f776e6572600082015250565b6000611611602083611244565b915061161c826115db565b602082019050919050565b6000602082019050818103600083015261164081611604565b905091905056fea26469706673582212204935378014ba0a90ffe67dd3085d4d0ba05fa4c1c1b8f3feb3cf4bcbbf3351a564736f6c634300080a0033",
  "linkReferences": {},
  "deployedLinkReferences": {}
}