{
  "_format": "hh-sol-artifact-1",
  "contractName": "Ref",
  "sourceName": "contracts/ref.sol",
  "abi": [
    {
      "inputs": [],
      "name": "InvalidReferrerAddress",
      "type": "error"
    },
    {
      "inputs": [],
      "name": "ReferrerHasFull",
      "type": "error"
    },
    {
      "anonymous": false,
      "inputs": [
        {
          "indexed": true,
          "internalType": "address",
          "name": "previousOwner",
          "type": "address"
        },
        {
          "indexed": true,
          "internalType": "address",
          "name": "newOwner",
          "type": "address"
        }
      ],
      "name": "OwnershipTransferred",
      "type": "event"
    },
    {
      "inputs": [
        {
          "internalType": "address",
          "name": "sender",
          "type": "address"
        },
        {
          "internalType": "address",
          "name": "ref",
          "type": "address"
        },
        {
          "internalType": "uint256",
          "name": "amount",
          "type": "uint256"
        }
      ],
      "name": "_buy",
      "outputs": [],
      "stateMutability": "nonpayable",
      "type": "function"
    },
    {
      "inputs": [
        {
          "internalType": "uint256",
          "name": "_amount",
          "type": "uint256"
        }
      ],
      "name": "_getRatePerAmount",
      "outputs": [
        {
          "internalType": "uint256",
          "name": "",
          "type": "uint256"
        },
        {
          "internalType": "uint256",
          "name": "",
          "type": "uint256"
        },
        {
          "internalType": "uint256",
          "name": "",
          "type": "uint256"
        }
      ],
      "stateMutability": "view",
      "type": "function"
    },
    {
      "inputs": [
        {
          "internalType": "address",
          "name": "refAddress",
          "type": "address"
        }
      ],
      "name": "checkIsValidRefAddress",
      "outputs": [],
      "stateMutability": "view",
      "type": "function"
    },
    {
      "inputs": [],
      "name": "defaultReferrer",
      "outputs": [
        {
          "internalType": "address",
          "name": "",
          "type": "address"
        }
      ],
      "stateMutability": "view",
      "type": "function"
    },
    {
      "inputs": [],
      "name": "etherValue",
      "outputs": [
        {
          "internalType": "uint256",
          "name": "",
          "type": "uint256"
        }
      ],
      "stateMutability": "view",
      "type": "function"
    },
    {
      "inputs": [],
      "name": "owner",
      "outputs": [
        {
          "internalType": "address",
          "name": "",
          "type": "address"
        }
      ],
      "stateMutability": "view",
      "type": "function"
    },
    {
      "inputs": [
        {
          "internalType": "address",
          "name": "",
          "type": "address"
        },
        {
          "internalType": "uint256",
          "name": "",
          "type": "uint256"
        }
      ],
      "name": "refInfo",
      "outputs": [
        {
          "internalType": "uint256",
          "name": "profit",
          "type": "uint256"
        },
        {
          "internalType": "uint256",
          "name": "maxProfit",
          "type": "uint256"
        },
        {
          "internalType": "uint256",
          "name": "profitClaimed",
          "type": "uint256"
        },
        {
          "internalType": "uint256",
          "name": "currentPackageSize",
          "type": "uint256"
        },
        {
          "internalType": "uint256",
          "name": "totalPackageSize",
          "type": "uint256"
        },
        {
          "internalType": "uint256",
          "name": "branchInvestment",
          "type": "uint256"
        },
        {
          "internalType": "uint256",
          "name": "commissionPercentage",
          "type": "uint256"
        },
        {
          "internalType": "uint256",
          "name": "totalCommissionProfit",
          "type": "uint256"
        },
        {
          "internalType": "bool",
          "name": "isCanBeRef",
          "type": "bool"
        },
        {
          "internalType": "address",
          "name": "ref",
          "type": "address"
        },
        {
          "internalType": "address",
          "name": "left",
          "type": "address"
        },
        {
          "internalType": "address",
          "name": "right",
          "type": "address"
        }
      ],
      "stateMutability": "view",
      "type": "function"
    },
    {
      "inputs": [],
      "name": "renounceOwnership",
      "outputs": [],
      "stateMutability": "nonpayable",
      "type": "function"
    },
    {
      "inputs": [
        {
          "internalType": "address",
          "name": "referrerAddress",
          "type": "address"
        },
        {
          "internalType": "address",
          "name": "_sender",
          "type": "address"
        },
        {
          "internalType": "uint256",
          "name": "_amount",
          "type": "uint256"
        }
      ],
      "name": "setAccountRefInfo",
      "outputs": [],
      "stateMutability": "nonpayable",
      "type": "function"
    },
    {
      "inputs": [
        {
          "internalType": "uint256",
          "name": "_percent",
          "type": "uint256"
        }
      ],
      "name": "setDirectCommissionPercentage",
      "outputs": [],
      "stateMutability": "nonpayable",
      "type": "function"
    },
    {
      "inputs": [
        {
          "internalType": "address",
          "name": "newOwner",
          "type": "address"
        }
      ],
      "name": "transferOwnership",
      "outputs": [],
      "stateMutability": "nonpayable",
      "type": "function"
    },
    {
      "inputs": [
        {
          "internalType": "address",
          "name": "_sender",
          "type": "address"
        },
        {
          "internalType": "uint256",
          "name": "_amount",
          "type": "uint256"
        }
      ],
      "name": "updateAccountRefInfo",
      "outputs": [],
      "stateMutability": "nonpayable",
      "type": "function"
    },
    {
      "inputs": [
        {
          "internalType": "address",
          "name": "sender",
          "type": "address"
        }
      ],
      "name": "updateSenderSRef",
      "outputs": [
        {
          "internalType": "uint256",
          "name": "",
          "type": "uint256"
        }
      ],
      "stateMutability": "nonpayable",
      "type": "function"
    }
  ],
  "bytecode": "0x60806040526109c4600155670de0b6b3a764000060025534801561002257600080fd5b5061003f61003461004460201b60201c565b61004c60201b60201c565b610110565b600033905090565b60008060009054906101000a900473ffffffffffffffffffffffffffffffffffffffff169050816000806101000a81548173ffffffffffffffffffffffffffffffffffffffff021916908373ffffffffffffffffffffffffffffffffffffffff1602179055508173ffffffffffffffffffffffffffffffffffffffff168173ffffffffffffffffffffffffffffffffffffffff167f8be0079c531659141344cd1fd0a4f28419497f9722a3daafe3b4186f6b6457e060405160405180910390a35050565b611d758061011f6000396000f3fe608060405234801561001057600080fd5b50600436106100cf5760003560e01c8063d3abfc061161008c578063df531fe211610066578063df531fe2146101ee578063ebfd3e041461020a578063f2fde38b14610245578063fdd789a714610261576100cf565b8063d3abfc0614610198578063d4980257146101b6578063dc969f35146101d2576100cf565b80631f26e0cb146100d4578063715018a6146101045780638da5cb5b1461010e57806391b331251461012c5780639eebb3b21461014a578063b7daa5fd14610166575b600080fd5b6100ee60048036038101906100e9919061175f565b61027d565b6040516100fb91906117a5565b60405180910390f35b61010c610b6c565b005b610116610b80565b60405161012391906117cf565b60405180910390f35b610134610ba9565b60405161014191906117cf565b60405180910390f35b610164600480360381019061015f919061175f565b610bcf565b005b610180600480360381019061017b9190611816565b610d5a565b60405161018f93929190611843565b60405180910390f35b6101a0610ecc565b6040516101ad91906117a5565b60405180910390f35b6101d060048036038101906101cb9190611816565b610ed2565b005b6101ec60048036038101906101e7919061187a565b610f41565b005b610208600480360381019061020391906118cd565b610fc8565b005b610224600480360381019061021f91906118cd565b6111a3565b60405161023c9c9b9a99989796959493929190611928565b60405180910390f35b61025f600480360381019061025a919061175f565b61127d565b005b61027b6004803603810190610276919061187a565b611301565b005b600080600560008473ffffffffffffffffffffffffffffffffffffffff1673ffffffffffffffffffffffffffffffffffffffff168152602001908152602001600020600060045481526020019081526020016000209050600083905060005b600073ffffffffffffffffffffffffffffffffffffffff168360080160019054906101000a900473ffffffffffffffffffffffffffffffffffffffff1673ffffffffffffffffffffffffffffffffffffffff161415801561033d5750600f81105b15610b61576000600560008560080160019054906101000a900473ffffffffffffffffffffffffffffffffffffffff1673ffffffffffffffffffffffffffffffffffffffff1673ffffffffffffffffffffffffffffffffffffffff1681526020019081526020016000206000600454815260200190815260200160002090506005600082600a0160009054906101000a900473ffffffffffffffffffffffffffffffffffffffff1673ffffffffffffffffffffffffffffffffffffffff1673ffffffffffffffffffffffffffffffffffffffff1681526020019081526020016000206000600454815260200190815260200160002060050154600560008360090160009054906101000a900473ffffffffffffffffffffffffffffffffffffffff1673ffffffffffffffffffffffffffffffffffffffff1673ffffffffffffffffffffffffffffffffffffffff168152602001908152602001600020600060045481526020019081526020016000206005015482600401546104bf9190611a11565b6104c99190611a11565b81600501819055508060090160009054906101000a900473ffffffffffffffffffffffffffffffffffffffff1673ffffffffffffffffffffffffffffffffffffffff168373ffffffffffffffffffffffffffffffffffffffff16141561081a57600073ffffffffffffffffffffffffffffffffffffffff1681600a0160009054906101000a900473ffffffffffffffffffffffffffffffffffffffff1673ffffffffffffffffffffffffffffffffffffffff16146108155760006005600083600a0160009054906101000a900473ffffffffffffffffffffffffffffffffffffffff1673ffffffffffffffffffffffffffffffffffffffff1673ffffffffffffffffffffffffffffffffffffffff1681526020019081526020016000206000600454815260200190815260200160002090508060050154856005015411156107115784600701546005600084600a0160009054906101000a900473ffffffffffffffffffffffffffffffffffffffff1673ffffffffffffffffffffffffffffffffffffffff1673ffffffffffffffffffffffffffffffffffffffff1681526020019081526020016000206000600454815260200190815260200160002060070154612710846006015484600501546106a19190611a67565b6106ab9190611af0565b6106b59190611a11565b6106bf9190611a11565b82600701819055508160020154826007015461271060015484600301546106e69190611a67565b6106f09190611af0565b6106fa9190611a11565b6107049190611b21565b8260000181905550610813565b6005600083600a0160009054906101000a900473ffffffffffffffffffffffffffffffffffffffff1673ffffffffffffffffffffffffffffffffffffffff1673ffffffffffffffffffffffffffffffffffffffff16815260200190815260200160002060006004548152602001908152602001600020600701548560070154612710846006015488600501546107a79190611a67565b6107b19190611af0565b6107bb9190611a11565b6107c59190611a11565b82600701819055508160020154826007015461271060015488600301546107ec9190611a67565b6107f69190611af0565b6108009190611a11565b61080a9190611b21565b82600001819055505b505b610aae565b6000600560008360090160009054906101000a900473ffffffffffffffffffffffffffffffffffffffff1673ffffffffffffffffffffffffffffffffffffffff1673ffffffffffffffffffffffffffffffffffffffff1681526020019081526020016000206000600454815260200190815260200160002090508060050154856005015411156109aa578460070154600560008460090160009054906101000a900473ffffffffffffffffffffffffffffffffffffffff1673ffffffffffffffffffffffffffffffffffffffff1673ffffffffffffffffffffffffffffffffffffffff16815260200190815260200160002060006004548152602001908152602001600020600701546127108460060154846005015461093a9190611a67565b6109449190611af0565b61094e9190611a11565b6109589190611a11565b826007018190555081600201548260070154612710600154846003015461097f9190611a67565b6109899190611af0565b6109939190611a11565b61099d9190611b21565b8260000181905550610aac565b600560008360090160009054906101000a900473ffffffffffffffffffffffffffffffffffffffff1673ffffffffffffffffffffffffffffffffffffffff1673ffffffffffffffffffffffffffffffffffffffff1681526020019081526020016000206000600454815260200190815260200160002060070154856007015461271084600601548860050154610a409190611a67565b610a4a9190611af0565b610a549190611a11565b610a5e9190611a11565b8260070181905550816002015482600701546127106001548860030154610a859190611a67565b610a8f9190611af0565b610a999190611a11565b610aa39190611b21565b82600001819055505b505b8360080160019054906101000a900473ffffffffffffffffffffffffffffffffffffffff169250600560008560080160019054906101000a900473ffffffffffffffffffffffffffffffffffffffff1673ffffffffffffffffffffffffffffffffffffffff1673ffffffffffffffffffffffffffffffffffffffff1681526020019081526020016000206000600454815260200190815260200160002093508180610b5890611b55565b925050506102dc565b809350505050919050565b610b746115b2565b610b7e6000611630565b565b60008060009054906101000a900473ffffffffffffffffffffffffffffffffffffffff16905090565b600360009054906101000a900473ffffffffffffffffffffffffffffffffffffffff1681565b6000600560008373ffffffffffffffffffffffffffffffffffffffff1673ffffffffffffffffffffffffffffffffffffffff1681526020019081526020016000206000600454815260200190815260200160002090508060080160009054906101000a900460ff16610c6d576040517f0aa59f6e00000000000000000000000000000000000000000000000000000000815260040160405180910390fd5b600073ffffffffffffffffffffffffffffffffffffffff168160090160009054906101000a900473ffffffffffffffffffffffffffffffffffffffff1673ffffffffffffffffffffffffffffffffffffffff1614158015610d1f5750600073ffffffffffffffffffffffffffffffffffffffff1681600a0160009054906101000a900473ffffffffffffffffffffffffffffffffffffffff1673ffffffffffffffffffffffffffffffffffffffff1614155b15610d56576040517f9df1595200000000000000000000000000000000000000000000000000000000815260040160405180910390fd5b5050565b60008060008060009050600080600254611388610d779190611a67565b8710610dab57600254613a98610d8d9190611a67565b92506103e89150600254611388610da49190611a67565b9050610eb9565b600254610bb8610dbb9190611a67565b8710610def57600254612328610dd19190611a67565b92506103849150600254610bb8610de89190611a67565b9050610eb8565b6002546103e8610dff9190611a67565b8710610e3357600254610bb8610e159190611a67565b925061032091506002546103e8610e2c9190611a67565b9050610eb7565b6002546101f4610e439190611a67565b8710610e77576002546105dc610e599190611a67565b92506102bc91506002546101f4610e709190611a67565b9050610eb6565b6002546064610e869190611a67565b8710610eb55760025461012c610e9c9190611a67565b92506101f491506002546064610eb29190611a67565b90505b5b5b5b5b8282829550955095505050509193909250565b60025481565b610eda6115b2565b60018110158015610eec575060648111155b610f2b576040517f08c379a0000000000000000000000000000000000000000000000000000000008152600401610f2290611c21565b60405180910390fd5b606481610f389190611a67565b60018190555050565b600560008473ffffffffffffffffffffffffffffffffffffffff1673ffffffffffffffffffffffffffffffffffffffff1681526020019081526020016000206000600454815260200190815260200160002060080160009054906101000a900460ff16610fb857610fb3828483611301565b610fc3565b610fc28382610fc8565b5b505050565b6000806000610fd684610d5a565b9250925092506000600560008773ffffffffffffffffffffffffffffffffffffffff1673ffffffffffffffffffffffffffffffffffffffff1681526020019081526020016000206000600454815260200190815260200160002090506000600560008360080160019054906101000a900473ffffffffffffffffffffffffffffffffffffffff1673ffffffffffffffffffffffffffffffffffffffff1673ffffffffffffffffffffffffffffffffffffffff168152602001908152602001600020600060045481526020019081526020016000209050848260010160008282546110c09190611a11565b92505081905550828260050160008282546110db9190611a11565b92505081905550828260040160008282546110f69190611a11565b92505081905550828160050160008282546111119190611a11565b925050819055508160060154841115611137578382600601819055508282600301819055505b600073ffffffffffffffffffffffffffffffffffffffff168260080160019054906101000a900473ffffffffffffffffffffffffffffffffffffffff1673ffffffffffffffffffffffffffffffffffffffff161461119a576111988761027d565b505b50505050505050565b6005602052816000526040600020602052806000526040600020600091509150508060000154908060010154908060020154908060030154908060040154908060050154908060060154908060070154908060080160009054906101000a900460ff16908060080160019054906101000a900473ffffffffffffffffffffffffffffffffffffffff16908060090160009054906101000a900473ffffffffffffffffffffffffffffffffffffffff169080600a0160009054906101000a900473ffffffffffffffffffffffffffffffffffffffff1690508c565b6112856115b2565b600073ffffffffffffffffffffffffffffffffffffffff168173ffffffffffffffffffffffffffffffffffffffff1614156112f5576040517f08c379a00000000000000000000000000000000000000000000000000000000081526004016112ec90611cb3565b60405180910390fd5b6112fe81611630565b50565b600080600061130f84610d5a565b9250925092506000600560008773ffffffffffffffffffffffffffffffffffffffff1673ffffffffffffffffffffffffffffffffffffffff16815260200190815260200160002060006004548152602001908152602001600020905083816001018190555060018160080160006101000a81548160ff021916908315150217905550818160030181905550818160040181905550828160060181905550818160050160008282546113c09190611a11565b92505081905550600073ffffffffffffffffffffffffffffffffffffffff168773ffffffffffffffffffffffffffffffffffffffff16146115a95761140487610bcf565b868160080160016101000a81548173ffffffffffffffffffffffffffffffffffffffff021916908373ffffffffffffffffffffffffffffffffffffffff1602179055506000600560008973ffffffffffffffffffffffffffffffffffffffff1673ffffffffffffffffffffffffffffffffffffffff168152602001908152602001600020600060045481526020019081526020016000209050828160050160008282546114b19190611a11565b92505081905550600073ffffffffffffffffffffffffffffffffffffffff168160090160009054906101000a900473ffffffffffffffffffffffffffffffffffffffff1673ffffffffffffffffffffffffffffffffffffffff16141561155957868160090160006101000a81548173ffffffffffffffffffffffffffffffffffffffff021916908373ffffffffffffffffffffffffffffffffffffffff16021790555061159d565b8681600a0160006101000a81548173ffffffffffffffffffffffffffffffffffffffff021916908373ffffffffffffffffffffffffffffffffffffffff1602179055505b6115a68761027d565b50505b50505050505050565b6115ba6116f4565b73ffffffffffffffffffffffffffffffffffffffff166115d8610b80565b73ffffffffffffffffffffffffffffffffffffffff161461162e576040517f08c379a000000000000000000000000000000000000000000000000000000000815260040161162590611d1f565b60405180910390fd5b565b60008060009054906101000a900473ffffffffffffffffffffffffffffffffffffffff169050816000806101000a81548173ffffffffffffffffffffffffffffffffffffffff021916908373ffffffffffffffffffffffffffffffffffffffff1602179055508173ffffffffffffffffffffffffffffffffffffffff168173ffffffffffffffffffffffffffffffffffffffff167f8be0079c531659141344cd1fd0a4f28419497f9722a3daafe3b4186f6b6457e060405160405180910390a35050565b600033905090565b600080fd5b600073ffffffffffffffffffffffffffffffffffffffff82169050919050565b600061172c82611701565b9050919050565b61173c81611721565b811461174757600080fd5b50565b60008135905061175981611733565b92915050565b600060208284031215611775576117746116fc565b5b60006117838482850161174a565b91505092915050565b6000819050919050565b61179f8161178c565b82525050565b60006020820190506117ba6000830184611796565b92915050565b6117c981611721565b82525050565b60006020820190506117e460008301846117c0565b92915050565b6117f38161178c565b81146117fe57600080fd5b50565b600081359050611810816117ea565b92915050565b60006020828403121561182c5761182b6116fc565b5b600061183a84828501611801565b91505092915050565b60006060820190506118586000830186611796565b6118656020830185611796565b6118726040830184611796565b949350505050565b600080600060608486031215611893576118926116fc565b5b60006118a18682870161174a565b93505060206118b28682870161174a565b92505060406118c386828701611801565b9150509250925092565b600080604083850312156118e4576118e36116fc565b5b60006118f28582860161174a565b925050602061190385828601611801565b9150509250929050565b60008115159050919050565b6119228161190d565b82525050565b60006101808201905061193e600083018f611796565b61194b602083018e611796565b611958604083018d611796565b611965606083018c611796565b611972608083018b611796565b61197f60a083018a611796565b61198c60c0830189611796565b61199960e0830188611796565b6119a7610100830187611919565b6119b56101208301866117c0565b6119c36101408301856117c0565b6119d16101608301846117c0565b9d9c50505050505050505050505050565b7f4e487b7100000000000000000000000000000000000000000000000000000000600052601160045260246000fd5b6000611a1c8261178c565b9150611a278361178c565b9250827fffffffffffffffffffffffffffffffffffffffffffffffffffffffffffffffff03821115611a5c57611a5b6119e2565b5b828201905092915050565b6000611a728261178c565b9150611a7d8361178c565b9250817fffffffffffffffffffffffffffffffffffffffffffffffffffffffffffffffff0483118215151615611ab657611ab56119e2565b5b828202905092915050565b7f4e487b7100000000000000000000000000000000000000000000000000000000600052601260045260246000fd5b6000611afb8261178c565b9150611b068361178c565b925082611b1657611b15611ac1565b5b828204905092915050565b6000611b2c8261178c565b9150611b378361178c565b925082821015611b4a57611b496119e2565b5b828203905092915050565b6000611b608261178c565b91507fffffffffffffffffffffffffffffffffffffffffffffffffffffffffffffffff821415611b9357611b926119e2565b5b600182019050919050565b600082825260208201905092915050565b7f50657263656e74206d757374206265206265747765656e203120616e6420313060008201527f3000000000000000000000000000000000000000000000000000000000000000602082015250565b6000611c0b602183611b9e565b9150611c1682611baf565b604082019050919050565b60006020820190508181036000830152611c3a81611bfe565b9050919050565b7f4f776e61626c653a206e6577206f776e657220697320746865207a65726f206160008201527f6464726573730000000000000000000000000000000000000000000000000000602082015250565b6000611c9d602683611b9e565b9150611ca882611c41565b604082019050919050565b60006020820190508181036000830152611ccc81611c90565b9050919050565b7f4f776e61626c653a2063616c6c6572206973206e6f7420746865206f776e6572600082015250565b6000611d09602083611b9e565b9150611d1482611cd3565b602082019050919050565b60006020820190508181036000830152611d3881611cfc565b905091905056fea26469706673582212207dc1a1dad7648b8c96eb2c6ba1a54f180a76709997f45cde43ef0391e7340ea264736f6c634300080a0033",
  "linkReferences": {},
  "deployedLinkReferences": {}
}