{
  "_format": "hh-sol-artifact-1",
  "contractName": "SomeFi",
  "sourceName": "contracts/SomeFi.sol",
  "abi": [
    {
      "inputs": [],
      "name": "InvalidReferrerAddress",
      "type": "error"
    },
    {
      "inputs": [],
      "name": "ReferrerHasFull",
      "type": "error"
    },
    {
      "inputs": [],
      "name": "ReferrerHasFullThisBranch",
      "type": "error"
    },
    {
      "anonymous": false,
      "inputs": [
        {
          "indexed": true,
          "internalType": "address",
          "name": "owner",
          "type": "address"
        },
        {
          "indexed": true,
          "internalType": "address",
          "name": "spender",
          "type": "address"
        },
        {
          "indexed": false,
          "internalType": "uint256",
          "name": "value",
          "type": "uint256"
        }
      ],
      "name": "Approval",
      "type": "event"
    },
    {
      "anonymous": false,
      "inputs": [
        {
          "indexed": false,
          "internalType": "uint8",
          "name": "version",
          "type": "uint8"
        }
      ],
      "name": "Initialized",
      "type": "event"
    },
    {
      "anonymous": false,
      "inputs": [
        {
          "indexed": true,
          "internalType": "address",
          "name": "previousOwner",
          "type": "address"
        },
        {
          "indexed": true,
          "internalType": "address",
          "name": "newOwner",
          "type": "address"
        }
      ],
      "name": "OwnershipTransferred",
      "type": "event"
    },
    {
      "anonymous": false,
      "inputs": [
        {
          "indexed": true,
          "internalType": "address",
          "name": "from",
          "type": "address"
        },
        {
          "indexed": true,
          "internalType": "address",
          "name": "to",
          "type": "address"
        },
        {
          "indexed": false,
          "internalType": "uint256",
          "name": "value",
          "type": "uint256"
        }
      ],
      "name": "Transfer",
      "type": "event"
    },
    {
      "anonymous": false,
      "inputs": [
        {
          "indexed": false,
          "internalType": "address",
          "name": "buyer",
          "type": "address"
        },
        {
          "indexed": false,
          "internalType": "uint256",
          "name": "amount",
          "type": "uint256"
        }
      ],
      "name": "buyIco",
      "type": "event"
    },
    {
      "inputs": [
        {
          "internalType": "address",
          "name": "_address",
          "type": "address"
        }
      ],
      "name": "addAddressToBlacklist",
      "outputs": [],
      "stateMutability": "nonpayable",
      "type": "function"
    },
    {
      "inputs": [
        {
          "internalType": "address",
          "name": "owner",
          "type": "address"
        },
        {
          "internalType": "address",
          "name": "spender",
          "type": "address"
        }
      ],
      "name": "allowance",
      "outputs": [
        {
          "internalType": "uint256",
          "name": "",
          "type": "uint256"
        }
      ],
      "stateMutability": "view",
      "type": "function"
    },
    {
      "inputs": [
        {
          "internalType": "address",
          "name": "spender",
          "type": "address"
        },
        {
          "internalType": "uint256",
          "name": "amount",
          "type": "uint256"
        }
      ],
      "name": "approve",
      "outputs": [
        {
          "internalType": "bool",
          "name": "",
          "type": "bool"
        }
      ],
      "stateMutability": "nonpayable",
      "type": "function"
    },
    {
      "inputs": [
        {
          "internalType": "address",
          "name": "account",
          "type": "address"
        }
      ],
      "name": "balanceOf",
      "outputs": [
        {
          "internalType": "uint256",
          "name": "",
          "type": "uint256"
        }
      ],
      "stateMutability": "view",
      "type": "function"
    },
    {
      "inputs": [
        {
          "internalType": "address",
          "name": "",
          "type": "address"
        }
      ],
      "name": "blacklist",
      "outputs": [
        {
          "internalType": "bool",
          "name": "",
          "type": "bool"
        }
      ],
      "stateMutability": "view",
      "type": "function"
    },
    {
      "inputs": [
        {
          "internalType": "uint256",
          "name": "amount",
          "type": "uint256"
        }
      ],
      "name": "burn",
      "outputs": [],
      "stateMutability": "nonpayable",
      "type": "function"
    },
    {
      "inputs": [
        {
          "internalType": "address",
          "name": "account",
          "type": "address"
        },
        {
          "internalType": "uint256",
          "name": "amount",
          "type": "uint256"
        }
      ],
      "name": "burnFrom",
      "outputs": [],
      "stateMutability": "nonpayable",
      "type": "function"
    },
    {
      "inputs": [
        {
          "internalType": "address",
          "name": "ref",
          "type": "address"
        },
        {
          "internalType": "bool",
          "name": "isLeft",
          "type": "bool"
        },
        {
          "internalType": "uint256",
          "name": "amount",
          "type": "uint256"
        }
      ],
      "name": "buyICOByUSDT",
      "outputs": [],
      "stateMutability": "nonpayable",
      "type": "function"
    },
    {
      "inputs": [
        {
          "internalType": "uint256",
          "name": "round",
          "type": "uint256"
        }
      ],
      "name": "claimCommission",
      "outputs": [],
      "stateMutability": "nonpayable",
      "type": "function"
    },
    {
      "inputs": [],
      "name": "claimUSDT",
      "outputs": [],
      "stateMutability": "nonpayable",
      "type": "function"
    },
    {
      "inputs": [],
      "name": "closeIco",
      "outputs": [],
      "stateMutability": "nonpayable",
      "type": "function"
    },
    {
      "inputs": [],
      "name": "decimals",
      "outputs": [
        {
          "internalType": "uint8",
          "name": "",
          "type": "uint8"
        }
      ],
      "stateMutability": "view",
      "type": "function"
    },
    {
      "inputs": [
        {
          "internalType": "address",
          "name": "spender",
          "type": "address"
        },
        {
          "internalType": "uint256",
          "name": "subtractedValue",
          "type": "uint256"
        }
      ],
      "name": "decreaseAllowance",
      "outputs": [
        {
          "internalType": "bool",
          "name": "",
          "type": "bool"
        }
      ],
      "stateMutability": "nonpayable",
      "type": "function"
    },
    {
      "inputs": [],
      "name": "etherValue",
      "outputs": [
        {
          "internalType": "uint256",
          "name": "",
          "type": "uint256"
        }
      ],
      "stateMutability": "view",
      "type": "function"
    },
    {
      "inputs": [
        {
          "internalType": "uint256",
          "name": "_roundId",
          "type": "uint256"
        }
      ],
      "name": "getSoldbyRound",
      "outputs": [
        {
          "internalType": "uint256",
          "name": "",
          "type": "uint256"
        }
      ],
      "stateMutability": "view",
      "type": "function"
    },
    {
      "inputs": [],
      "name": "icoHasEnded",
      "outputs": [
        {
          "internalType": "bool",
          "name": "",
          "type": "bool"
        }
      ],
      "stateMutability": "view",
      "type": "function"
    },
    {
      "inputs": [
        {
          "internalType": "address",
          "name": "spender",
          "type": "address"
        },
        {
          "internalType": "uint256",
          "name": "addedValue",
          "type": "uint256"
        }
      ],
      "name": "increaseAllowance",
      "outputs": [
        {
          "internalType": "bool",
          "name": "",
          "type": "bool"
        }
      ],
      "stateMutability": "nonpayable",
      "type": "function"
    },
    {
      "inputs": [
        {
          "internalType": "address",
          "name": "_usdtContractAddress",
          "type": "address"
        },
        {
          "internalType": "address",
          "name": "_operatorAddress",
          "type": "address"
        },
        {
          "internalType": "address",
          "name": "_walletBackup",
          "type": "address"
        },
        {
          "internalType": "address",
          "name": "_walletMain",
          "type": "address"
        }
      ],
      "name": "initialize",
      "outputs": [],
      "stateMutability": "nonpayable",
      "type": "function"
    },
    {
      "inputs": [
        {
          "internalType": "address",
          "name": "to",
          "type": "address"
        },
        {
          "internalType": "uint256",
          "name": "amount",
          "type": "uint256"
        }
      ],
      "name": "mint",
      "outputs": [],
      "stateMutability": "nonpayable",
      "type": "function"
    },
    {
      "inputs": [],
      "name": "name",
      "outputs": [
        {
          "internalType": "string",
          "name": "",
          "type": "string"
        }
      ],
      "stateMutability": "view",
      "type": "function"
    },
    {
      "inputs": [],
      "name": "owner",
      "outputs": [
        {
          "internalType": "address",
          "name": "",
          "type": "address"
        }
      ],
      "stateMutability": "view",
      "type": "function"
    },
    {
      "inputs": [
        {
          "internalType": "uint256",
          "name": "",
          "type": "uint256"
        }
      ],
      "name": "pkgAmount",
      "outputs": [
        {
          "internalType": "uint256",
          "name": "",
          "type": "uint256"
        }
      ],
      "stateMutability": "view",
      "type": "function"
    },
    {
      "inputs": [
        {
          "internalType": "uint256",
          "name": "",
          "type": "uint256"
        }
      ],
      "name": "pkgRate",
      "outputs": [
        {
          "internalType": "uint256",
          "name": "",
          "type": "uint256"
        }
      ],
      "stateMutability": "view",
      "type": "function"
    },
    {
      "inputs": [],
      "name": "ratePerUSDT",
      "outputs": [
        {
          "internalType": "uint256",
          "name": "",
          "type": "uint256"
        }
      ],
      "stateMutability": "view",
      "type": "function"
    },
    {
      "inputs": [
        {
          "internalType": "address",
          "name": "",
          "type": "address"
        },
        {
          "internalType": "uint256",
          "name": "",
          "type": "uint256"
        }
      ],
      "name": "refInfo",
      "outputs": [
        {
          "internalType": "uint256",
          "name": "profit",
          "type": "uint256"
        },
        {
          "internalType": "uint256",
          "name": "maxProfit",
          "type": "uint256"
        },
        {
          "internalType": "uint256",
          "name": "profitClaimed",
          "type": "uint256"
        },
        {
          "internalType": "uint256",
          "name": "currentPackageSize",
          "type": "uint256"
        },
        {
          "internalType": "uint256",
          "name": "totalPackageSize",
          "type": "uint256"
        },
        {
          "internalType": "uint256",
          "name": "branchInvestment",
          "type": "uint256"
        },
        {
          "internalType": "uint256",
          "name": "commissionPercentage",
          "type": "uint256"
        },
        {
          "internalType": "uint256",
          "name": "totalCommissionProfit",
          "type": "uint256"
        },
        {
          "internalType": "bool",
          "name": "isCanBeRef",
          "type": "bool"
        },
        {
          "internalType": "address",
          "name": "ref",
          "type": "address"
        },
        {
          "internalType": "address",
          "name": "left",
          "type": "address"
        },
        {
          "internalType": "address",
          "name": "right",
          "type": "address"
        }
      ],
      "stateMutability": "view",
      "type": "function"
    },
    {
      "inputs": [
        {
          "internalType": "address",
          "name": "_address",
          "type": "address"
        }
      ],
      "name": "removeAddressFromBlacklist",
      "outputs": [],
      "stateMutability": "nonpayable",
      "type": "function"
    },
    {
      "inputs": [],
      "name": "renounceOwnership",
      "outputs": [],
      "stateMutability": "nonpayable",
      "type": "function"
    },
    {
      "inputs": [],
      "name": "roundId",
      "outputs": [
        {
          "internalType": "uint256",
          "name": "",
          "type": "uint256"
        }
      ],
      "stateMutability": "view",
      "type": "function"
    },
    {
      "inputs": [
        {
          "internalType": "uint256",
          "name": "_percent",
          "type": "uint256"
        }
      ],
      "name": "setDirectCommissionPercentage",
      "outputs": [],
      "stateMutability": "nonpayable",
      "type": "function"
    },
    {
      "inputs": [
        {
          "internalType": "address",
          "name": "_operatorAddress",
          "type": "address"
        }
      ],
      "name": "setOperator",
      "outputs": [],
      "stateMutability": "nonpayable",
      "type": "function"
    },
    {
      "inputs": [
        {
          "internalType": "uint256[]",
          "name": "_pkgAmount",
          "type": "uint256[]"
        },
        {
          "internalType": "uint256[]",
          "name": "_pkgRate",
          "type": "uint256[]"
        }
      ],
      "name": "setPkgRate",
      "outputs": [],
      "stateMutability": "nonpayable",
      "type": "function"
    },
    {
      "inputs": [
        {
          "internalType": "uint256",
          "name": "_startTimeICO",
          "type": "uint256"
        },
        {
          "internalType": "uint256",
          "name": "_totalAmount",
          "type": "uint256"
        },
        {
          "internalType": "uint256",
          "name": "_totalAmountPerUSDT",
          "type": "uint256"
        }
      ],
      "name": "setRoundInfo",
      "outputs": [],
      "stateMutability": "nonpayable",
      "type": "function"
    },
    {
      "inputs": [],
      "name": "startTimeICO",
      "outputs": [
        {
          "internalType": "uint256",
          "name": "",
          "type": "uint256"
        }
      ],
      "stateMutability": "view",
      "type": "function"
    },
    {
      "inputs": [],
      "name": "symbol",
      "outputs": [
        {
          "internalType": "string",
          "name": "",
          "type": "string"
        }
      ],
      "stateMutability": "view",
      "type": "function"
    },
    {
      "inputs": [],
      "name": "tokenUSDT",
      "outputs": [
        {
          "internalType": "contract IERC20Upgradeable",
          "name": "",
          "type": "address"
        }
      ],
      "stateMutability": "view",
      "type": "function"
    },
    {
      "inputs": [],
      "name": "totalAmount",
      "outputs": [
        {
          "internalType": "uint256",
          "name": "",
          "type": "uint256"
        }
      ],
      "stateMutability": "view",
      "type": "function"
    },
    {
      "inputs": [],
      "name": "totalSupply",
      "outputs": [
        {
          "internalType": "uint256",
          "name": "",
          "type": "uint256"
        }
      ],
      "stateMutability": "view",
      "type": "function"
    },
    {
      "inputs": [
        {
          "internalType": "address",
          "name": "to",
          "type": "address"
        },
        {
          "internalType": "uint256",
          "name": "amount",
          "type": "uint256"
        }
      ],
      "name": "transfer",
      "outputs": [
        {
          "internalType": "bool",
          "name": "",
          "type": "bool"
        }
      ],
      "stateMutability": "nonpayable",
      "type": "function"
    },
    {
      "inputs": [
        {
          "components": [
            {
              "internalType": "address",
              "name": "userAddress",
              "type": "address"
            },
            {
              "internalType": "uint256",
              "name": "amount",
              "type": "uint256"
            }
          ],
          "internalType": "struct SomeFi.Airdrop[]",
          "name": "arrAirdrop",
          "type": "tuple[]"
        }
      ],
      "name": "transferAirdrops",
      "outputs": [],
      "stateMutability": "nonpayable",
      "type": "function"
    },
    {
      "inputs": [
        {
          "internalType": "address",
          "name": "from",
          "type": "address"
        },
        {
          "internalType": "address",
          "name": "to",
          "type": "address"
        },
        {
          "internalType": "uint256",
          "name": "amount",
          "type": "uint256"
        }
      ],
      "name": "transferFrom",
      "outputs": [
        {
          "internalType": "bool",
          "name": "",
          "type": "bool"
        }
      ],
      "stateMutability": "nonpayable",
      "type": "function"
    },
    {
      "inputs": [
        {
          "internalType": "address",
          "name": "newOwner",
          "type": "address"
        }
      ],
      "name": "transferOwnership",
      "outputs": [],
      "stateMutability": "nonpayable",
      "type": "function"
    },
    {
      "inputs": [
        {
          "internalType": "address",
          "name": "",
          "type": "address"
        },
        {
          "internalType": "uint256",
          "name": "",
          "type": "uint256"
        }
      ],
      "name": "users",
      "outputs": [
        {
          "internalType": "uint256",
          "name": "amountICO",
          "type": "uint256"
        },
        {
          "internalType": "uint256",
          "name": "claimAt",
          "type": "uint256"
        }
      ],
      "stateMutability": "view",
      "type": "function"
    }
  ],
  "bytecode": "0x608060405234801561001057600080fd5b50615e1980620000216000396000f3fe608060405234801561001057600080fd5b506004361061025e5760003560e01c80638eca493a11610146578063c6cc51d3116100c3578063dd62ed3e11610087578063dd62ed3e146106fe578063ebfd3e041461072e578063f2c816ae14610769578063f2fde38b14610785578063f8c8765e146107a1578063f9f92be4146107bd5761025e565b8063c6cc51d31461066e578063d2e90d0f1461068a578063d3abfc06146106a8578063d4980257146106c6578063d8ef5f5f146106e25761025e565b80639fac9abf1161010a5780639fac9abf146105a4578063a457c2d7146105c2578063a9059cbb146105f2578063afd768ac14610622578063b3ab15fb146106525761025e565b80638eca493a146105125780639206972d1461052e57806395d89b411461054a57806399c5c8aa146105685780639c111aa4146105865761025e565b806342966c68116101df578063715018a6116101a3578063715018a61461048a5780637564ac381461049457806379cc67901461049e5780637cf55ca5146104ba5780638cd221c9146104d65780638da5cb5b146104f45761025e565b806342966c68146103d357806348546971146103ef57806354a02f9e146103f9578063663c166e1461042a57806370a082311461045a5761025e565b806323b872dd1161022657806323b872dd1461031d578063313ce5671461034d57806335e82f3a1461036b578063395093511461038757806340c10f19146103b75761025e565b806306fdde0314610263578063095ea7b31461028157806314fd0c0a146102b157806318160ddd146102e15780631a39d8ef146102ff575b600080fd5b61026b6107ed565b6040516102789190614508565b60405180910390f35b61029b600480360381019061029691906145d2565b61087f565b6040516102a8919061462d565b60405180910390f35b6102cb60048036038101906102c69190614648565b6108a2565b6040516102d89190614684565b60405180910390f35b6102e96108bd565b6040516102f69190614684565b60405180910390f35b6103076108c7565b6040516103149190614684565b60405180910390f35b6103376004803603810190610332919061469f565b6108cd565b604051610344919061462d565b60405180910390f35b6103556108fc565b604051610362919061470e565b60405180910390f35b61038560048036038101906103809190614729565b610905565b005b6103a1600480360381019061039c91906145d2565b610a53565b6040516103ae919061462d565b60405180910390f35b6103d160048036038101906103cc91906145d2565b610a8a565b005b6103ed60048036038101906103e89190614648565b610aa0565b005b6103f7610ab4565b005b610413600480360381019061040e91906145d2565b610b5d565b604051610421929190614756565b60405180910390f35b610444600480360381019061043f9190614648565b610b8e565b6040516104519190614684565b60405180910390f35b610474600480360381019061046f9190614729565b610bab565b6040516104819190614684565b60405180910390f35b610492610bf4565b005b61049c610c08565b005b6104b860048036038101906104b391906145d2565b610d54565b005b6104d460048036038101906104cf91906147ab565b610d74565b005b6104de610f0c565b6040516104eb9190614684565b60405180910390f35b6104fc610f12565b604051610509919061480d565b60405180910390f35b61052c60048036038101906105279190614648565b610f3c565b005b610548600480360381019061054391906149c5565b6111c2565b005b6105526112b7565b60405161055f9190614508565b60405180910390f35b610570611349565b60405161057d9190614a6d565b60405180910390f35b61058e61136f565b60405161059b9190614684565b60405180910390f35b6105ac611375565b6040516105b9919061462d565b60405180910390f35b6105dc60048036038101906105d791906145d2565b611388565b6040516105e9919061462d565b60405180910390f35b61060c600480360381019061060791906145d2565b6113ff565b604051610619919061462d565b60405180910390f35b61063c60048036038101906106379190614648565b611422565b6040516106499190614684565b60405180910390f35b61066c60048036038101906106679190614729565b61143d565b005b61068860048036038101906106839190614a88565b611510565b005b6106926116bf565b60405161069f9190614684565b60405180910390f35b6106b06116c5565b6040516106bd9190614684565b60405180910390f35b6106e060048036038101906106db9190614648565b6116cb565b005b6106fc60048036038101906106f79190614b9e565b6117be565b005b61071860048036038101906107139190614c16565b6119de565b6040516107259190614684565b60405180910390f35b610748600480360381019061074391906145d2565b611a65565b6040516107609c9b9a99989796959493929190614c56565b60405180910390f35b610783600480360381019061077e9190614729565b611b3f565b005b61079f600480360381019061079a9190614729565b611c96565b005b6107bb60048036038101906107b69190614d10565b611d1a565b005b6107d760048036038101906107d29190614729565b6120ac565b6040516107e4919061462d565b60405180910390f35b6060603680546107fc90614da6565b80601f016020809104026020016040519081016040528092919081815260200182805461082890614da6565b80156108755780601f1061084a57610100808354040283529160200191610875565b820191906000526020600020905b81548152906001019060200180831161085857829003601f168201915b5050505050905090565b60008061088a6120cc565b90506108978185856120d4565b600191505092915050565b60d981600581106108b257600080fd5b016000915090505481565b6000603554905090565b60d15481565b6000806108d86120cc565b90506108e585828561229f565b6108f085858561232b565b60019150509392505050565b60006012905090565b60e260003373ffffffffffffffffffffffffffffffffffffffff1673ffffffffffffffffffffffffffffffffffffffff16815260200190815260200160002060009054906101000a900460ff16610991576040517f08c379a000000000000000000000000000000000000000000000000000000000815260040161098890614e24565b60405180910390fd5b600073ffffffffffffffffffffffffffffffffffffffff168173ffffffffffffffffffffffffffffffffffffffff161415610a01576040517f08c379a00000000000000000000000000000000000000000000000000000000081526004016109f890614e90565b60405180910390fd5b60e360008273ffffffffffffffffffffffffffffffffffffffff1673ffffffffffffffffffffffffffffffffffffffff16815260200190815260200160002060006101000a81549060ff021916905550565b600080610a5e6120cc565b9050610a7f818585610a7085896119de565b610a7a9190614edf565b6120d4565b600191505092915050565b610a926125af565b610a9c828261262d565b5050565b610ab1610aab6120cc565b8261278e565b50565b60e260003373ffffffffffffffffffffffffffffffffffffffff1673ffffffffffffffffffffffffffffffffffffffff16815260200190815260200160002060009054906101000a900460ff16610b40576040517f08c379a0000000000000000000000000000000000000000000000000000000008152600401610b3790614e24565b60405180910390fd5b600160de60006101000a81548160ff021916908315150217905550565b60e0602052816000526040600020602052806000526040600020600091509150508060000154908060010154905082565b600060df6000838152602001908152602001600020549050919050565b6000603360008373ffffffffffffffffffffffffffffffffffffffff1673ffffffffffffffffffffffffffffffffffffffff168152602001908152602001600020549050919050565b610bfc6125af565b610c066000612967565b565b610c106125af565b600060cc60009054906101000a900473ffffffffffffffffffffffffffffffffffffffff1673ffffffffffffffffffffffffffffffffffffffff166370a08231306040518263ffffffff1660e01b8152600401610c6d919061480d565b602060405180830381865afa158015610c8a573d6000803e3d6000fd5b505050506040513d601f19601f82011682018060405250810190610cae9190614f4a565b905060cc60009054906101000a900473ffffffffffffffffffffffffffffffffffffffff1673ffffffffffffffffffffffffffffffffffffffff1663a9059cbb33836040518363ffffffff1660e01b8152600401610d0d929190614f77565b6020604051808303816000875af1158015610d2c573d6000803e3d6000fd5b505050506040513d601f19601f82011682018060405250810190610d509190614fb5565b5050565b610d6682610d606120cc565b8361229f565b610d70828261278e565b5050565b6000610d7e6120cc565b9050610d8981612a2d565b60e160008273ffffffffffffffffffffffffffffffffffffffff1673ffffffffffffffffffffffffffffffffffffffff168152602001908152602001600020600060d054815260200190815260200160002060080160009054906101000a900460ff16610e0157610dfc81858585612ace565b610e0c565b610e0b8183612d37565b5b600060d35483610e1c9190614fe2565b905060cc60009054906101000a900473ffffffffffffffffffffffffffffffffffffffff1673ffffffffffffffffffffffffffffffffffffffff166323b872dd8330866040518463ffffffff1660e01b8152600401610e7d9392919061503c565b6020604051808303816000875af1158015610e9c573d6000803e3d6000fd5b505050506040513d601f19601f82011682018060405250810190610ec09190614fb5565b50610ecc828285612f12565b7f588b5112eade36803f912bc8ff71857e84630503b5bd9bb4c9f546e437b71cd78284604051610efd929190614f77565b60405180910390a15050505050565b60d05481565b6000609760009054906101000a900473ffffffffffffffffffffffffffffffffffffffff16905090565b6000610f466120cc565b905060008060e160008473ffffffffffffffffffffffffffffffffffffffff1673ffffffffffffffffffffffffffffffffffffffff16815260200190815260200160002060008581526020019081526020016000209050600060cc60009054906101000a900473ffffffffffffffffffffffffffffffffffffffff1673ffffffffffffffffffffffffffffffffffffffff166370a0823160cf60009054906101000a900473ffffffffffffffffffffffffffffffffffffffff166040518263ffffffff1660e01b815260040161101c919061480d565b602060405180830381865afa158015611039573d6000803e3d6000fd5b505050506040513d601f19601f8201168201806040525081019061105d9190614f4a565b905081600101548260000154111561107b5781600101549250611083565b816000015492505b60008260020154846110959190615073565b9050818111156110da576040517f08c379a00000000000000000000000000000000000000000000000000000000081526004016110d190615119565b60405180910390fd5b60cc60009054906101000a900473ffffffffffffffffffffffffffffffffffffffff1673ffffffffffffffffffffffffffffffffffffffff166323b872dd60cf60009054906101000a900473ffffffffffffffffffffffffffffffffffffffff1687846040518463ffffffff1660e01b815260040161115b9392919061503c565b6020604051808303816000875af115801561117a573d6000803e3d6000fd5b505050506040513d601f19601f8201168201806040525081019061119e9190614fb5565b50808360020160008282546111b39190614edf565b92505081905550505050505050565b60e260003373ffffffffffffffffffffffffffffffffffffffff1673ffffffffffffffffffffffffffffffffffffffff16815260200190815260200160002060009054906101000a900460ff1661124e576040517f08c379a000000000000000000000000000000000000000000000000000000000815260040161124590614e24565b60405180910390fd5b60005b81518110156112b3576112a08282815181106112705761126f615139565b5b60200260200101516000015183838151811061128f5761128e615139565b5b60200260200101516020015161262d565b80806112ab90615168565b915050611251565b5050565b6060603780546112c690614da6565b80601f01602080910402602001604051908101604052809291908181526020018280546112f290614da6565b801561133f5780601f106113145761010080835404028352916020019161133f565b820191906000526020600020905b81548152906001019060200180831161132257829003601f168201915b5050505050905090565b60cc60009054906101000a900473ffffffffffffffffffffffffffffffffffffffff1681565b60d35481565b60de60009054906101000a900460ff1681565b6000806113936120cc565b905060006113a182866119de565b9050838110156113e6576040517f08c379a00000000000000000000000000000000000000000000000000000000081526004016113dd90615223565b60405180910390fd5b6113f382868684036120d4565b60019250505092915050565b60008061140a6120cc565b905061141781858561232b565b600191505092915050565b60d4816005811061143257600080fd5b016000915090505481565b6114456125af565b600073ffffffffffffffffffffffffffffffffffffffff168173ffffffffffffffffffffffffffffffffffffffff1614156114b5576040517f08c379a00000000000000000000000000000000000000000000000000000000081526004016114ac9061528f565b60405180910390fd5b600160e260008373ffffffffffffffffffffffffffffffffffffffff1673ffffffffffffffffffffffffffffffffffffffff16815260200190815260200160002060006101000a81548160ff02191690831515021790555050565b60e260003373ffffffffffffffffffffffffffffffffffffffff1673ffffffffffffffffffffffffffffffffffffffff16815260200190815260200160002060009054906101000a900460ff1661159c576040517f08c379a000000000000000000000000000000000000000000000000000000000815260040161159390614e24565b60405180910390fd5b4283116115de576040517f08c379a00000000000000000000000000000000000000000000000000000000081526004016115d5906152fb565b60405180910390fd5b60008111611621576040517f08c379a000000000000000000000000000000000000000000000000000000000815260040161161890615367565b60405180910390fd5b60de60009054906101000a900460ff16611670576040517f08c379a0000000000000000000000000000000000000000000000000000000008152600401611667906153d3565b60405180910390fd5b600160d060008282546116839190614edf565b925050819055508160d1819055508260d2819055508060d381905550600060de60006101000a81548160ff021916908315150217905550505050565b60d25481565b60cb5481565b60e260003373ffffffffffffffffffffffffffffffffffffffff1673ffffffffffffffffffffffffffffffffffffffff16815260200190815260200160002060009054906101000a900460ff16611757576040517f08c379a000000000000000000000000000000000000000000000000000000000815260040161174e90614e24565b60405180910390fd5b60018110158015611769575060648111155b6117a8576040517f08c379a000000000000000000000000000000000000000000000000000000000815260040161179f90615465565b60405180910390fd5b6064816117b59190614fe2565b60ca8190555050565b816000815181106117d2576117d1615139565b5b602002602001015160d46000600581106117ef576117ee615139565b5b01819055508160018151811061180857611807615139565b5b602002602001015160d460016005811061182557611824615139565b5b01819055508160028151811061183e5761183d615139565b5b602002602001015160d460026005811061185b5761185a615139565b5b01819055508160038151811061187457611873615139565b5b602002602001015160d460036005811061189157611890615139565b5b0181905550816004815181106118aa576118a9615139565b5b602002602001015160d46004600581106118c7576118c6615139565b5b0181905550806000815181106118e0576118df615139565b5b602002602001015160d96000600581106118fd576118fc615139565b5b01819055508060018151811061191657611915615139565b5b602002602001015160d960016005811061193357611932615139565b5b01819055508060028151811061194c5761194b615139565b5b602002602001015160d960026005811061196957611968615139565b5b01819055508060038151811061198257611981615139565b5b602002602001015160d960036005811061199f5761199e615139565b5b0181905550806004815181106119b8576119b7615139565b5b602002602001015160d96004600581106119d5576119d4615139565b5b01819055505050565b6000603460008473ffffffffffffffffffffffffffffffffffffffff1673ffffffffffffffffffffffffffffffffffffffff16815260200190815260200160002060008373ffffffffffffffffffffffffffffffffffffffff1673ffffffffffffffffffffffffffffffffffffffff16815260200190815260200160002054905092915050565b60e1602052816000526040600020602052806000526040600020600091509150508060000154908060010154908060020154908060030154908060040154908060050154908060060154908060070154908060080160009054906101000a900460ff16908060080160019054906101000a900473ffffffffffffffffffffffffffffffffffffffff16908060090160009054906101000a900473ffffffffffffffffffffffffffffffffffffffff169080600a0160009054906101000a900473ffffffffffffffffffffffffffffffffffffffff1690508c565b60e260003373ffffffffffffffffffffffffffffffffffffffff1673ffffffffffffffffffffffffffffffffffffffff16815260200190815260200160002060009054906101000a900460ff16611bcb576040517f08c379a0000000000000000000000000000000000000000000000000000000008152600401611bc290614e24565b60405180910390fd5b600073ffffffffffffffffffffffffffffffffffffffff168173ffffffffffffffffffffffffffffffffffffffff161415611c3b576040517f08c379a0000000000000000000000000000000000000000000000000000000008152600401611c3290614e90565b60405180910390fd5b600160e360008373ffffffffffffffffffffffffffffffffffffffff1673ffffffffffffffffffffffffffffffffffffffff16815260200190815260200160002060006101000a81548160ff02191690831515021790555050565b611c9e6125af565b600073ffffffffffffffffffffffffffffffffffffffff168173ffffffffffffffffffffffffffffffffffffffff161415611d0e576040517f08c379a0000000000000000000000000000000000000000000000000000000008152600401611d05906154f7565b60405180910390fd5b611d1781612967565b50565b60008060019054906101000a900460ff16159050808015611d4b5750600160008054906101000a900460ff1660ff16105b80611d785750611d5a30613151565b158015611d775750600160008054906101000a900460ff1660ff16145b5b611db7576040517f08c379a0000000000000000000000000000000000000000000000000000000008152600401611dae90615589565b60405180910390fd5b60016000806101000a81548160ff021916908360ff1602179055508015611df4576001600060016101000a81548160ff0219169083151502179055505b600073ffffffffffffffffffffffffffffffffffffffff168573ffffffffffffffffffffffffffffffffffffffff161415611e64576040517f08c379a0000000000000000000000000000000000000000000000000000000008152600401611e5b906155f5565b60405180910390fd5b611ed86040518060400160405280600681526020017f536f6d65466900000000000000000000000000000000000000000000000000008152506040518060400160405280600481526020017f534f464900000000000000000000000000000000000000000000000000000000815250613174565b611ee06131d1565b611ef5336a084595161401484a00000061262d565b8460cc60006101000a81548173ffffffffffffffffffffffffffffffffffffffff021916908373ffffffffffffffffffffffffffffffffffffffff160217905550600160e260008673ffffffffffffffffffffffffffffffffffffffff1673ffffffffffffffffffffffffffffffffffffffff16815260200190815260200160002060006101000a81548160ff021916908315150217905550600160de60006101000a81548160ff0219169083151502179055508260ce60016101000a81548173ffffffffffffffffffffffffffffffffffffffff021916908373ffffffffffffffffffffffffffffffffffffffff1602179055508160cf60006101000a81548173ffffffffffffffffffffffffffffffffffffffff021916908373ffffffffffffffffffffffffffffffffffffffff16021790555061271060c98190555061138860ca81905550670de0b6b3a764000060cb8190555080156120a55760008060016101000a81548160ff0219169083151502179055507f7f26b83ff96e1f2b6a682f133852f6798a09c465da95921460cefb3847402498600160405161209c9190615650565b60405180910390a15b5050505050565b60e36020528060005260406000206000915054906101000a900460ff1681565b600033905090565b600073ffffffffffffffffffffffffffffffffffffffff168373ffffffffffffffffffffffffffffffffffffffff161415612144576040517f08c379a000000000000000000000000000000000000000000000000000000000815260040161213b906156dd565b60405180910390fd5b600073ffffffffffffffffffffffffffffffffffffffff168273ffffffffffffffffffffffffffffffffffffffff1614156121b4576040517f08c379a00000000000000000000000000000000000000000000000000000000081526004016121ab9061576f565b60405180910390fd5b80603460008573ffffffffffffffffffffffffffffffffffffffff1673ffffffffffffffffffffffffffffffffffffffff16815260200190815260200160002060008473ffffffffffffffffffffffffffffffffffffffff1673ffffffffffffffffffffffffffffffffffffffff168152602001908152602001600020819055508173ffffffffffffffffffffffffffffffffffffffff168373ffffffffffffffffffffffffffffffffffffffff167f8c5be1e5ebec7d5bd14f71427d1e84f3dd0314c0f7b2291e5b200ac8c7c3b925836040516122929190614684565b60405180910390a3505050565b60006122ab84846119de565b90507fffffffffffffffffffffffffffffffffffffffffffffffffffffffffffffffff81146123255781811015612317576040517f08c379a000000000000000000000000000000000000000000000000000000000815260040161230e906157db565b60405180910390fd5b61232484848484036120d4565b5b50505050565b600073ffffffffffffffffffffffffffffffffffffffff168373ffffffffffffffffffffffffffffffffffffffff16141561239b576040517f08c379a00000000000000000000000000000000000000000000000000000000081526004016123929061586d565b60405180910390fd5b600073ffffffffffffffffffffffffffffffffffffffff168273ffffffffffffffffffffffffffffffffffffffff16141561240b576040517f08c379a0000000000000000000000000000000000000000000000000000000008152600401612402906158ff565b60405180910390fd5b61241683838361322a565b6000603360008573ffffffffffffffffffffffffffffffffffffffff1673ffffffffffffffffffffffffffffffffffffffff1681526020019081526020016000205490508181101561249d576040517f08c379a000000000000000000000000000000000000000000000000000000000815260040161249490615991565b60405180910390fd5b818103603360008673ffffffffffffffffffffffffffffffffffffffff1673ffffffffffffffffffffffffffffffffffffffff1681526020019081526020016000208190555081603360008573ffffffffffffffffffffffffffffffffffffffff1673ffffffffffffffffffffffffffffffffffffffff16815260200190815260200160002060008282546125329190614edf565b925050819055508273ffffffffffffffffffffffffffffffffffffffff168473ffffffffffffffffffffffffffffffffffffffff167fddf252ad1be2c89b69c2b068fc378daa952ba7f163c4a11628f55a4df523b3ef846040516125969190614684565b60405180910390a36125a984848461322f565b50505050565b6125b76120cc565b73ffffffffffffffffffffffffffffffffffffffff166125d5610f12565b73ffffffffffffffffffffffffffffffffffffffff161461262b576040517f08c379a0000000000000000000000000000000000000000000000000000000008152600401612622906159fd565b60405180910390fd5b565b600073ffffffffffffffffffffffffffffffffffffffff168273ffffffffffffffffffffffffffffffffffffffff16141561269d576040517f08c379a000000000000000000000000000000000000000000000000000000000815260040161269490615a69565b60405180910390fd5b6126a96000838361322a565b80603560008282546126bb9190614edf565b9250508190555080603360008473ffffffffffffffffffffffffffffffffffffffff1673ffffffffffffffffffffffffffffffffffffffff16815260200190815260200160002060008282546127119190614edf565b925050819055508173ffffffffffffffffffffffffffffffffffffffff16600073ffffffffffffffffffffffffffffffffffffffff167fddf252ad1be2c89b69c2b068fc378daa952ba7f163c4a11628f55a4df523b3ef836040516127769190614684565b60405180910390a361278a6000838361322f565b5050565b600073ffffffffffffffffffffffffffffffffffffffff168273ffffffffffffffffffffffffffffffffffffffff1614156127fe576040517f08c379a00000000000000000000000000000000000000000000000000000000081526004016127f590615afb565b60405180910390fd5b61280a8260008361322a565b6000603360008473ffffffffffffffffffffffffffffffffffffffff1673ffffffffffffffffffffffffffffffffffffffff16815260200190815260200160002054905081811015612891576040517f08c379a000000000000000000000000000000000000000000000000000000000815260040161288890615b8d565b60405180910390fd5b818103603360008573ffffffffffffffffffffffffffffffffffffffff1673ffffffffffffffffffffffffffffffffffffffff1681526020019081526020016000208190555081603560008282546128e99190615073565b92505081905550600073ffffffffffffffffffffffffffffffffffffffff168373ffffffffffffffffffffffffffffffffffffffff167fddf252ad1be2c89b69c2b068fc378daa952ba7f163c4a11628f55a4df523b3ef8460405161294e9190614684565b60405180910390a36129628360008461322f565b505050565b6000609760009054906101000a900473ffffffffffffffffffffffffffffffffffffffff16905081609760006101000a81548173ffffffffffffffffffffffffffffffffffffffff021916908373ffffffffffffffffffffffffffffffffffffffff1602179055508173ffffffffffffffffffffffffffffffffffffffff168173ffffffffffffffffffffffffffffffffffffffff167f8be0079c531659141344cd1fd0a4f28419497f9722a3daafe3b4186f6b6457e060405160405180910390a35050565b60d254421015612a72576040517f08c379a0000000000000000000000000000000000000000000000000000000008152600401612a6990615bf9565b60405180910390fd5b60de60009054906101000a900460ff1615612ac2576040517f08c379a0000000000000000000000000000000000000000000000000000000008152600401612ab990615c65565b60405180910390fd5b612acb81613234565b50565b6000806000612adc84613334565b925092509250600060e160008973ffffffffffffffffffffffffffffffffffffffff1673ffffffffffffffffffffffffffffffffffffffff168152602001908152602001600020600060d0548152602001908152602001600020905083816001018190555060018160080160006101000a81548160ff02191690831515021790555081816003018190555081816004018190555082816006018190555081816005016000828254612b8d9190614edf565b92505081905550600073ffffffffffffffffffffffffffffffffffffffff168773ffffffffffffffffffffffffffffffffffffffff1614612d2d57612bd187613674565b612bdb87876137ff565b868160080160016101000a81548173ffffffffffffffffffffffffffffffffffffffff021916908373ffffffffffffffffffffffffffffffffffffffff160217905550600060e160008973ffffffffffffffffffffffffffffffffffffffff1673ffffffffffffffffffffffffffffffffffffffff168152602001908152602001600020600060d0548152602001908152602001600020905082816005016000828254612c889190614edf565b925050819055508615612cdd57888160090160006101000a81548173ffffffffffffffffffffffffffffffffffffffff021916908373ffffffffffffffffffffffffffffffffffffffff160217905550612d21565b8881600a0160006101000a81548173ffffffffffffffffffffffffffffffffffffffff021916908373ffffffffffffffffffffffffffffffffffffffff1602179055505b612d2a8961397a565b50505b5050505050505050565b6000806000612d4584613334565b925092509250600060e160008773ffffffffffffffffffffffffffffffffffffffff1673ffffffffffffffffffffffffffffffffffffffff168152602001908152602001600020600060d05481526020019081526020016000209050600060e160008360080160019054906101000a900473ffffffffffffffffffffffffffffffffffffffff1673ffffffffffffffffffffffffffffffffffffffff1673ffffffffffffffffffffffffffffffffffffffff168152602001908152602001600020600060d0548152602001908152602001600020905084826001016000828254612e2f9190614edf565b9250508190555082826005016000828254612e4a9190614edf565b9250508190555082826004016000828254612e659190614edf565b9250508190555082816005016000828254612e809190614edf565b925050819055508160060154841115612ea6578382600601819055508282600301819055505b600073ffffffffffffffffffffffffffffffffffffffff168260080160019054906101000a900473ffffffffffffffffffffffffffffffffffffffff1673ffffffffffffffffffffffffffffffffffffffff1614612f0957612f078761397a565b505b50505050505050565b6000600282612f219190615cb4565b90508260e060008673ffffffffffffffffffffffffffffffffffffffff1673ffffffffffffffffffffffffffffffffffffffff168152602001908152602001600020600060d05481526020019081526020016000206000016000828254612f889190614edf565b925050819055508260df600060d05481526020019081526020016000206000828254612fb49190614edf565b92505081905550612fc5848461262d565b60cc60009054906101000a900473ffffffffffffffffffffffffffffffffffffffff1673ffffffffffffffffffffffffffffffffffffffff1663a9059cbb60ce60019054906101000a900473ffffffffffffffffffffffffffffffffffffffff16836040518363ffffffff1660e01b8152600401613044929190614f77565b6020604051808303816000875af1158015613063573d6000803e3d6000fd5b505050506040513d601f19601f820116820180604052508101906130879190614fb5565b5060cc60009054906101000a900473ffffffffffffffffffffffffffffffffffffffff1673ffffffffffffffffffffffffffffffffffffffff1663a9059cbb60cf60009054906101000a900473ffffffffffffffffffffffffffffffffffffffff16836040518363ffffffff1660e01b8152600401613107929190614f77565b6020604051808303816000875af1158015613126573d6000803e3d6000fd5b505050506040513d601f19601f8201168201806040525081019061314a9190614fb5565b5050505050565b6000808273ffffffffffffffffffffffffffffffffffffffff163b119050919050565b600060019054906101000a900460ff166131c3576040517f08c379a00000000000000000000000000000000000000000000000000000000081526004016131ba90615d57565b60405180910390fd5b6131cd82826140b1565b5050565b600060019054906101000a900460ff16613220576040517f08c379a000000000000000000000000000000000000000000000000000000000815260040161321790615d57565b60405180910390fd5b613228614132565b565b505050565b505050565b600073ffffffffffffffffffffffffffffffffffffffff168173ffffffffffffffffffffffffffffffffffffffff1614156132a4576040517f08c379a000000000000000000000000000000000000000000000000000000000815260040161329b90614e90565b60405180910390fd5b60e360008273ffffffffffffffffffffffffffffffffffffffff1673ffffffffffffffffffffffffffffffffffffffff16815260200190815260200160002060009054906101000a900460ff1615613331576040517f08c379a000000000000000000000000000000000000000000000000000000000815260040161332890615dc3565b60405180910390fd5b50565b6000806000806000905060008060cb5460d460046005811061335957613358615139565b5b01546133659190614fe2565b87106133e15760cb54600360d460046005811061338557613384615139565b5b01546133919190614fe2565b61339b9190614fe2565b925060d96004600581106133b2576133b1615139565b5b0154915060cb5460d46004600581106133ce576133cd615139565b5b01546133da9190614fe2565b9050613661565b60cb5460d46003600581106133f9576133f8615139565b5b01546134059190614fe2565b87106134815760cb54600360d460036005811061342557613424615139565b5b01546134319190614fe2565b61343b9190614fe2565b925060d960036005811061345257613451615139565b5b0154915060cb5460d460036005811061346e5761346d615139565b5b015461347a9190614fe2565b9050613660565b60cb5460d460026005811061349957613498615139565b5b01546134a59190614fe2565b87106135215760cb54600360d46002600581106134c5576134c4615139565b5b01546134d19190614fe2565b6134db9190614fe2565b925060d96002600581106134f2576134f1615139565b5b0154915060cb5460d460026005811061350e5761350d615139565b5b015461351a9190614fe2565b905061365f565b60cb5460d460016005811061353957613538615139565b5b01546135459190614fe2565b87106135c15760cb54600360d460016005811061356557613564615139565b5b01546135719190614fe2565b61357b9190614fe2565b925060d960016005811061359257613591615139565b5b0154915060cb5460d46001600581106135ae576135ad615139565b5b01546135ba9190614fe2565b905061365e565b60cb5460d46000600581106135d9576135d8615139565b5b01546135e59190614fe2565b871061365d5760cb54600360d460006005811061360557613604615139565b5b01546136119190614fe2565b61361b9190614fe2565b925060d960006005811061363257613631615139565b5b0154915060cb5460d460006005811061364e5761364d615139565b5b015461365a9190614fe2565b90505b5b5b5b5b8282829550955095505050509193909250565b600060e160008373ffffffffffffffffffffffffffffffffffffffff1673ffffffffffffffffffffffffffffffffffffffff168152602001908152602001600020600060d054815260200190815260200160002090508060080160009054906101000a900460ff16613712576040517f0aa59f6e00000000000000000000000000000000000000000000000000000000815260040160405180910390fd5b600073ffffffffffffffffffffffffffffffffffffffff168160090160009054906101000a900473ffffffffffffffffffffffffffffffffffffffff1673ffffffffffffffffffffffffffffffffffffffff16141580156137c45750600073ffffffffffffffffffffffffffffffffffffffff1681600a0160009054906101000a900473ffffffffffffffffffffffffffffffffffffffff1673ffffffffffffffffffffffffffffffffffffffff1614155b156137fb576040517f9df1595200000000000000000000000000000000000000000000000000000000815260040160405180910390fd5b5050565b600060e160008473ffffffffffffffffffffffffffffffffffffffff1673ffffffffffffffffffffffffffffffffffffffff168152602001908152602001600020600060d0548152602001908152602001600020905081156138ea57600073ffffffffffffffffffffffffffffffffffffffff168160090160009054906101000a900473ffffffffffffffffffffffffffffffffffffffff1673ffffffffffffffffffffffffffffffffffffffff16146138e5576040517f66dc1e6000000000000000000000000000000000000000000000000000000000815260040160405180910390fd5b613975565b600073ffffffffffffffffffffffffffffffffffffffff1681600a0160009054906101000a900473ffffffffffffffffffffffffffffffffffffffff1673ffffffffffffffffffffffffffffffffffffffff1614613974576040517f66dc1e6000000000000000000000000000000000000000000000000000000000815260040160405180910390fd5b5b505050565b60008060e160008473ffffffffffffffffffffffffffffffffffffffff1673ffffffffffffffffffffffffffffffffffffffff168152602001908152602001600020600060d05481526020019081526020016000209050600083905060005b600073ffffffffffffffffffffffffffffffffffffffff168360080160019054906101000a900473ffffffffffffffffffffffffffffffffffffffff1673ffffffffffffffffffffffffffffffffffffffff1614158015613a3a5750600a81105b156140a657600060e160008560080160019054906101000a900473ffffffffffffffffffffffffffffffffffffffff1673ffffffffffffffffffffffffffffffffffffffff1673ffffffffffffffffffffffffffffffffffffffff168152602001908152602001600020600060d0548152602001908152602001600020905060e1600082600a0160009054906101000a900473ffffffffffffffffffffffffffffffffffffffff1673ffffffffffffffffffffffffffffffffffffffff1673ffffffffffffffffffffffffffffffffffffffff168152602001908152602001600020600060d05481526020019081526020016000206005015460e160008360090160009054906101000a900473ffffffffffffffffffffffffffffffffffffffff1673ffffffffffffffffffffffffffffffffffffffff1673ffffffffffffffffffffffffffffffffffffffff168152602001908152602001600020600060d0548152602001908152602001600020600501548260040154613bbc9190614edf565b613bc69190614edf565b81600501819055508060090160009054906101000a900473ffffffffffffffffffffffffffffffffffffffff1673ffffffffffffffffffffffffffffffffffffffff168373ffffffffffffffffffffffffffffffffffffffff161415613e3b57600073ffffffffffffffffffffffffffffffffffffffff1681600a0160009054906101000a900473ffffffffffffffffffffffffffffffffffffffff1673ffffffffffffffffffffffffffffffffffffffff1614613e3657600060e1600083600a0160009054906101000a900473ffffffffffffffffffffffffffffffffffffffff1673ffffffffffffffffffffffffffffffffffffffff1673ffffffffffffffffffffffffffffffffffffffff168152602001908152602001600020600060d05481526020019081526020016000209050806005015485600501541115613db257613d5b8560080160019054906101000a900473ffffffffffffffffffffffffffffffffffffffff1683600a0160009054906101000a900473ffffffffffffffffffffffffffffffffffffffff1686614193565b613dad8560080160019054906101000a900473ffffffffffffffffffffffffffffffffffffffff1683600a0160009054906101000a900473ffffffffffffffffffffffffffffffffffffffff166142e4565b613e34565b613e058560080160019054906101000a900473ffffffffffffffffffffffffffffffffffffffff168584600a0160009054906101000a900473ffffffffffffffffffffffffffffffffffffffff16614193565b613e338560080160019054906101000a900473ffffffffffffffffffffffffffffffffffffffff16856142e4565b5b505b613ff3565b600060e160008360090160009054906101000a900473ffffffffffffffffffffffffffffffffffffffff1673ffffffffffffffffffffffffffffffffffffffff1673ffffffffffffffffffffffffffffffffffffffff168152602001908152602001600020600060d05481526020019081526020016000209050806005015485600501541115613f6f57613f188560080160019054906101000a900473ffffffffffffffffffffffffffffffffffffffff168360090160009054906101000a900473ffffffffffffffffffffffffffffffffffffffff1686614193565b613f6a8560080160019054906101000a900473ffffffffffffffffffffffffffffffffffffffff168360090160009054906101000a900473ffffffffffffffffffffffffffffffffffffffff166142e4565b613ff1565b613fc28560080160019054906101000a900473ffffffffffffffffffffffffffffffffffffffff16858460090160009054906101000a900473ffffffffffffffffffffffffffffffffffffffff16614193565b613ff08560080160019054906101000a900473ffffffffffffffffffffffffffffffffffffffff16856142e4565b5b505b8360080160019054906101000a900473ffffffffffffffffffffffffffffffffffffffff16925060e160008560080160019054906101000a900473ffffffffffffffffffffffffffffffffffffffff1673ffffffffffffffffffffffffffffffffffffffff1673ffffffffffffffffffffffffffffffffffffffff168152602001908152602001600020600060d05481526020019081526020016000209350818061409d90615168565b925050506139d9565b809350505050919050565b600060019054906101000a900460ff16614100576040517f08c379a00000000000000000000000000000000000000000000000000000000081526004016140f790615d57565b60405180910390fd5b81603690805190602001906141169291906143cc565b50806037908051906020019061412d9291906143cc565b505050565b600060019054906101000a900460ff16614181576040517f08c379a000000000000000000000000000000000000000000000000000000000815260040161417890615d57565b60405180910390fd5b61419161418c6120cc565b612967565b565b600060e160008573ffffffffffffffffffffffffffffffffffffffff1673ffffffffffffffffffffffffffffffffffffffff168152602001908152602001600020600060d05481526020019081526020016000209050600060e160008573ffffffffffffffffffffffffffffffffffffffff1673ffffffffffffffffffffffffffffffffffffffff168152602001908152602001600020600060d05481526020019081526020016000209050600060e160008573ffffffffffffffffffffffffffffffffffffffff1673ffffffffffffffffffffffffffffffffffffffff168152602001908152602001600020600060d054815260200190815260200160002090508060070154826007015460c954856006015485600501546142b69190614fe2565b6142c09190615cb4565b6142ca9190614edf565b6142d49190614edf565b8360070181905550505050505050565b600060e160008473ffffffffffffffffffffffffffffffffffffffff1673ffffffffffffffffffffffffffffffffffffffff168152602001908152602001600020600060d05481526020019081526020016000209050600060e160008473ffffffffffffffffffffffffffffffffffffffff1673ffffffffffffffffffffffffffffffffffffffff168152602001908152602001600020600060d05481526020019081526020016000209050816007015460c95460ca5483600301546143aa9190614fe2565b6143b49190615cb4565b6143be9190614edf565b826000018190555050505050565b8280546143d890614da6565b90600052602060002090601f0160209004810192826143fa5760008555614441565b82601f1061441357805160ff1916838001178555614441565b82800160010185558215614441579182015b82811115614440578251825591602001919060010190614425565b5b50905061444e9190614452565b5090565b5b8082111561446b576000816000905550600101614453565b5090565b600081519050919050565b600082825260208201905092915050565b60005b838110156144a957808201518184015260208101905061448e565b838111156144b8576000848401525b50505050565b6000601f19601f8301169050919050565b60006144da8261446f565b6144e4818561447a565b93506144f481856020860161448b565b6144fd816144be565b840191505092915050565b6000602082019050818103600083015261452281846144cf565b905092915050565b6000604051905090565b600080fd5b600080fd5b600073ffffffffffffffffffffffffffffffffffffffff82169050919050565b60006145698261453e565b9050919050565b6145798161455e565b811461458457600080fd5b50565b60008135905061459681614570565b92915050565b6000819050919050565b6145af8161459c565b81146145ba57600080fd5b50565b6000813590506145cc816145a6565b92915050565b600080604083850312156145e9576145e8614534565b5b60006145f785828601614587565b9250506020614608858286016145bd565b9150509250929050565b60008115159050919050565b61462781614612565b82525050565b6000602082019050614642600083018461461e565b92915050565b60006020828403121561465e5761465d614534565b5b600061466c848285016145bd565b91505092915050565b61467e8161459c565b82525050565b60006020820190506146996000830184614675565b92915050565b6000806000606084860312156146b8576146b7614534565b5b60006146c686828701614587565b93505060206146d786828701614587565b92505060406146e8868287016145bd565b9150509250925092565b600060ff82169050919050565b614708816146f2565b82525050565b600060208201905061472360008301846146ff565b92915050565b60006020828403121561473f5761473e614534565b5b600061474d84828501614587565b91505092915050565b600060408201905061476b6000830185614675565b6147786020830184614675565b9392505050565b61478881614612565b811461479357600080fd5b50565b6000813590506147a58161477f565b92915050565b6000806000606084860312156147c4576147c3614534565b5b60006147d286828701614587565b93505060206147e386828701614796565b92505060406147f4868287016145bd565b9150509250925092565b6148078161455e565b82525050565b600060208201905061482260008301846147fe565b92915050565b600080fd5b7f4e487b7100000000000000000000000000000000000000000000000000000000600052604160045260246000fd5b614865826144be565b810181811067ffffffffffffffff821117156148845761488361482d565b5b80604052505050565b600061489761452a565b90506148a3828261485c565b919050565b600067ffffffffffffffff8211156148c3576148c261482d565b5b602082029050602081019050919050565b600080fd5b600080fd5b6000604082840312156148f4576148f36148d9565b5b6148fe604061488d565b9050600061490e84828501614587565b6000830152506020614922848285016145bd565b60208301525092915050565b600061494161493c846148a8565b61488d565b90508083825260208201905060408402830185811115614964576149636148d4565b5b835b8181101561498d578061497988826148de565b845260208401935050604081019050614966565b5050509392505050565b600082601f8301126149ac576149ab614828565b5b81356149bc84826020860161492e565b91505092915050565b6000602082840312156149db576149da614534565b5b600082013567ffffffffffffffff8111156149f9576149f8614539565b5b614a0584828501614997565b91505092915050565b6000819050919050565b6000614a33614a2e614a298461453e565b614a0e565b61453e565b9050919050565b6000614a4582614a18565b9050919050565b6000614a5782614a3a565b9050919050565b614a6781614a4c565b82525050565b6000602082019050614a826000830184614a5e565b92915050565b600080600060608486031215614aa157614aa0614534565b5b6000614aaf868287016145bd565b9350506020614ac0868287016145bd565b9250506040614ad1868287016145bd565b9150509250925092565b600067ffffffffffffffff821115614af657614af561482d565b5b602082029050602081019050919050565b6000614b1a614b1584614adb565b61488d565b90508083825260208201905060208402830185811115614b3d57614b3c6148d4565b5b835b81811015614b665780614b5288826145bd565b845260208401935050602081019050614b3f565b5050509392505050565b600082601f830112614b8557614b84614828565b5b8135614b95848260208601614b07565b91505092915050565b60008060408385031215614bb557614bb4614534565b5b600083013567ffffffffffffffff811115614bd357614bd2614539565b5b614bdf85828601614b70565b925050602083013567ffffffffffffffff811115614c0057614bff614539565b5b614c0c85828601614b70565b9150509250929050565b60008060408385031215614c2d57614c2c614534565b5b6000614c3b85828601614587565b9250506020614c4c85828601614587565b9150509250929050565b600061018082019050614c6c600083018f614675565b614c79602083018e614675565b614c86604083018d614675565b614c93606083018c614675565b614ca0608083018b614675565b614cad60a083018a614675565b614cba60c0830189614675565b614cc760e0830188614675565b614cd561010083018761461e565b614ce36101208301866147fe565b614cf16101408301856147fe565b614cff6101608301846147fe565b9d9c50505050505050505050505050565b60008060008060808587031215614d2a57614d29614534565b5b6000614d3887828801614587565b9450506020614d4987828801614587565b9350506040614d5a87828801614587565b9250506060614d6b87828801614587565b91505092959194509250565b7f4e487b7100000000000000000000000000000000000000000000000000000000600052602260045260246000fd5b60006002820490506001821680614dbe57607f821691505b60208210811415614dd257614dd1614d77565b5b50919050565b7f6e6f742d6f70657261746f720000000000000000000000000000000000000000600082015250565b6000614e0e600c8361447a565b9150614e1982614dd8565b602082019050919050565b60006020820190508181036000830152614e3d81614e01565b9050919050565b7f7a65726f20616464726573730000000000000000000000000000000000000000600082015250565b6000614e7a600c8361447a565b9150614e8582614e44565b602082019050919050565b60006020820190508181036000830152614ea981614e6d565b9050919050565b7f4e487b7100000000000000000000000000000000000000000000000000000000600052601160045260246000fd5b6000614eea8261459c565b9150614ef58361459c565b9250827fffffffffffffffffffffffffffffffffffffffffffffffffffffffffffffffff03821115614f2a57614f29614eb0565b5b828201905092915050565b600081519050614f44816145a6565b92915050565b600060208284031215614f6057614f5f614534565b5b6000614f6e84828501614f35565b91505092915050565b6000604082019050614f8c60008301856147fe565b614f996020830184614675565b9392505050565b600081519050614faf8161477f565b92915050565b600060208284031215614fcb57614fca614534565b5b6000614fd984828501614fa0565b91505092915050565b6000614fed8261459c565b9150614ff88361459c565b9250817fffffffffffffffffffffffffffffffffffffffffffffffffffffffffffffffff048311821515161561503157615030614eb0565b5b828202905092915050565b600060608201905061505160008301866147fe565b61505e60208301856147fe565b61506b6040830184614675565b949350505050565b600061507e8261459c565b91506150898361459c565b92508282101561509c5761509b614eb0565b5b828203905092915050565b7f4d61696e2057616c6c6574207472616e7366657220616d6f756e74206578636560008201527f65647320616c6c6f77616e636500000000000000000000000000000000000000602082015250565b6000615103602d8361447a565b915061510e826150a7565b604082019050919050565b60006020820190508181036000830152615132816150f6565b9050919050565b7f4e487b7100000000000000000000000000000000000000000000000000000000600052603260045260246000fd5b60006151738261459c565b91507fffffffffffffffffffffffffffffffffffffffffffffffffffffffffffffffff8214156151a6576151a5614eb0565b5b600182019050919050565b7f45524332303a2064656372656173656420616c6c6f77616e63652062656c6f7760008201527f207a65726f000000000000000000000000000000000000000000000000000000602082015250565b600061520d60258361447a565b9150615218826151b1565b604082019050919050565b6000602082019050818103600083015261523c81615200565b9050919050565b7f43616e6e6f74206265207a65726f206164647265737300000000000000000000600082015250565b600061527960168361447a565b915061528482615243565b602082019050919050565b600060208201905081810360008301526152a88161526c565b9050919050565b7f696e76616c69642074696d650000000000000000000000000000000000000000600082015250565b60006152e5600c8361447a565b91506152f0826152af565b602082019050919050565b60006020820190508181036000830152615314816152d8565b9050919050565b7f696e76616c69642072617465206275792049434f206279205553445400000000600082015250565b6000615351601c8361447a565b915061535c8261531b565b602082019050919050565b6000602082019050818103600083015261538081615344565b9050919050565b7f49434f206d75737420656e640000000000000000000000000000000000000000600082015250565b60006153bd600c8361447a565b91506153c882615387565b602082019050919050565b600060208201905081810360008301526153ec816153b0565b9050919050565b7f50657263656e74206d757374206265206265747765656e203120616e6420313060008201527f3000000000000000000000000000000000000000000000000000000000000000602082015250565b600061544f60218361447a565b915061545a826153f3565b604082019050919050565b6000602082019050818103600083015261547e81615442565b9050919050565b7f4f776e61626c653a206e6577206f776e657220697320746865207a65726f206160008201527f6464726573730000000000000000000000000000000000000000000000000000602082015250565b60006154e160268361447a565b91506154ec82615485565b604082019050919050565b60006020820190508181036000830152615510816154d4565b9050919050565b7f496e697469616c697a61626c653a20636f6e747261637420697320616c72656160008201527f647920696e697469616c697a6564000000000000000000000000000000000000602082015250565b6000615573602e8361447a565b915061557e82615517565b604082019050919050565b600060208201905081810360008301526155a281615566565b9050919050565b7f696e76616c69642d555344540000000000000000000000000000000000000000600082015250565b60006155df600c8361447a565b91506155ea826155a9565b602082019050919050565b6000602082019050818103600083015261560e816155d2565b9050919050565b6000819050919050565b600061563a61563561563084615615565b614a0e565b6146f2565b9050919050565b61564a8161561f565b82525050565b60006020820190506156656000830184615641565b92915050565b7f45524332303a20617070726f76652066726f6d20746865207a65726f2061646460008201527f7265737300000000000000000000000000000000000000000000000000000000602082015250565b60006156c760248361447a565b91506156d28261566b565b604082019050919050565b600060208201905081810360008301526156f6816156ba565b9050919050565b7f45524332303a20617070726f766520746f20746865207a65726f20616464726560008201527f7373000000000000000000000000000000000000000000000000000000000000602082015250565b600061575960228361447a565b9150615764826156fd565b604082019050919050565b600060208201905081810360008301526157888161574c565b9050919050565b7f45524332303a20696e73756666696369656e7420616c6c6f77616e6365000000600082015250565b60006157c5601d8361447a565b91506157d08261578f565b602082019050919050565b600060208201905081810360008301526157f4816157b8565b9050919050565b7f45524332303a207472616e736665722066726f6d20746865207a65726f20616460008201527f6472657373000000000000000000000000000000000000000000000000000000602082015250565b600061585760258361447a565b9150615862826157fb565b604082019050919050565b600060208201905081810360008301526158868161584a565b9050919050565b7f45524332303a207472616e7366657220746f20746865207a65726f206164647260008201527f6573730000000000000000000000000000000000000000000000000000000000602082015250565b60006158e960238361447a565b91506158f48261588d565b604082019050919050565b60006020820190508181036000830152615918816158dc565b9050919050565b7f45524332303a207472616e7366657220616d6f756e742065786365656473206260008201527f616c616e63650000000000000000000000000000000000000000000000000000602082015250565b600061597b60268361447a565b91506159868261591f565b604082019050919050565b600060208201905081810360008301526159aa8161596e565b9050919050565b7f4f776e61626c653a2063616c6c6572206973206e6f7420746865206f776e6572600082015250565b60006159e760208361447a565b91506159f2826159b1565b602082019050919050565b60006020820190508181036000830152615a16816159da565b9050919050565b7f45524332303a206d696e7420746f20746865207a65726f206164647265737300600082015250565b6000615a53601f8361447a565b9150615a5e82615a1d565b602082019050919050565b60006020820190508181036000830152615a8281615a46565b9050919050565b7f45524332303a206275726e2066726f6d20746865207a65726f2061646472657360008201527f7300000000000000000000000000000000000000000000000000000000000000602082015250565b6000615ae560218361447a565b9150615af082615a89565b604082019050919050565b60006020820190508181036000830152615b1481615ad8565b9050919050565b7f45524332303a206275726e20616d6f756e7420657863656564732062616c616e60008201527f6365000000000000000000000000000000000000000000000000000000000000602082015250565b6000615b7760228361447a565b9150615b8282615b1b565b604082019050919050565b60006020820190508181036000830152615ba681615b6a565b9050919050565b7f49434f2074696d6520646f6573206e6f74207374617274206e6f770000000000600082015250565b6000615be3601b8361447a565b9150615bee82615bad565b602082019050919050565b60006020820190508181036000830152615c1281615bd6565b9050919050565b7f49434f2074696d65206973206578706972656400000000000000000000000000600082015250565b6000615c4f60138361447a565b9150615c5a82615c19565b602082019050919050565b60006020820190508181036000830152615c7e81615c42565b9050919050565b7f4e487b7100000000000000000000000000000000000000000000000000000000600052601260045260246000fd5b6000615cbf8261459c565b9150615cca8361459c565b925082615cda57615cd9615c85565b5b828204905092915050565b7f496e697469616c697a61626c653a20636f6e7472616374206973206e6f74206960008201527f6e697469616c697a696e67000000000000000000000000000000000000000000602082015250565b6000615d41602b8361447a565b9150615d4c82615ce5565b604082019050919050565b60006020820190508181036000830152615d7081615d34565b9050919050565b7f626c61636b6c6973742075736572000000000000000000000000000000000000600082015250565b6000615dad600e8361447a565b9150615db882615d77565b602082019050919050565b60006020820190508181036000830152615ddc81615da0565b905091905056fea2646970667358221220e6e44a890d8fd3e7c4fb41c08a8527598e5e380eb18f52926345e5306b33aa8d64736f6c634300080a0033",
  "linkReferences": {},
  "deployedLinkReferences": {}
}