{
  "_format": "hh-sol-artifact-1",
  "contractName": "SomeFi",
  "sourceName": "contracts/SomeFi.sol",
  "abi": [
    {
      "inputs": [],
      "name": "InvalidReferrerAddress",
      "type": "error"
    },
    {
      "inputs": [],
      "name": "ReferrerHasFull",
      "type": "error"
    },
    {
      "inputs": [],
      "name": "ReferrerHasFullThisBranch",
      "type": "error"
    },
    {
      "anonymous": false,
      "inputs": [
        {
          "indexed": true,
          "internalType": "address",
          "name": "owner",
          "type": "address"
        },
        {
          "indexed": true,
          "internalType": "address",
          "name": "spender",
          "type": "address"
        },
        {
          "indexed": false,
          "internalType": "uint256",
          "name": "value",
          "type": "uint256"
        }
      ],
      "name": "Approval",
      "type": "event"
    },
    {
      "anonymous": false,
      "inputs": [
        {
          "indexed": false,
          "internalType": "uint8",
          "name": "version",
          "type": "uint8"
        }
      ],
      "name": "Initialized",
      "type": "event"
    },
    {
      "anonymous": false,
      "inputs": [
        {
          "indexed": true,
          "internalType": "address",
          "name": "previousOwner",
          "type": "address"
        },
        {
          "indexed": true,
          "internalType": "address",
          "name": "newOwner",
          "type": "address"
        }
      ],
      "name": "OwnershipTransferred",
      "type": "event"
    },
    {
      "anonymous": false,
      "inputs": [
        {
          "indexed": true,
          "internalType": "address",
          "name": "from",
          "type": "address"
        },
        {
          "indexed": true,
          "internalType": "address",
          "name": "to",
          "type": "address"
        },
        {
          "indexed": false,
          "internalType": "uint256",
          "name": "value",
          "type": "uint256"
        }
      ],
      "name": "Transfer",
      "type": "event"
    },
    {
      "anonymous": false,
      "inputs": [
        {
          "indexed": false,
          "internalType": "address",
          "name": "buyer",
          "type": "address"
        },
        {
          "indexed": false,
          "internalType": "uint256",
          "name": "amount",
          "type": "uint256"
        }
      ],
      "name": "buyIco",
      "type": "event"
    },
    {
      "inputs": [
        {
          "internalType": "address",
          "name": "_address",
          "type": "address"
        }
      ],
      "name": "addAddressToBlacklist",
      "outputs": [],
      "stateMutability": "nonpayable",
      "type": "function"
    },
    {
      "inputs": [
        {
          "internalType": "address",
          "name": "owner",
          "type": "address"
        },
        {
          "internalType": "address",
          "name": "spender",
          "type": "address"
        }
      ],
      "name": "allowance",
      "outputs": [
        {
          "internalType": "uint256",
          "name": "",
          "type": "uint256"
        }
      ],
      "stateMutability": "view",
      "type": "function"
    },
    {
      "inputs": [
        {
          "internalType": "address",
          "name": "spender",
          "type": "address"
        },
        {
          "internalType": "uint256",
          "name": "amount",
          "type": "uint256"
        }
      ],
      "name": "approve",
      "outputs": [
        {
          "internalType": "bool",
          "name": "",
          "type": "bool"
        }
      ],
      "stateMutability": "nonpayable",
      "type": "function"
    },
    {
      "inputs": [
        {
          "internalType": "address",
          "name": "account",
          "type": "address"
        }
      ],
      "name": "balanceOf",
      "outputs": [
        {
          "internalType": "uint256",
          "name": "",
          "type": "uint256"
        }
      ],
      "stateMutability": "view",
      "type": "function"
    },
    {
      "inputs": [
        {
          "internalType": "address",
          "name": "",
          "type": "address"
        }
      ],
      "name": "blacklist",
      "outputs": [
        {
          "internalType": "bool",
          "name": "",
          "type": "bool"
        }
      ],
      "stateMutability": "view",
      "type": "function"
    },
    {
      "inputs": [
        {
          "internalType": "uint256",
          "name": "amount",
          "type": "uint256"
        }
      ],
      "name": "burn",
      "outputs": [],
      "stateMutability": "nonpayable",
      "type": "function"
    },
    {
      "inputs": [
        {
          "internalType": "address",
          "name": "account",
          "type": "address"
        },
        {
          "internalType": "uint256",
          "name": "amount",
          "type": "uint256"
        }
      ],
      "name": "burnFrom",
      "outputs": [],
      "stateMutability": "nonpayable",
      "type": "function"
    },
    {
      "inputs": [
        {
          "internalType": "address",
          "name": "ref",
          "type": "address"
        },
        {
          "internalType": "bool",
          "name": "isLeft",
          "type": "bool"
        },
        {
          "internalType": "uint256",
          "name": "amount",
          "type": "uint256"
        }
      ],
      "name": "buyICOByUSDT",
      "outputs": [],
      "stateMutability": "nonpayable",
      "type": "function"
    },
    {
      "inputs": [
        {
          "internalType": "uint256",
          "name": "round",
          "type": "uint256"
        }
      ],
      "name": "claimCommission",
      "outputs": [],
      "stateMutability": "nonpayable",
      "type": "function"
    },
    {
      "inputs": [],
      "name": "claimUSDT",
      "outputs": [],
      "stateMutability": "nonpayable",
      "type": "function"
    },
    {
      "inputs": [],
      "name": "closeIco",
      "outputs": [],
      "stateMutability": "nonpayable",
      "type": "function"
    },
    {
      "inputs": [],
      "name": "decimals",
      "outputs": [
        {
          "internalType": "uint8",
          "name": "",
          "type": "uint8"
        }
      ],
      "stateMutability": "view",
      "type": "function"
    },
    {
      "inputs": [
        {
          "internalType": "address",
          "name": "spender",
          "type": "address"
        },
        {
          "internalType": "uint256",
          "name": "subtractedValue",
          "type": "uint256"
        }
      ],
      "name": "decreaseAllowance",
      "outputs": [
        {
          "internalType": "bool",
          "name": "",
          "type": "bool"
        }
      ],
      "stateMutability": "nonpayable",
      "type": "function"
    },
    {
      "inputs": [],
      "name": "etherValue",
      "outputs": [
        {
          "internalType": "uint256",
          "name": "",
          "type": "uint256"
        }
      ],
      "stateMutability": "view",
      "type": "function"
    },
    {
      "inputs": [
        {
          "internalType": "uint256",
          "name": "_roundId",
          "type": "uint256"
        }
      ],
      "name": "getListUserByRoundId",
      "outputs": [
        {
          "internalType": "address[]",
          "name": "",
          "type": "address[]"
        }
      ],
      "stateMutability": "view",
      "type": "function"
    },
    {
      "inputs": [
        {
          "internalType": "uint256",
          "name": "_roundId",
          "type": "uint256"
        }
      ],
      "name": "getSoldbyRound",
      "outputs": [
        {
          "internalType": "uint256",
          "name": "",
          "type": "uint256"
        }
      ],
      "stateMutability": "view",
      "type": "function"
    },
    {
      "inputs": [],
      "name": "icoHasEnded",
      "outputs": [
        {
          "internalType": "bool",
          "name": "",
          "type": "bool"
        }
      ],
      "stateMutability": "view",
      "type": "function"
    },
    {
      "inputs": [
        {
          "internalType": "address",
          "name": "spender",
          "type": "address"
        },
        {
          "internalType": "uint256",
          "name": "addedValue",
          "type": "uint256"
        }
      ],
      "name": "increaseAllowance",
      "outputs": [
        {
          "internalType": "bool",
          "name": "",
          "type": "bool"
        }
      ],
      "stateMutability": "nonpayable",
      "type": "function"
    },
    {
      "inputs": [
        {
          "internalType": "address",
          "name": "_usdtContractAddress",
          "type": "address"
        },
        {
          "internalType": "address",
          "name": "_operatorAddress",
          "type": "address"
        },
        {
          "internalType": "address",
          "name": "_walletBackup",
          "type": "address"
        },
        {
          "internalType": "address",
          "name": "_walletMain",
          "type": "address"
        }
      ],
      "name": "initialize",
      "outputs": [],
      "stateMutability": "nonpayable",
      "type": "function"
    },
    {
      "inputs": [
        {
          "internalType": "address",
          "name": "to",
          "type": "address"
        },
        {
          "internalType": "uint256",
          "name": "amount",
          "type": "uint256"
        }
      ],
      "name": "mint",
      "outputs": [],
      "stateMutability": "nonpayable",
      "type": "function"
    },
    {
      "inputs": [],
      "name": "name",
      "outputs": [
        {
          "internalType": "string",
          "name": "",
          "type": "string"
        }
      ],
      "stateMutability": "view",
      "type": "function"
    },
    {
      "inputs": [],
      "name": "owner",
      "outputs": [
        {
          "internalType": "address",
          "name": "",
          "type": "address"
        }
      ],
      "stateMutability": "view",
      "type": "function"
    },
    {
      "inputs": [
        {
          "internalType": "uint256",
          "name": "",
          "type": "uint256"
        }
      ],
      "name": "pkgAmount",
      "outputs": [
        {
          "internalType": "uint256",
          "name": "",
          "type": "uint256"
        }
      ],
      "stateMutability": "view",
      "type": "function"
    },
    {
      "inputs": [
        {
          "internalType": "uint256",
          "name": "",
          "type": "uint256"
        }
      ],
      "name": "pkgRate",
      "outputs": [
        {
          "internalType": "uint256",
          "name": "",
          "type": "uint256"
        }
      ],
      "stateMutability": "view",
      "type": "function"
    },
    {
      "inputs": [],
      "name": "ratePerUSDT",
      "outputs": [
        {
          "internalType": "uint256",
          "name": "",
          "type": "uint256"
        }
      ],
      "stateMutability": "view",
      "type": "function"
    },
    {
      "inputs": [
        {
          "internalType": "address",
          "name": "",
          "type": "address"
        },
        {
          "internalType": "uint256",
          "name": "",
          "type": "uint256"
        }
      ],
      "name": "refInfo",
      "outputs": [
        {
          "internalType": "uint256",
          "name": "profit",
          "type": "uint256"
        },
        {
          "internalType": "uint256",
          "name": "maxProfit",
          "type": "uint256"
        },
        {
          "internalType": "uint256",
          "name": "profitClaimed",
          "type": "uint256"
        },
        {
          "internalType": "uint256",
          "name": "currentPackageSize",
          "type": "uint256"
        },
        {
          "internalType": "uint256",
          "name": "totalPackageSize",
          "type": "uint256"
        },
        {
          "internalType": "uint256",
          "name": "branchInvestment",
          "type": "uint256"
        },
        {
          "internalType": "uint256",
          "name": "commissionPercentage",
          "type": "uint256"
        },
        {
          "internalType": "uint256",
          "name": "totalCommissionProfit",
          "type": "uint256"
        },
        {
          "internalType": "bool",
          "name": "isCanBeRef",
          "type": "bool"
        },
        {
          "internalType": "address",
          "name": "ref",
          "type": "address"
        },
        {
          "internalType": "address",
          "name": "left",
          "type": "address"
        },
        {
          "internalType": "address",
          "name": "right",
          "type": "address"
        }
      ],
      "stateMutability": "view",
      "type": "function"
    },
    {
      "inputs": [
        {
          "internalType": "address",
          "name": "_address",
          "type": "address"
        }
      ],
      "name": "removeAddressFromBlacklist",
      "outputs": [],
      "stateMutability": "nonpayable",
      "type": "function"
    },
    {
      "inputs": [],
      "name": "renounceOwnership",
      "outputs": [],
      "stateMutability": "nonpayable",
      "type": "function"
    },
    {
      "inputs": [],
      "name": "roundId",
      "outputs": [
        {
          "internalType": "uint256",
          "name": "",
          "type": "uint256"
        }
      ],
      "stateMutability": "view",
      "type": "function"
    },
    {
      "inputs": [
        {
          "internalType": "uint256",
          "name": "_percent",
          "type": "uint256"
        }
      ],
      "name": "setDirectCommissionPercentage",
      "outputs": [],
      "stateMutability": "nonpayable",
      "type": "function"
    },
    {
      "inputs": [
        {
          "internalType": "address",
          "name": "_operatorAddress",
          "type": "address"
        }
      ],
      "name": "setOperator",
      "outputs": [],
      "stateMutability": "nonpayable",
      "type": "function"
    },
    {
      "inputs": [
        {
          "internalType": "uint256[]",
          "name": "_pkgAmount",
          "type": "uint256[]"
        },
        {
          "internalType": "uint256[]",
          "name": "_pkgRate",
          "type": "uint256[]"
        }
      ],
      "name": "setPkgRate",
      "outputs": [],
      "stateMutability": "nonpayable",
      "type": "function"
    },
    {
      "inputs": [
        {
          "internalType": "uint256",
          "name": "_startTimeICO",
          "type": "uint256"
        },
        {
          "internalType": "uint256",
          "name": "_totalAmount",
          "type": "uint256"
        },
        {
          "internalType": "uint256",
          "name": "_totalAmountPerUSDT",
          "type": "uint256"
        }
      ],
      "name": "setRoundInfo",
      "outputs": [],
      "stateMutability": "nonpayable",
      "type": "function"
    },
    {
      "inputs": [],
      "name": "startTimeICO",
      "outputs": [
        {
          "internalType": "uint256",
          "name": "",
          "type": "uint256"
        }
      ],
      "stateMutability": "view",
      "type": "function"
    },
    {
      "inputs": [],
      "name": "symbol",
      "outputs": [
        {
          "internalType": "string",
          "name": "",
          "type": "string"
        }
      ],
      "stateMutability": "view",
      "type": "function"
    },
    {
      "inputs": [],
      "name": "tokenUSDT",
      "outputs": [
        {
          "internalType": "contract IERC20Upgradeable",
          "name": "",
          "type": "address"
        }
      ],
      "stateMutability": "view",
      "type": "function"
    },
    {
      "inputs": [],
      "name": "totalAmount",
      "outputs": [
        {
          "internalType": "uint256",
          "name": "",
          "type": "uint256"
        }
      ],
      "stateMutability": "view",
      "type": "function"
    },
    {
      "inputs": [],
      "name": "totalSupply",
      "outputs": [
        {
          "internalType": "uint256",
          "name": "",
          "type": "uint256"
        }
      ],
      "stateMutability": "view",
      "type": "function"
    },
    {
      "inputs": [
        {
          "internalType": "address",
          "name": "to",
          "type": "address"
        },
        {
          "internalType": "uint256",
          "name": "amount",
          "type": "uint256"
        }
      ],
      "name": "transfer",
      "outputs": [
        {
          "internalType": "bool",
          "name": "",
          "type": "bool"
        }
      ],
      "stateMutability": "nonpayable",
      "type": "function"
    },
    {
      "inputs": [
        {
          "internalType": "address",
          "name": "from",
          "type": "address"
        },
        {
          "internalType": "address",
          "name": "to",
          "type": "address"
        },
        {
          "internalType": "uint256",
          "name": "amount",
          "type": "uint256"
        }
      ],
      "name": "transferFrom",
      "outputs": [
        {
          "internalType": "bool",
          "name": "",
          "type": "bool"
        }
      ],
      "stateMutability": "nonpayable",
      "type": "function"
    },
    {
      "inputs": [
        {
          "internalType": "address",
          "name": "newOwner",
          "type": "address"
        }
      ],
      "name": "transferOwnership",
      "outputs": [],
      "stateMutability": "nonpayable",
      "type": "function"
    }
  ],
  "bytecode": "0x608060405234801561001057600080fd5b50615e5080620000216000396000f3fe608060405234801561001057600080fd5b50600436106102535760003560e01c80638eca493a11610146578063c6cc51d3116100c3578063dd62ed3e11610087578063dd62ed3e146106d6578063ebfd3e0414610706578063f2c816ae14610741578063f2fde38b1461075d578063f8c8765e14610779578063f9f92be41461079557610253565b8063c6cc51d314610646578063d2e90d0f14610662578063d3abfc0614610680578063d49802571461069e578063d8ef5f5f146106ba57610253565b8063a457c2d71161010a578063a457c2d71461056a578063a9059cbb1461059a578063ab3ebabe146105ca578063afd768ac146105fa578063b3ab15fb1461062a57610253565b80638eca493a146104d657806395d89b41146104f257806399c5c8aa146105105780639c111aa41461052e5780639fac9abf1461054c57610253565b806342966c68116101d45780637564ac38116101985780637564ac381461045857806379cc6790146104625780637cf55ca51461047e5780638cd221c91461049a5780638da5cb5b146104b857610253565b806342966c68146103c857806348546971146103e4578063663c166e146103ee57806370a082311461041e578063715018a61461044e57610253565b806323b872dd1161021b57806323b872dd14610312578063313ce5671461034257806335e82f3a14610360578063395093511461037c57806340c10f19146103ac57610253565b806306fdde0314610258578063095ea7b31461027657806314fd0c0a146102a657806318160ddd146102d65780631a39d8ef146102f4575b600080fd5b6102606107c5565b60405161026d91906145e9565b60405180910390f35b610290600480360381019061028b91906146b3565b610857565b60405161029d919061470e565b60405180910390f35b6102c060048036038101906102bb9190614729565b61087a565b6040516102cd9190614765565b60405180910390f35b6102de610895565b6040516102eb9190614765565b60405180910390f35b6102fc61089f565b6040516103099190614765565b60405180910390f35b61032c60048036038101906103279190614780565b6108a5565b604051610339919061470e565b60405180910390f35b61034a6108d4565b60405161035791906147ef565b60405180910390f35b61037a6004803603810190610375919061480a565b6108dd565b005b610396600480360381019061039191906146b3565b610a2b565b6040516103a3919061470e565b60405180910390f35b6103c660048036038101906103c191906146b3565b610a62565b005b6103e260048036038101906103dd9190614729565b610a78565b005b6103ec610a8c565b005b61040860048036038101906104039190614729565b610b35565b6040516104159190614765565b60405180910390f35b6104386004803603810190610433919061480a565b610b52565b6040516104459190614765565b60405180910390f35b610456610b9b565b005b610460610baf565b005b61047c600480360381019061047791906146b3565b610cfb565b005b61049860048036038101906104939190614863565b610d1b565b005b6104a2610ebb565b6040516104af9190614765565b60405180910390f35b6104c0610ec1565b6040516104cd91906148c5565b60405180910390f35b6104f060048036038101906104eb9190614729565b610eeb565b005b6104fa611171565b60405161050791906145e9565b60405180910390f35b610518611203565b604051610525919061493f565b60405180910390f35b610536611229565b6040516105439190614765565b60405180910390f35b61055461122f565b604051610561919061470e565b60405180910390f35b610584600480360381019061057f91906146b3565b611242565b604051610591919061470e565b60405180910390f35b6105b460048036038101906105af91906146b3565b6112b9565b6040516105c1919061470e565b60405180910390f35b6105e460048036038101906105df9190614729565b6112dc565b6040516105f19190614a18565b60405180910390f35b610614600480360381019061060f9190614729565b61137d565b6040516106219190614765565b60405180910390f35b610644600480360381019061063f919061480a565b611398565b005b610660600480360381019061065b9190614a3a565b61146b565b005b61066a61161a565b6040516106779190614765565b60405180910390f35b610688611620565b6040516106959190614765565b60405180910390f35b6106b860048036038101906106b39190614729565b611626565b005b6106d460048036038101906106cf9190614bd5565b611719565b005b6106f060048036038101906106eb9190614c4d565b611939565b6040516106fd9190614765565b60405180910390f35b610720600480360381019061071b91906146b3565b6119c0565b6040516107389c9b9a99989796959493929190614c8d565b60405180910390f35b61075b6004803603810190610756919061480a565b611a9a565b005b6107776004803603810190610772919061480a565b611bf1565b005b610793600480360381019061078e9190614d47565b611c75565b005b6107af60048036038101906107aa919061480a565b612007565b6040516107bc919061470e565b60405180910390f35b6060603680546107d490614ddd565b80601f016020809104026020016040519081016040528092919081815260200182805461080090614ddd565b801561084d5780601f106108225761010080835404028352916020019161084d565b820191906000526020600020905b81548152906001019060200180831161083057829003601f168201915b5050505050905090565b600080610862612027565b905061086f81858561202f565b600191505092915050565b60d9816005811061088a57600080fd5b016000915090505481565b6000603554905090565b60d15481565b6000806108b0612027565b90506108bd8582856121fa565b6108c8858585612286565b60019150509392505050565b60006012905090565b60e360003373ffffffffffffffffffffffffffffffffffffffff1673ffffffffffffffffffffffffffffffffffffffff16815260200190815260200160002060009054906101000a900460ff16610969576040517f08c379a000000000000000000000000000000000000000000000000000000000815260040161096090614e5b565b60405180910390fd5b600073ffffffffffffffffffffffffffffffffffffffff168173ffffffffffffffffffffffffffffffffffffffff1614156109d9576040517f08c379a00000000000000000000000000000000000000000000000000000000081526004016109d090614ec7565b60405180910390fd5b60e460008273ffffffffffffffffffffffffffffffffffffffff1673ffffffffffffffffffffffffffffffffffffffff16815260200190815260200160002060006101000a81549060ff021916905550565b600080610a36612027565b9050610a57818585610a488589611939565b610a529190614f16565b61202f565b600191505092915050565b610a6a61250a565b610a748282612588565b5050565b610a89610a83612027565b826126e9565b50565b60e360003373ffffffffffffffffffffffffffffffffffffffff1673ffffffffffffffffffffffffffffffffffffffff16815260200190815260200160002060009054906101000a900460ff16610b18576040517f08c379a0000000000000000000000000000000000000000000000000000000008152600401610b0f90614e5b565b60405180910390fd5b600160de60006101000a81548160ff021916908315150217905550565b600060df6000838152602001908152602001600020549050919050565b6000603360008373ffffffffffffffffffffffffffffffffffffffff1673ffffffffffffffffffffffffffffffffffffffff168152602001908152602001600020549050919050565b610ba361250a565b610bad60006128c2565b565b610bb761250a565b600060cc60009054906101000a900473ffffffffffffffffffffffffffffffffffffffff1673ffffffffffffffffffffffffffffffffffffffff166370a08231306040518263ffffffff1660e01b8152600401610c1491906148c5565b602060405180830381865afa158015610c31573d6000803e3d6000fd5b505050506040513d601f19601f82011682018060405250810190610c559190614f81565b905060cc60009054906101000a900473ffffffffffffffffffffffffffffffffffffffff1673ffffffffffffffffffffffffffffffffffffffff1663a9059cbb33836040518363ffffffff1660e01b8152600401610cb4929190614fae565b6020604051808303816000875af1158015610cd3573d6000803e3d6000fd5b505050506040513d601f19601f82011682018060405250810190610cf79190614fec565b5050565b610d0d82610d07612027565b836121fa565b610d1782826126e9565b5050565b6000610d25612027565b9050610d3081612988565b610d38612a29565b60e060008273ffffffffffffffffffffffffffffffffffffffff1673ffffffffffffffffffffffffffffffffffffffff168152602001908152602001600020600060d054815260200190815260200160002060080160009054906101000a900460ff16610db057610dab81858585612b71565b610dbb565b610dba8183612e14565b5b600060d35483610dcb9190615019565b905060cc60009054906101000a900473ffffffffffffffffffffffffffffffffffffffff1673ffffffffffffffffffffffffffffffffffffffff166323b872dd8330866040518463ffffffff1660e01b8152600401610e2c93929190615073565b6020604051808303816000875af1158015610e4b573d6000803e3d6000fd5b505050506040513d601f19601f82011682018060405250810190610e6f9190614fec565b50610e7b828285612fef565b7f588b5112eade36803f912bc8ff71857e84630503b5bd9bb4c9f546e437b71cd78284604051610eac929190614fae565b60405180910390a15050505050565b60d05481565b6000609760009054906101000a900473ffffffffffffffffffffffffffffffffffffffff16905090565b6000610ef5612027565b905060008060e060008473ffffffffffffffffffffffffffffffffffffffff1673ffffffffffffffffffffffffffffffffffffffff16815260200190815260200160002060008581526020019081526020016000209050600060cc60009054906101000a900473ffffffffffffffffffffffffffffffffffffffff1673ffffffffffffffffffffffffffffffffffffffff166370a0823160cf60009054906101000a900473ffffffffffffffffffffffffffffffffffffffff166040518263ffffffff1660e01b8152600401610fcb91906148c5565b602060405180830381865afa158015610fe8573d6000803e3d6000fd5b505050506040513d601f19601f8201168201806040525081019061100c9190614f81565b905081600101548260000154111561102a5781600101549250611032565b816000015492505b600082600201548461104491906150aa565b905081811115611089576040517f08c379a000000000000000000000000000000000000000000000000000000000815260040161108090615150565b60405180910390fd5b60cc60009054906101000a900473ffffffffffffffffffffffffffffffffffffffff1673ffffffffffffffffffffffffffffffffffffffff166323b872dd60cf60009054906101000a900473ffffffffffffffffffffffffffffffffffffffff1687846040518463ffffffff1660e01b815260040161110a93929190615073565b6020604051808303816000875af1158015611129573d6000803e3d6000fd5b505050506040513d601f19601f8201168201806040525081019061114d9190614fec565b50808360020160008282546111629190614f16565b92505081905550505050505050565b60606037805461118090614ddd565b80601f01602080910402602001604051908101604052809291908181526020018280546111ac90614ddd565b80156111f95780601f106111ce576101008083540402835291602001916111f9565b820191906000526020600020905b8154815290600101906020018083116111dc57829003601f168201915b5050505050905090565b60cc60009054906101000a900473ffffffffffffffffffffffffffffffffffffffff1681565b60d35481565b60de60009054906101000a900460ff1681565b60008061124d612027565b9050600061125b8286611939565b9050838110156112a0576040517f08c379a0000000000000000000000000000000000000000000000000000000008152600401611297906151e2565b60405180910390fd5b6112ad828686840361202f565b60019250505092915050565b6000806112c4612027565b90506112d1818585612286565b600191505092915050565b606060e1600083815260200190815260200160002080548060200260200160405190810160405280929190818152602001828054801561137157602002820191906000526020600020905b8160009054906101000a900473ffffffffffffffffffffffffffffffffffffffff1673ffffffffffffffffffffffffffffffffffffffff1681526020019060010190808311611327575b50505050509050919050565b60d4816005811061138d57600080fd5b016000915090505481565b6113a061250a565b600073ffffffffffffffffffffffffffffffffffffffff168173ffffffffffffffffffffffffffffffffffffffff161415611410576040517f08c379a00000000000000000000000000000000000000000000000000000000081526004016114079061524e565b60405180910390fd5b600160e360008373ffffffffffffffffffffffffffffffffffffffff1673ffffffffffffffffffffffffffffffffffffffff16815260200190815260200160002060006101000a81548160ff02191690831515021790555050565b60e360003373ffffffffffffffffffffffffffffffffffffffff1673ffffffffffffffffffffffffffffffffffffffff16815260200190815260200160002060009054906101000a900460ff166114f7576040517f08c379a00000000000000000000000000000000000000000000000000000000081526004016114ee90614e5b565b60405180910390fd5b428311611539576040517f08c379a0000000000000000000000000000000000000000000000000000000008152600401611530906152ba565b60405180910390fd5b6000811161157c576040517f08c379a000000000000000000000000000000000000000000000000000000000815260040161157390615326565b60405180910390fd5b60de60009054906101000a900460ff166115cb576040517f08c379a00000000000000000000000000000000000000000000000000000000081526004016115c290615392565b60405180910390fd5b600160d060008282546115de9190614f16565b925050819055508160d1819055508260d2819055508060d381905550600060de60006101000a81548160ff021916908315150217905550505050565b60d25481565b60cb5481565b60e360003373ffffffffffffffffffffffffffffffffffffffff1673ffffffffffffffffffffffffffffffffffffffff16815260200190815260200160002060009054906101000a900460ff166116b2576040517f08c379a00000000000000000000000000000000000000000000000000000000081526004016116a990614e5b565b60405180910390fd5b600181101580156116c4575060648111155b611703576040517f08c379a00000000000000000000000000000000000000000000000000000000081526004016116fa90615424565b60405180910390fd5b6064816117109190615019565b60ca8190555050565b8160008151811061172d5761172c615444565b5b602002602001015160d460006005811061174a57611749615444565b5b01819055508160018151811061176357611762615444565b5b602002602001015160d46001600581106117805761177f615444565b5b01819055508160028151811061179957611798615444565b5b602002602001015160d46002600581106117b6576117b5615444565b5b0181905550816003815181106117cf576117ce615444565b5b602002602001015160d46003600581106117ec576117eb615444565b5b01819055508160048151811061180557611804615444565b5b602002602001015160d460046005811061182257611821615444565b5b01819055508060008151811061183b5761183a615444565b5b602002602001015160d960006005811061185857611857615444565b5b01819055508060018151811061187157611870615444565b5b602002602001015160d960016005811061188e5761188d615444565b5b0181905550806002815181106118a7576118a6615444565b5b602002602001015160d96002600581106118c4576118c3615444565b5b0181905550806003815181106118dd576118dc615444565b5b602002602001015160d96003600581106118fa576118f9615444565b5b01819055508060048151811061191357611912615444565b5b602002602001015160d96004600581106119305761192f615444565b5b01819055505050565b6000603460008473ffffffffffffffffffffffffffffffffffffffff1673ffffffffffffffffffffffffffffffffffffffff16815260200190815260200160002060008373ffffffffffffffffffffffffffffffffffffffff1673ffffffffffffffffffffffffffffffffffffffff16815260200190815260200160002054905092915050565b60e0602052816000526040600020602052806000526040600020600091509150508060000154908060010154908060020154908060030154908060040154908060050154908060060154908060070154908060080160009054906101000a900460ff16908060080160019054906101000a900473ffffffffffffffffffffffffffffffffffffffff16908060090160009054906101000a900473ffffffffffffffffffffffffffffffffffffffff169080600a0160009054906101000a900473ffffffffffffffffffffffffffffffffffffffff1690508c565b60e360003373ffffffffffffffffffffffffffffffffffffffff1673ffffffffffffffffffffffffffffffffffffffff16815260200190815260200160002060009054906101000a900460ff16611b26576040517f08c379a0000000000000000000000000000000000000000000000000000000008152600401611b1d90614e5b565b60405180910390fd5b600073ffffffffffffffffffffffffffffffffffffffff168173ffffffffffffffffffffffffffffffffffffffff161415611b96576040517f08c379a0000000000000000000000000000000000000000000000000000000008152600401611b8d90614ec7565b60405180910390fd5b600160e460008373ffffffffffffffffffffffffffffffffffffffff1673ffffffffffffffffffffffffffffffffffffffff16815260200190815260200160002060006101000a81548160ff02191690831515021790555050565b611bf961250a565b600073ffffffffffffffffffffffffffffffffffffffff168173ffffffffffffffffffffffffffffffffffffffff161415611c69576040517f08c379a0000000000000000000000000000000000000000000000000000000008152600401611c60906154e5565b60405180910390fd5b611c72816128c2565b50565b60008060019054906101000a900460ff16159050808015611ca65750600160008054906101000a900460ff1660ff16105b80611cd35750611cb5306131c2565b158015611cd25750600160008054906101000a900460ff1660ff16145b5b611d12576040517f08c379a0000000000000000000000000000000000000000000000000000000008152600401611d0990615577565b60405180910390fd5b60016000806101000a81548160ff021916908360ff1602179055508015611d4f576001600060016101000a81548160ff0219169083151502179055505b600073ffffffffffffffffffffffffffffffffffffffff168573ffffffffffffffffffffffffffffffffffffffff161415611dbf576040517f08c379a0000000000000000000000000000000000000000000000000000000008152600401611db6906155e3565b60405180910390fd5b611e336040518060400160405280600681526020017f536f6d65466900000000000000000000000000000000000000000000000000008152506040518060400160405280600481526020017f534f4649000000000000000000000000000000000000000000000000000000008152506131e5565b611e3b613242565b611e50336a084595161401484a000000612588565b8460cc60006101000a81548173ffffffffffffffffffffffffffffffffffffffff021916908373ffffffffffffffffffffffffffffffffffffffff160217905550600160e360008673ffffffffffffffffffffffffffffffffffffffff1673ffffffffffffffffffffffffffffffffffffffff16815260200190815260200160002060006101000a81548160ff021916908315150217905550600160de60006101000a81548160ff0219169083151502179055508260ce60016101000a81548173ffffffffffffffffffffffffffffffffffffffff021916908373ffffffffffffffffffffffffffffffffffffffff1602179055508160cf60006101000a81548173ffffffffffffffffffffffffffffffffffffffff021916908373ffffffffffffffffffffffffffffffffffffffff16021790555061271060c98190555061138860ca81905550670de0b6b3a764000060cb8190555080156120005760008060016101000a81548160ff0219169083151502179055507f7f26b83ff96e1f2b6a682f133852f6798a09c465da95921460cefb38474024986001604051611ff7919061563e565b60405180910390a15b5050505050565b60e46020528060005260406000206000915054906101000a900460ff1681565b600033905090565b600073ffffffffffffffffffffffffffffffffffffffff168373ffffffffffffffffffffffffffffffffffffffff16141561209f576040517f08c379a0000000000000000000000000000000000000000000000000000000008152600401612096906156cb565b60405180910390fd5b600073ffffffffffffffffffffffffffffffffffffffff168273ffffffffffffffffffffffffffffffffffffffff16141561210f576040517f08c379a00000000000000000000000000000000000000000000000000000000081526004016121069061575d565b60405180910390fd5b80603460008573ffffffffffffffffffffffffffffffffffffffff1673ffffffffffffffffffffffffffffffffffffffff16815260200190815260200160002060008473ffffffffffffffffffffffffffffffffffffffff1673ffffffffffffffffffffffffffffffffffffffff168152602001908152602001600020819055508173ffffffffffffffffffffffffffffffffffffffff168373ffffffffffffffffffffffffffffffffffffffff167f8c5be1e5ebec7d5bd14f71427d1e84f3dd0314c0f7b2291e5b200ac8c7c3b925836040516121ed9190614765565b60405180910390a3505050565b60006122068484611939565b90507fffffffffffffffffffffffffffffffffffffffffffffffffffffffffffffffff81146122805781811015612272576040517f08c379a0000000000000000000000000000000000000000000000000000000008152600401612269906157c9565b60405180910390fd5b61227f848484840361202f565b5b50505050565b600073ffffffffffffffffffffffffffffffffffffffff168373ffffffffffffffffffffffffffffffffffffffff1614156122f6576040517f08c379a00000000000000000000000000000000000000000000000000000000081526004016122ed9061585b565b60405180910390fd5b600073ffffffffffffffffffffffffffffffffffffffff168273ffffffffffffffffffffffffffffffffffffffff161415612366576040517f08c379a000000000000000000000000000000000000000000000000000000000815260040161235d906158ed565b60405180910390fd5b61237183838361329b565b6000603360008573ffffffffffffffffffffffffffffffffffffffff1673ffffffffffffffffffffffffffffffffffffffff168152602001908152602001600020549050818110156123f8576040517f08c379a00000000000000000000000000000000000000000000000000000000081526004016123ef9061597f565b60405180910390fd5b818103603360008673ffffffffffffffffffffffffffffffffffffffff1673ffffffffffffffffffffffffffffffffffffffff1681526020019081526020016000208190555081603360008573ffffffffffffffffffffffffffffffffffffffff1673ffffffffffffffffffffffffffffffffffffffff168152602001908152602001600020600082825461248d9190614f16565b925050819055508273ffffffffffffffffffffffffffffffffffffffff168473ffffffffffffffffffffffffffffffffffffffff167fddf252ad1be2c89b69c2b068fc378daa952ba7f163c4a11628f55a4df523b3ef846040516124f19190614765565b60405180910390a36125048484846132a0565b50505050565b612512612027565b73ffffffffffffffffffffffffffffffffffffffff16612530610ec1565b73ffffffffffffffffffffffffffffffffffffffff1614612586576040517f08c379a000000000000000000000000000000000000000000000000000000000815260040161257d906159eb565b60405180910390fd5b565b600073ffffffffffffffffffffffffffffffffffffffff168273ffffffffffffffffffffffffffffffffffffffff1614156125f8576040517f08c379a00000000000000000000000000000000000000000000000000000000081526004016125ef90615a57565b60405180910390fd5b6126046000838361329b565b80603560008282546126169190614f16565b9250508190555080603360008473ffffffffffffffffffffffffffffffffffffffff1673ffffffffffffffffffffffffffffffffffffffff168152602001908152602001600020600082825461266c9190614f16565b925050819055508173ffffffffffffffffffffffffffffffffffffffff16600073ffffffffffffffffffffffffffffffffffffffff167fddf252ad1be2c89b69c2b068fc378daa952ba7f163c4a11628f55a4df523b3ef836040516126d19190614765565b60405180910390a36126e5600083836132a0565b5050565b600073ffffffffffffffffffffffffffffffffffffffff168273ffffffffffffffffffffffffffffffffffffffff161415612759576040517f08c379a000000000000000000000000000000000000000000000000000000000815260040161275090615ae9565b60405180910390fd5b6127658260008361329b565b6000603360008473ffffffffffffffffffffffffffffffffffffffff1673ffffffffffffffffffffffffffffffffffffffff168152602001908152602001600020549050818110156127ec576040517f08c379a00000000000000000000000000000000000000000000000000000000081526004016127e390615b7b565b60405180910390fd5b818103603360008573ffffffffffffffffffffffffffffffffffffffff1673ffffffffffffffffffffffffffffffffffffffff16815260200190815260200160002081905550816035600082825461284491906150aa565b92505081905550600073ffffffffffffffffffffffffffffffffffffffff168373ffffffffffffffffffffffffffffffffffffffff167fddf252ad1be2c89b69c2b068fc378daa952ba7f163c4a11628f55a4df523b3ef846040516128a99190614765565b60405180910390a36128bd836000846132a0565b505050565b6000609760009054906101000a900473ffffffffffffffffffffffffffffffffffffffff16905081609760006101000a81548173ffffffffffffffffffffffffffffffffffffffff021916908373ffffffffffffffffffffffffffffffffffffffff1602179055508173ffffffffffffffffffffffffffffffffffffffff168173ffffffffffffffffffffffffffffffffffffffff167f8be0079c531659141344cd1fd0a4f28419497f9722a3daafe3b4186f6b6457e060405160405180910390a35050565b60d2544210156129cd576040517f08c379a00000000000000000000000000000000000000000000000000000000081526004016129c490615be7565b60405180910390fd5b60de60009054906101000a900460ff1615612a1d576040517f08c379a0000000000000000000000000000000000000000000000000000000008152600401612a1490615c53565b60405180910390fd5b612a26816132a5565b50565b60e260003373ffffffffffffffffffffffffffffffffffffffff1673ffffffffffffffffffffffffffffffffffffffff168152602001908152602001600020600060d054815260200190815260200160002060009054906101000a900460ff16612b6f57600160e260003373ffffffffffffffffffffffffffffffffffffffff1673ffffffffffffffffffffffffffffffffffffffff168152602001908152602001600020600060d054815260200190815260200160002060006101000a81548160ff02191690831515021790555060e1600060d0548152602001908152602001600020339080600181540180825580915050600190039060005260206000200160009091909190916101000a81548173ffffffffffffffffffffffffffffffffffffffff021916908373ffffffffffffffffffffffffffffffffffffffff1602179055505b565b6000806000612b7f846133a5565b925092509250600060e060008973ffffffffffffffffffffffffffffffffffffffff1673ffffffffffffffffffffffffffffffffffffffff168152602001908152602001600020600060d0548152602001908152602001600020905083816001018190555060018160080160006101000a81548160ff02191690831515021790555081816003018190555081816004018190555082816006018190555081816005016000828254612c309190614f16565b92505081905550600073ffffffffffffffffffffffffffffffffffffffff168773ffffffffffffffffffffffffffffffffffffffff1614158015612ca057508773ffffffffffffffffffffffffffffffffffffffff168773ffffffffffffffffffffffffffffffffffffffff1614155b15612e0a57612cae876136e5565b612cb88787613870565b868160080160016101000a81548173ffffffffffffffffffffffffffffffffffffffff021916908373ffffffffffffffffffffffffffffffffffffffff160217905550600060e060008973ffffffffffffffffffffffffffffffffffffffff1673ffffffffffffffffffffffffffffffffffffffff168152602001908152602001600020600060d0548152602001908152602001600020905082816005016000828254612d659190614f16565b925050819055508615612dba57888160090160006101000a81548173ffffffffffffffffffffffffffffffffffffffff021916908373ffffffffffffffffffffffffffffffffffffffff160217905550612dfe565b8881600a0160006101000a81548173ffffffffffffffffffffffffffffffffffffffff021916908373ffffffffffffffffffffffffffffffffffffffff1602179055505b612e07896139eb565b50505b5050505050505050565b6000806000612e22846133a5565b925092509250600060e060008773ffffffffffffffffffffffffffffffffffffffff1673ffffffffffffffffffffffffffffffffffffffff168152602001908152602001600020600060d05481526020019081526020016000209050600060e060008360080160019054906101000a900473ffffffffffffffffffffffffffffffffffffffff1673ffffffffffffffffffffffffffffffffffffffff1673ffffffffffffffffffffffffffffffffffffffff168152602001908152602001600020600060d0548152602001908152602001600020905084826001016000828254612f0c9190614f16565b9250508190555082826005016000828254612f279190614f16565b9250508190555082826004016000828254612f429190614f16565b9250508190555082816005016000828254612f5d9190614f16565b925050819055508160060154841115612f83578382600601819055508282600301819055505b600073ffffffffffffffffffffffffffffffffffffffff168260080160019054906101000a900473ffffffffffffffffffffffffffffffffffffffff1673ffffffffffffffffffffffffffffffffffffffff1614612fe657612fe4876139eb565b505b50505050505050565b6000600282612ffe9190615ca2565b90508260df600060d054815260200190815260200160002060008282546130259190614f16565b925050819055506130368484612588565b60cc60009054906101000a900473ffffffffffffffffffffffffffffffffffffffff1673ffffffffffffffffffffffffffffffffffffffff1663a9059cbb60ce60019054906101000a900473ffffffffffffffffffffffffffffffffffffffff16836040518363ffffffff1660e01b81526004016130b5929190614fae565b6020604051808303816000875af11580156130d4573d6000803e3d6000fd5b505050506040513d601f19601f820116820180604052508101906130f89190614fec565b5060cc60009054906101000a900473ffffffffffffffffffffffffffffffffffffffff1673ffffffffffffffffffffffffffffffffffffffff1663a9059cbb60cf60009054906101000a900473ffffffffffffffffffffffffffffffffffffffff16836040518363ffffffff1660e01b8152600401613178929190614fae565b6020604051808303816000875af1158015613197573d6000803e3d6000fd5b505050506040513d601f19601f820116820180604052508101906131bb9190614fec565b5050505050565b6000808273ffffffffffffffffffffffffffffffffffffffff163b119050919050565b600060019054906101000a900460ff16613234576040517f08c379a000000000000000000000000000000000000000000000000000000000815260040161322b90615d45565b60405180910390fd5b61323e82826141f9565b5050565b600060019054906101000a900460ff16613291576040517f08c379a000000000000000000000000000000000000000000000000000000000815260040161328890615d45565b60405180910390fd5b61329961427a565b565b505050565b505050565b600073ffffffffffffffffffffffffffffffffffffffff168173ffffffffffffffffffffffffffffffffffffffff161415613315576040517f08c379a000000000000000000000000000000000000000000000000000000000815260040161330c90614ec7565b60405180910390fd5b60e460008273ffffffffffffffffffffffffffffffffffffffff1673ffffffffffffffffffffffffffffffffffffffff16815260200190815260200160002060009054906101000a900460ff16156133a2576040517f08c379a000000000000000000000000000000000000000000000000000000000815260040161339990615db1565b60405180910390fd5b50565b6000806000806000905060008060cb5460d46004600581106133ca576133c9615444565b5b01546133d69190615019565b87106134525760cb54600360d46004600581106133f6576133f5615444565b5b01546134029190615019565b61340c9190615019565b925060d960046005811061342357613422615444565b5b0154915060cb5460d460046005811061343f5761343e615444565b5b015461344b9190615019565b90506136d2565b60cb5460d460036005811061346a57613469615444565b5b01546134769190615019565b87106134f25760cb54600360d460036005811061349657613495615444565b5b01546134a29190615019565b6134ac9190615019565b925060d96003600581106134c3576134c2615444565b5b0154915060cb5460d46003600581106134df576134de615444565b5b01546134eb9190615019565b90506136d1565b60cb5460d460026005811061350a57613509615444565b5b01546135169190615019565b87106135925760cb54600360d460026005811061353657613535615444565b5b01546135429190615019565b61354c9190615019565b925060d960026005811061356357613562615444565b5b0154915060cb5460d460026005811061357f5761357e615444565b5b015461358b9190615019565b90506136d0565b60cb5460d46001600581106135aa576135a9615444565b5b01546135b69190615019565b87106136325760cb54600360d46001600581106135d6576135d5615444565b5b01546135e29190615019565b6135ec9190615019565b925060d960016005811061360357613602615444565b5b0154915060cb5460d460016005811061361f5761361e615444565b5b015461362b9190615019565b90506136cf565b60cb5460d460006005811061364a57613649615444565b5b01546136569190615019565b87106136ce5760cb54600360d460006005811061367657613675615444565b5b01546136829190615019565b61368c9190615019565b925060d96000600581106136a3576136a2615444565b5b0154915060cb5460d46000600581106136bf576136be615444565b5b01546136cb9190615019565b90505b5b5b5b5b8282829550955095505050509193909250565b600060e060008373ffffffffffffffffffffffffffffffffffffffff1673ffffffffffffffffffffffffffffffffffffffff168152602001908152602001600020600060d054815260200190815260200160002090508060080160009054906101000a900460ff16613783576040517f0aa59f6e00000000000000000000000000000000000000000000000000000000815260040160405180910390fd5b600073ffffffffffffffffffffffffffffffffffffffff168160090160009054906101000a900473ffffffffffffffffffffffffffffffffffffffff1673ffffffffffffffffffffffffffffffffffffffff16141580156138355750600073ffffffffffffffffffffffffffffffffffffffff1681600a0160009054906101000a900473ffffffffffffffffffffffffffffffffffffffff1673ffffffffffffffffffffffffffffffffffffffff1614155b1561386c576040517f9df1595200000000000000000000000000000000000000000000000000000000815260040160405180910390fd5b5050565b600060e060008473ffffffffffffffffffffffffffffffffffffffff1673ffffffffffffffffffffffffffffffffffffffff168152602001908152602001600020600060d05481526020019081526020016000209050811561395b57600073ffffffffffffffffffffffffffffffffffffffff168160090160009054906101000a900473ffffffffffffffffffffffffffffffffffffffff1673ffffffffffffffffffffffffffffffffffffffff1614613956576040517f66dc1e6000000000000000000000000000000000000000000000000000000000815260040160405180910390fd5b6139e6565b600073ffffffffffffffffffffffffffffffffffffffff1681600a0160009054906101000a900473ffffffffffffffffffffffffffffffffffffffff1673ffffffffffffffffffffffffffffffffffffffff16146139e5576040517f66dc1e6000000000000000000000000000000000000000000000000000000000815260040160405180910390fd5b5b505050565b60008060e060008473ffffffffffffffffffffffffffffffffffffffff1673ffffffffffffffffffffffffffffffffffffffff168152602001908152602001600020600060d05481526020019081526020016000209050600083905060005b600073ffffffffffffffffffffffffffffffffffffffff168360080160019054906101000a900473ffffffffffffffffffffffffffffffffffffffff1673ffffffffffffffffffffffffffffffffffffffff1614158015613aab5750600a81105b156141ee57600060e060008560080160019054906101000a900473ffffffffffffffffffffffffffffffffffffffff1673ffffffffffffffffffffffffffffffffffffffff1673ffffffffffffffffffffffffffffffffffffffff168152602001908152602001600020600060d0548152602001908152602001600020905060008073ffffffffffffffffffffffffffffffffffffffff168260090160009054906101000a900473ffffffffffffffffffffffffffffffffffffffff1673ffffffffffffffffffffffffffffffffffffffff1614613c025760e060008360090160009054906101000a900473ffffffffffffffffffffffffffffffffffffffff1673ffffffffffffffffffffffffffffffffffffffff1673ffffffffffffffffffffffffffffffffffffffff168152602001908152602001600020600060d054815260200190815260200160002060050154613c05565b60005b905060008073ffffffffffffffffffffffffffffffffffffffff1683600a0160009054906101000a900473ffffffffffffffffffffffffffffffffffffffff1673ffffffffffffffffffffffffffffffffffffffff1614613cdf5760e0600084600a0160009054906101000a900473ffffffffffffffffffffffffffffffffffffffff1673ffffffffffffffffffffffffffffffffffffffff1673ffffffffffffffffffffffffffffffffffffffff168152602001908152602001600020600060d054815260200190815260200160002060050154613ce2565b60005b905080828460040154613cf59190614f16565b613cff9190614f16565b83600501819055508260090160009054906101000a900473ffffffffffffffffffffffffffffffffffffffff1673ffffffffffffffffffffffffffffffffffffffff168573ffffffffffffffffffffffffffffffffffffffff161415613f4e57600073ffffffffffffffffffffffffffffffffffffffff1683600a0160009054906101000a900473ffffffffffffffffffffffffffffffffffffffff1673ffffffffffffffffffffffffffffffffffffffff1614613f4957600060e0600085600a0160009054906101000a900473ffffffffffffffffffffffffffffffffffffffff1673ffffffffffffffffffffffffffffffffffffffff1673ffffffffffffffffffffffffffffffffffffffff168152602001908152602001600020600060d05481526020019081526020016000209050806005015487600501541115613eea57613e938760080160019054906101000a900473ffffffffffffffffffffffffffffffffffffffff1685600a0160009054906101000a900473ffffffffffffffffffffffffffffffffffffffff166142db565b613ee58760080160019054906101000a900473ffffffffffffffffffffffffffffffffffffffff1685600a0160009054906101000a900473ffffffffffffffffffffffffffffffffffffffff166143c5565b613f47565b613f188760080160019054906101000a900473ffffffffffffffffffffffffffffffffffffffff16876142db565b613f468760080160019054906101000a900473ffffffffffffffffffffffffffffffffffffffff16876143c5565b5b505b614139565b600073ffffffffffffffffffffffffffffffffffffffff168360090160009054906101000a900473ffffffffffffffffffffffffffffffffffffffff1673ffffffffffffffffffffffffffffffffffffffff161461413857600060e060008560090160009054906101000a900473ffffffffffffffffffffffffffffffffffffffff1673ffffffffffffffffffffffffffffffffffffffff1673ffffffffffffffffffffffffffffffffffffffff168152602001908152602001600020600060d054815260200190815260200160002090508060050154876005015411156140d9576140828760080160019054906101000a900473ffffffffffffffffffffffffffffffffffffffff168560090160009054906101000a900473ffffffffffffffffffffffffffffffffffffffff166142db565b6140d48760080160019054906101000a900473ffffffffffffffffffffffffffffffffffffffff168560090160009054906101000a900473ffffffffffffffffffffffffffffffffffffffff166143c5565b614136565b6141078760080160019054906101000a900473ffffffffffffffffffffffffffffffffffffffff16876142db565b6141358760080160019054906101000a900473ffffffffffffffffffffffffffffffffffffffff16876143c5565b5b505b5b8560080160019054906101000a900473ffffffffffffffffffffffffffffffffffffffff16945060e060008760080160019054906101000a900473ffffffffffffffffffffffffffffffffffffffff1673ffffffffffffffffffffffffffffffffffffffff1673ffffffffffffffffffffffffffffffffffffffff168152602001908152602001600020600060d0548152602001908152602001600020955083806141e390615dd1565b945050505050613a4a565b809350505050919050565b600060019054906101000a900460ff16614248576040517f08c379a000000000000000000000000000000000000000000000000000000000815260040161423f90615d45565b60405180910390fd5b816036908051906020019061425e9291906144ad565b5080603790805190602001906142759291906144ad565b505050565b600060019054906101000a900460ff166142c9576040517f08c379a00000000000000000000000000000000000000000000000000000000081526004016142c090615d45565b60405180910390fd5b6142d96142d4612027565b6128c2565b565b600060e060008473ffffffffffffffffffffffffffffffffffffffff1673ffffffffffffffffffffffffffffffffffffffff168152602001908152602001600020600060d05481526020019081526020016000209050600060e060008473ffffffffffffffffffffffffffffffffffffffff1673ffffffffffffffffffffffffffffffffffffffff168152602001908152602001600020600060d05481526020019081526020016000209050806007015460c954836006015483600501546143a39190615019565b6143ad9190615ca2565b6143b79190614f16565b826007018190555050505050565b600060e060008473ffffffffffffffffffffffffffffffffffffffff1673ffffffffffffffffffffffffffffffffffffffff168152602001908152602001600020600060d05481526020019081526020016000209050600060e060008473ffffffffffffffffffffffffffffffffffffffff1673ffffffffffffffffffffffffffffffffffffffff168152602001908152602001600020600060d05481526020019081526020016000209050816007015460c95460ca54836003015461448b9190615019565b6144959190615ca2565b61449f9190614f16565b826000018190555050505050565b8280546144b990614ddd565b90600052602060002090601f0160209004810192826144db5760008555614522565b82601f106144f457805160ff1916838001178555614522565b82800160010185558215614522579182015b82811115614521578251825591602001919060010190614506565b5b50905061452f9190614533565b5090565b5b8082111561454c576000816000905550600101614534565b5090565b600081519050919050565b600082825260208201905092915050565b60005b8381101561458a57808201518184015260208101905061456f565b83811115614599576000848401525b50505050565b6000601f19601f8301169050919050565b60006145bb82614550565b6145c5818561455b565b93506145d581856020860161456c565b6145de8161459f565b840191505092915050565b6000602082019050818103600083015261460381846145b0565b905092915050565b6000604051905090565b600080fd5b600080fd5b600073ffffffffffffffffffffffffffffffffffffffff82169050919050565b600061464a8261461f565b9050919050565b61465a8161463f565b811461466557600080fd5b50565b60008135905061467781614651565b92915050565b6000819050919050565b6146908161467d565b811461469b57600080fd5b50565b6000813590506146ad81614687565b92915050565b600080604083850312156146ca576146c9614615565b5b60006146d885828601614668565b92505060206146e98582860161469e565b9150509250929050565b60008115159050919050565b614708816146f3565b82525050565b600060208201905061472360008301846146ff565b92915050565b60006020828403121561473f5761473e614615565b5b600061474d8482850161469e565b91505092915050565b61475f8161467d565b82525050565b600060208201905061477a6000830184614756565b92915050565b60008060006060848603121561479957614798614615565b5b60006147a786828701614668565b93505060206147b886828701614668565b92505060406147c98682870161469e565b9150509250925092565b600060ff82169050919050565b6147e9816147d3565b82525050565b600060208201905061480460008301846147e0565b92915050565b6000602082840312156148205761481f614615565b5b600061482e84828501614668565b91505092915050565b614840816146f3565b811461484b57600080fd5b50565b60008135905061485d81614837565b92915050565b60008060006060848603121561487c5761487b614615565b5b600061488a86828701614668565b935050602061489b8682870161484e565b92505060406148ac8682870161469e565b9150509250925092565b6148bf8161463f565b82525050565b60006020820190506148da60008301846148b6565b92915050565b6000819050919050565b60006149056149006148fb8461461f565b6148e0565b61461f565b9050919050565b6000614917826148ea565b9050919050565b60006149298261490c565b9050919050565b6149398161491e565b82525050565b60006020820190506149546000830184614930565b92915050565b600081519050919050565b600082825260208201905092915050565b6000819050602082019050919050565b61498f8161463f565b82525050565b60006149a18383614986565b60208301905092915050565b6000602082019050919050565b60006149c58261495a565b6149cf8185614965565b93506149da83614976565b8060005b83811015614a0b5781516149f28882614995565b97506149fd836149ad565b9250506001810190506149de565b5085935050505092915050565b60006020820190508181036000830152614a3281846149ba565b905092915050565b600080600060608486031215614a5357614a52614615565b5b6000614a618682870161469e565b9350506020614a728682870161469e565b9250506040614a838682870161469e565b9150509250925092565b600080fd5b7f4e487b7100000000000000000000000000000000000000000000000000000000600052604160045260246000fd5b614aca8261459f565b810181811067ffffffffffffffff82111715614ae957614ae8614a92565b5b80604052505050565b6000614afc61460b565b9050614b088282614ac1565b919050565b600067ffffffffffffffff821115614b2857614b27614a92565b5b602082029050602081019050919050565b600080fd5b6000614b51614b4c84614b0d565b614af2565b90508083825260208201905060208402830185811115614b7457614b73614b39565b5b835b81811015614b9d5780614b89888261469e565b845260208401935050602081019050614b76565b5050509392505050565b600082601f830112614bbc57614bbb614a8d565b5b8135614bcc848260208601614b3e565b91505092915050565b60008060408385031215614bec57614beb614615565b5b600083013567ffffffffffffffff811115614c0a57614c0961461a565b5b614c1685828601614ba7565b925050602083013567ffffffffffffffff811115614c3757614c3661461a565b5b614c4385828601614ba7565b9150509250929050565b60008060408385031215614c6457614c63614615565b5b6000614c7285828601614668565b9250506020614c8385828601614668565b9150509250929050565b600061018082019050614ca3600083018f614756565b614cb0602083018e614756565b614cbd604083018d614756565b614cca606083018c614756565b614cd7608083018b614756565b614ce460a083018a614756565b614cf160c0830189614756565b614cfe60e0830188614756565b614d0c6101008301876146ff565b614d1a6101208301866148b6565b614d286101408301856148b6565b614d366101608301846148b6565b9d9c50505050505050505050505050565b60008060008060808587031215614d6157614d60614615565b5b6000614d6f87828801614668565b9450506020614d8087828801614668565b9350506040614d9187828801614668565b9250506060614da287828801614668565b91505092959194509250565b7f4e487b7100000000000000000000000000000000000000000000000000000000600052602260045260246000fd5b60006002820490506001821680614df557607f821691505b60208210811415614e0957614e08614dae565b5b50919050565b7f6e6f742d6f70657261746f720000000000000000000000000000000000000000600082015250565b6000614e45600c8361455b565b9150614e5082614e0f565b602082019050919050565b60006020820190508181036000830152614e7481614e38565b9050919050565b7f7a65726f20616464726573730000000000000000000000000000000000000000600082015250565b6000614eb1600c8361455b565b9150614ebc82614e7b565b602082019050919050565b60006020820190508181036000830152614ee081614ea4565b9050919050565b7f4e487b7100000000000000000000000000000000000000000000000000000000600052601160045260246000fd5b6000614f218261467d565b9150614f2c8361467d565b9250827fffffffffffffffffffffffffffffffffffffffffffffffffffffffffffffffff03821115614f6157614f60614ee7565b5b828201905092915050565b600081519050614f7b81614687565b92915050565b600060208284031215614f9757614f96614615565b5b6000614fa584828501614f6c565b91505092915050565b6000604082019050614fc360008301856148b6565b614fd06020830184614756565b9392505050565b600081519050614fe681614837565b92915050565b60006020828403121561500257615001614615565b5b600061501084828501614fd7565b91505092915050565b60006150248261467d565b915061502f8361467d565b9250817fffffffffffffffffffffffffffffffffffffffffffffffffffffffffffffffff048311821515161561506857615067614ee7565b5b828202905092915050565b600060608201905061508860008301866148b6565b61509560208301856148b6565b6150a26040830184614756565b949350505050565b60006150b58261467d565b91506150c08361467d565b9250828210156150d3576150d2614ee7565b5b828203905092915050565b7f4d61696e2057616c6c6574207472616e7366657220616d6f756e74206578636560008201527f65647320616c6c6f77616e636500000000000000000000000000000000000000602082015250565b600061513a602d8361455b565b9150615145826150de565b604082019050919050565b600060208201905081810360008301526151698161512d565b9050919050565b7f45524332303a2064656372656173656420616c6c6f77616e63652062656c6f7760008201527f207a65726f000000000000000000000000000000000000000000000000000000602082015250565b60006151cc60258361455b565b91506151d782615170565b604082019050919050565b600060208201905081810360008301526151fb816151bf565b9050919050565b7f43616e6e6f74206265207a65726f206164647265737300000000000000000000600082015250565b600061523860168361455b565b915061524382615202565b602082019050919050565b600060208201905081810360008301526152678161522b565b9050919050565b7f696e76616c69642074696d650000000000000000000000000000000000000000600082015250565b60006152a4600c8361455b565b91506152af8261526e565b602082019050919050565b600060208201905081810360008301526152d381615297565b9050919050565b7f696e76616c69642072617465206275792049434f206279205553445400000000600082015250565b6000615310601c8361455b565b915061531b826152da565b602082019050919050565b6000602082019050818103600083015261533f81615303565b9050919050565b7f49434f206d75737420656e640000000000000000000000000000000000000000600082015250565b600061537c600c8361455b565b915061538782615346565b602082019050919050565b600060208201905081810360008301526153ab8161536f565b9050919050565b7f50657263656e74206d757374206265206265747765656e203120616e6420313060008201527f3000000000000000000000000000000000000000000000000000000000000000602082015250565b600061540e60218361455b565b9150615419826153b2565b604082019050919050565b6000602082019050818103600083015261543d81615401565b9050919050565b7f4e487b7100000000000000000000000000000000000000000000000000000000600052603260045260246000fd5b7f4f776e61626c653a206e6577206f776e657220697320746865207a65726f206160008201527f6464726573730000000000000000000000000000000000000000000000000000602082015250565b60006154cf60268361455b565b91506154da82615473565b604082019050919050565b600060208201905081810360008301526154fe816154c2565b9050919050565b7f496e697469616c697a61626c653a20636f6e747261637420697320616c72656160008201527f647920696e697469616c697a6564000000000000000000000000000000000000602082015250565b6000615561602e8361455b565b915061556c82615505565b604082019050919050565b6000602082019050818103600083015261559081615554565b9050919050565b7f696e76616c69642d555344540000000000000000000000000000000000000000600082015250565b60006155cd600c8361455b565b91506155d882615597565b602082019050919050565b600060208201905081810360008301526155fc816155c0565b9050919050565b6000819050919050565b600061562861562361561e84615603565b6148e0565b6147d3565b9050919050565b6156388161560d565b82525050565b6000602082019050615653600083018461562f565b92915050565b7f45524332303a20617070726f76652066726f6d20746865207a65726f2061646460008201527f7265737300000000000000000000000000000000000000000000000000000000602082015250565b60006156b560248361455b565b91506156c082615659565b604082019050919050565b600060208201905081810360008301526156e4816156a8565b9050919050565b7f45524332303a20617070726f766520746f20746865207a65726f20616464726560008201527f7373000000000000000000000000000000000000000000000000000000000000602082015250565b600061574760228361455b565b9150615752826156eb565b604082019050919050565b600060208201905081810360008301526157768161573a565b9050919050565b7f45524332303a20696e73756666696369656e7420616c6c6f77616e6365000000600082015250565b60006157b3601d8361455b565b91506157be8261577d565b602082019050919050565b600060208201905081810360008301526157e2816157a6565b9050919050565b7f45524332303a207472616e736665722066726f6d20746865207a65726f20616460008201527f6472657373000000000000000000000000000000000000000000000000000000602082015250565b600061584560258361455b565b9150615850826157e9565b604082019050919050565b6000602082019050818103600083015261587481615838565b9050919050565b7f45524332303a207472616e7366657220746f20746865207a65726f206164647260008201527f6573730000000000000000000000000000000000000000000000000000000000602082015250565b60006158d760238361455b565b91506158e28261587b565b604082019050919050565b60006020820190508181036000830152615906816158ca565b9050919050565b7f45524332303a207472616e7366657220616d6f756e742065786365656473206260008201527f616c616e63650000000000000000000000000000000000000000000000000000602082015250565b600061596960268361455b565b91506159748261590d565b604082019050919050565b600060208201905081810360008301526159988161595c565b9050919050565b7f4f776e61626c653a2063616c6c6572206973206e6f7420746865206f776e6572600082015250565b60006159d560208361455b565b91506159e08261599f565b602082019050919050565b60006020820190508181036000830152615a04816159c8565b9050919050565b7f45524332303a206d696e7420746f20746865207a65726f206164647265737300600082015250565b6000615a41601f8361455b565b9150615a4c82615a0b565b602082019050919050565b60006020820190508181036000830152615a7081615a34565b9050919050565b7f45524332303a206275726e2066726f6d20746865207a65726f2061646472657360008201527f7300000000000000000000000000000000000000000000000000000000000000602082015250565b6000615ad360218361455b565b9150615ade82615a77565b604082019050919050565b60006020820190508181036000830152615b0281615ac6565b9050919050565b7f45524332303a206275726e20616d6f756e7420657863656564732062616c616e60008201527f6365000000000000000000000000000000000000000000000000000000000000602082015250565b6000615b6560228361455b565b9150615b7082615b09565b604082019050919050565b60006020820190508181036000830152615b9481615b58565b9050919050565b7f49434f2074696d6520646f6573206e6f74207374617274206e6f770000000000600082015250565b6000615bd1601b8361455b565b9150615bdc82615b9b565b602082019050919050565b60006020820190508181036000830152615c0081615bc4565b9050919050565b7f49434f2074696d65206973206578706972656400000000000000000000000000600082015250565b6000615c3d60138361455b565b9150615c4882615c07565b602082019050919050565b60006020820190508181036000830152615c6c81615c30565b9050919050565b7f4e487b7100000000000000000000000000000000000000000000000000000000600052601260045260246000fd5b6000615cad8261467d565b9150615cb88361467d565b925082615cc857615cc7615c73565b5b828204905092915050565b7f496e697469616c697a61626c653a20636f6e7472616374206973206e6f74206960008201527f6e697469616c697a696e67000000000000000000000000000000000000000000602082015250565b6000615d2f602b8361455b565b9150615d3a82615cd3565b604082019050919050565b60006020820190508181036000830152615d5e81615d22565b9050919050565b7f626c61636b6c6973742075736572000000000000000000000000000000000000600082015250565b6000615d9b600e8361455b565b9150615da682615d65565b602082019050919050565b60006020820190508181036000830152615dca81615d8e565b9050919050565b6000615ddc8261467d565b91507fffffffffffffffffffffffffffffffffffffffffffffffffffffffffffffffff821415615e0f57615e0e614ee7565b5b60018201905091905056fea26469706673582212209cf018a2c8b8e126884c597e97025e52b3e88dadf33eadb258d0fa018a33953864736f6c634300080a0033",
  "linkReferences": {},
  "deployedLinkReferences": {}
}