{
  "_format": "hh-sol-artifact-1",
  "contractName": "SomeFi",
  "sourceName": "contracts/SomeFi.sol",
  "abi": [
    {
      "inputs": [],
      "name": "InvalidReferrerAddress",
      "type": "error"
    },
    {
      "inputs": [],
      "name": "ReferrerHasFull",
      "type": "error"
    },
    {
      "inputs": [],
      "name": "ReferrerHasFullThisBranch",
      "type": "error"
    },
    {
      "anonymous": false,
      "inputs": [
        {
          "indexed": true,
          "internalType": "address",
          "name": "owner",
          "type": "address"
        },
        {
          "indexed": true,
          "internalType": "address",
          "name": "spender",
          "type": "address"
        },
        {
          "indexed": false,
          "internalType": "uint256",
          "name": "value",
          "type": "uint256"
        }
      ],
      "name": "Approval",
      "type": "event"
    },
    {
      "anonymous": false,
      "inputs": [
        {
          "indexed": false,
          "internalType": "uint8",
          "name": "version",
          "type": "uint8"
        }
      ],
      "name": "Initialized",
      "type": "event"
    },
    {
      "anonymous": false,
      "inputs": [
        {
          "indexed": true,
          "internalType": "address",
          "name": "previousOwner",
          "type": "address"
        },
        {
          "indexed": true,
          "internalType": "address",
          "name": "newOwner",
          "type": "address"
        }
      ],
      "name": "OwnershipTransferred",
      "type": "event"
    },
    {
      "anonymous": false,
      "inputs": [
        {
          "indexed": true,
          "internalType": "address",
          "name": "from",
          "type": "address"
        },
        {
          "indexed": true,
          "internalType": "address",
          "name": "to",
          "type": "address"
        },
        {
          "indexed": false,
          "internalType": "uint256",
          "name": "value",
          "type": "uint256"
        }
      ],
      "name": "Transfer",
      "type": "event"
    },
    {
      "anonymous": false,
      "inputs": [
        {
          "indexed": false,
          "internalType": "address",
          "name": "buyer",
          "type": "address"
        },
        {
          "indexed": false,
          "internalType": "uint256",
          "name": "amount",
          "type": "uint256"
        }
      ],
      "name": "buyIco",
      "type": "event"
    },
    {
      "inputs": [
        {
          "internalType": "address",
          "name": "_address",
          "type": "address"
        }
      ],
      "name": "addAddressToBlacklist",
      "outputs": [],
      "stateMutability": "nonpayable",
      "type": "function"
    },
    {
      "inputs": [
        {
          "internalType": "address",
          "name": "owner",
          "type": "address"
        },
        {
          "internalType": "address",
          "name": "spender",
          "type": "address"
        }
      ],
      "name": "allowance",
      "outputs": [
        {
          "internalType": "uint256",
          "name": "",
          "type": "uint256"
        }
      ],
      "stateMutability": "view",
      "type": "function"
    },
    {
      "inputs": [
        {
          "internalType": "address",
          "name": "spender",
          "type": "address"
        },
        {
          "internalType": "uint256",
          "name": "amount",
          "type": "uint256"
        }
      ],
      "name": "approve",
      "outputs": [
        {
          "internalType": "bool",
          "name": "",
          "type": "bool"
        }
      ],
      "stateMutability": "nonpayable",
      "type": "function"
    },
    {
      "inputs": [
        {
          "internalType": "address",
          "name": "account",
          "type": "address"
        }
      ],
      "name": "balanceOf",
      "outputs": [
        {
          "internalType": "uint256",
          "name": "",
          "type": "uint256"
        }
      ],
      "stateMutability": "view",
      "type": "function"
    },
    {
      "inputs": [
        {
          "internalType": "address",
          "name": "",
          "type": "address"
        }
      ],
      "name": "blacklist",
      "outputs": [
        {
          "internalType": "bool",
          "name": "",
          "type": "bool"
        }
      ],
      "stateMutability": "view",
      "type": "function"
    },
    {
      "inputs": [
        {
          "internalType": "uint256",
          "name": "amount",
          "type": "uint256"
        }
      ],
      "name": "burn",
      "outputs": [],
      "stateMutability": "nonpayable",
      "type": "function"
    },
    {
      "inputs": [
        {
          "internalType": "address",
          "name": "account",
          "type": "address"
        },
        {
          "internalType": "uint256",
          "name": "amount",
          "type": "uint256"
        }
      ],
      "name": "burnFrom",
      "outputs": [],
      "stateMutability": "nonpayable",
      "type": "function"
    },
    {
      "inputs": [
        {
          "internalType": "address",
          "name": "ref",
          "type": "address"
        },
        {
          "internalType": "bool",
          "name": "isLeft",
          "type": "bool"
        },
        {
          "internalType": "uint256",
          "name": "amount",
          "type": "uint256"
        }
      ],
      "name": "buyICOByUSDT",
      "outputs": [],
      "stateMutability": "nonpayable",
      "type": "function"
    },
    {
      "inputs": [
        {
          "internalType": "uint256",
          "name": "round",
          "type": "uint256"
        }
      ],
      "name": "claimCommission",
      "outputs": [],
      "stateMutability": "nonpayable",
      "type": "function"
    },
    {
      "inputs": [],
      "name": "claimUSDT",
      "outputs": [],
      "stateMutability": "nonpayable",
      "type": "function"
    },
    {
      "inputs": [],
      "name": "closeIco",
      "outputs": [],
      "stateMutability": "nonpayable",
      "type": "function"
    },
    {
      "inputs": [],
      "name": "decimals",
      "outputs": [
        {
          "internalType": "uint8",
          "name": "",
          "type": "uint8"
        }
      ],
      "stateMutability": "view",
      "type": "function"
    },
    {
      "inputs": [
        {
          "internalType": "address",
          "name": "spender",
          "type": "address"
        },
        {
          "internalType": "uint256",
          "name": "subtractedValue",
          "type": "uint256"
        }
      ],
      "name": "decreaseAllowance",
      "outputs": [
        {
          "internalType": "bool",
          "name": "",
          "type": "bool"
        }
      ],
      "stateMutability": "nonpayable",
      "type": "function"
    },
    {
      "inputs": [],
      "name": "etherValue",
      "outputs": [
        {
          "internalType": "uint256",
          "name": "",
          "type": "uint256"
        }
      ],
      "stateMutability": "view",
      "type": "function"
    },
    {
      "inputs": [
        {
          "internalType": "uint256",
          "name": "_roundId",
          "type": "uint256"
        }
      ],
      "name": "getListUserByRoundId",
      "outputs": [
        {
          "internalType": "address[]",
          "name": "",
          "type": "address[]"
        }
      ],
      "stateMutability": "view",
      "type": "function"
    },
    {
      "inputs": [
        {
          "internalType": "uint256",
          "name": "_roundId",
          "type": "uint256"
        }
      ],
      "name": "getSoldbyRound",
      "outputs": [
        {
          "internalType": "uint256",
          "name": "",
          "type": "uint256"
        }
      ],
      "stateMutability": "view",
      "type": "function"
    },
    {
      "inputs": [],
      "name": "icoHasEnded",
      "outputs": [
        {
          "internalType": "bool",
          "name": "",
          "type": "bool"
        }
      ],
      "stateMutability": "view",
      "type": "function"
    },
    {
      "inputs": [
        {
          "internalType": "address",
          "name": "spender",
          "type": "address"
        },
        {
          "internalType": "uint256",
          "name": "addedValue",
          "type": "uint256"
        }
      ],
      "name": "increaseAllowance",
      "outputs": [
        {
          "internalType": "bool",
          "name": "",
          "type": "bool"
        }
      ],
      "stateMutability": "nonpayable",
      "type": "function"
    },
    {
      "inputs": [
        {
          "internalType": "address",
          "name": "_usdtContractAddress",
          "type": "address"
        },
        {
          "internalType": "address",
          "name": "_operatorAddress",
          "type": "address"
        },
        {
          "internalType": "address",
          "name": "_walletBackup",
          "type": "address"
        },
        {
          "internalType": "address",
          "name": "_walletMain",
          "type": "address"
        }
      ],
      "name": "initialize",
      "outputs": [],
      "stateMutability": "nonpayable",
      "type": "function"
    },
    {
      "inputs": [
        {
          "internalType": "address",
          "name": "to",
          "type": "address"
        },
        {
          "internalType": "uint256",
          "name": "amount",
          "type": "uint256"
        }
      ],
      "name": "mint",
      "outputs": [],
      "stateMutability": "nonpayable",
      "type": "function"
    },
    {
      "inputs": [],
      "name": "name",
      "outputs": [
        {
          "internalType": "string",
          "name": "",
          "type": "string"
        }
      ],
      "stateMutability": "view",
      "type": "function"
    },
    {
      "inputs": [],
      "name": "owner",
      "outputs": [
        {
          "internalType": "address",
          "name": "",
          "type": "address"
        }
      ],
      "stateMutability": "view",
      "type": "function"
    },
    {
      "inputs": [
        {
          "internalType": "uint256",
          "name": "",
          "type": "uint256"
        }
      ],
      "name": "pkgAmount",
      "outputs": [
        {
          "internalType": "uint256",
          "name": "",
          "type": "uint256"
        }
      ],
      "stateMutability": "view",
      "type": "function"
    },
    {
      "inputs": [
        {
          "internalType": "uint256",
          "name": "",
          "type": "uint256"
        }
      ],
      "name": "pkgRate",
      "outputs": [
        {
          "internalType": "uint256",
          "name": "",
          "type": "uint256"
        }
      ],
      "stateMutability": "view",
      "type": "function"
    },
    {
      "inputs": [],
      "name": "ratePerUSDT",
      "outputs": [
        {
          "internalType": "uint256",
          "name": "",
          "type": "uint256"
        }
      ],
      "stateMutability": "view",
      "type": "function"
    },
    {
      "inputs": [
        {
          "internalType": "address",
          "name": "",
          "type": "address"
        },
        {
          "internalType": "uint256",
          "name": "",
          "type": "uint256"
        }
      ],
      "name": "refInfo",
      "outputs": [
        {
          "internalType": "uint256",
          "name": "profit",
          "type": "uint256"
        },
        {
          "internalType": "uint256",
          "name": "maxProfit",
          "type": "uint256"
        },
        {
          "internalType": "uint256",
          "name": "profitClaimed",
          "type": "uint256"
        },
        {
          "internalType": "uint256",
          "name": "currentPackageSize",
          "type": "uint256"
        },
        {
          "internalType": "uint256",
          "name": "totalPackageSize",
          "type": "uint256"
        },
        {
          "internalType": "uint256",
          "name": "branchInvestment",
          "type": "uint256"
        },
        {
          "internalType": "uint256",
          "name": "commissionPercentage",
          "type": "uint256"
        },
        {
          "internalType": "uint256",
          "name": "totalCommissionProfit",
          "type": "uint256"
        },
        {
          "internalType": "bool",
          "name": "isCanBeRef",
          "type": "bool"
        },
        {
          "internalType": "address",
          "name": "ref",
          "type": "address"
        },
        {
          "internalType": "address",
          "name": "left",
          "type": "address"
        },
        {
          "internalType": "address",
          "name": "right",
          "type": "address"
        }
      ],
      "stateMutability": "view",
      "type": "function"
    },
    {
      "inputs": [
        {
          "internalType": "address",
          "name": "_address",
          "type": "address"
        }
      ],
      "name": "removeAddressFromBlacklist",
      "outputs": [],
      "stateMutability": "nonpayable",
      "type": "function"
    },
    {
      "inputs": [],
      "name": "renounceOwnership",
      "outputs": [],
      "stateMutability": "nonpayable",
      "type": "function"
    },
    {
      "inputs": [],
      "name": "roundId",
      "outputs": [
        {
          "internalType": "uint256",
          "name": "",
          "type": "uint256"
        }
      ],
      "stateMutability": "view",
      "type": "function"
    },
    {
      "inputs": [
        {
          "internalType": "uint256",
          "name": "_percent",
          "type": "uint256"
        }
      ],
      "name": "setDirectCommissionPercentage",
      "outputs": [],
      "stateMutability": "nonpayable",
      "type": "function"
    },
    {
      "inputs": [
        {
          "internalType": "address",
          "name": "_operatorAddress",
          "type": "address"
        }
      ],
      "name": "setOperator",
      "outputs": [],
      "stateMutability": "nonpayable",
      "type": "function"
    },
    {
      "inputs": [
        {
          "internalType": "uint256[]",
          "name": "_pkgAmount",
          "type": "uint256[]"
        },
        {
          "internalType": "uint256[]",
          "name": "_pkgRate",
          "type": "uint256[]"
        }
      ],
      "name": "setPkgRate",
      "outputs": [],
      "stateMutability": "nonpayable",
      "type": "function"
    },
    {
      "inputs": [
        {
          "internalType": "uint256",
          "name": "_startTimeICO",
          "type": "uint256"
        },
        {
          "internalType": "uint256",
          "name": "_totalAmount",
          "type": "uint256"
        },
        {
          "internalType": "uint256",
          "name": "_totalAmountPerUSDT",
          "type": "uint256"
        }
      ],
      "name": "setRoundInfo",
      "outputs": [],
      "stateMutability": "nonpayable",
      "type": "function"
    },
    {
      "inputs": [],
      "name": "startTimeICO",
      "outputs": [
        {
          "internalType": "uint256",
          "name": "",
          "type": "uint256"
        }
      ],
      "stateMutability": "view",
      "type": "function"
    },
    {
      "inputs": [],
      "name": "symbol",
      "outputs": [
        {
          "internalType": "string",
          "name": "",
          "type": "string"
        }
      ],
      "stateMutability": "view",
      "type": "function"
    },
    {
      "inputs": [],
      "name": "tokenUSDT",
      "outputs": [
        {
          "internalType": "contract IERC20Upgradeable",
          "name": "",
          "type": "address"
        }
      ],
      "stateMutability": "view",
      "type": "function"
    },
    {
      "inputs": [],
      "name": "totalAmount",
      "outputs": [
        {
          "internalType": "uint256",
          "name": "",
          "type": "uint256"
        }
      ],
      "stateMutability": "view",
      "type": "function"
    },
    {
      "inputs": [],
      "name": "totalSupply",
      "outputs": [
        {
          "internalType": "uint256",
          "name": "",
          "type": "uint256"
        }
      ],
      "stateMutability": "view",
      "type": "function"
    },
    {
      "inputs": [
        {
          "internalType": "address",
          "name": "to",
          "type": "address"
        },
        {
          "internalType": "uint256",
          "name": "amount",
          "type": "uint256"
        }
      ],
      "name": "transfer",
      "outputs": [
        {
          "internalType": "bool",
          "name": "",
          "type": "bool"
        }
      ],
      "stateMutability": "nonpayable",
      "type": "function"
    },
    {
      "inputs": [
        {
          "internalType": "address",
          "name": "from",
          "type": "address"
        },
        {
          "internalType": "address",
          "name": "to",
          "type": "address"
        },
        {
          "internalType": "uint256",
          "name": "amount",
          "type": "uint256"
        }
      ],
      "name": "transferFrom",
      "outputs": [
        {
          "internalType": "bool",
          "name": "",
          "type": "bool"
        }
      ],
      "stateMutability": "nonpayable",
      "type": "function"
    },
    {
      "inputs": [
        {
          "internalType": "address",
          "name": "newOwner",
          "type": "address"
        }
      ],
      "name": "transferOwnership",
      "outputs": [],
      "stateMutability": "nonpayable",
      "type": "function"
    }
  ],
  "bytecode": "0x608060405234801561001057600080fd5b50615da680620000216000396000f3fe608060405234801561001057600080fd5b50600436106102535760003560e01c80638eca493a11610146578063c6cc51d3116100c3578063dd62ed3e11610087578063dd62ed3e146106d6578063ebfd3e0414610706578063f2c816ae14610741578063f2fde38b1461075d578063f8c8765e14610779578063f9f92be41461079557610253565b8063c6cc51d314610646578063d2e90d0f14610662578063d3abfc0614610680578063d49802571461069e578063d8ef5f5f146106ba57610253565b8063a457c2d71161010a578063a457c2d71461056a578063a9059cbb1461059a578063ab3ebabe146105ca578063afd768ac146105fa578063b3ab15fb1461062a57610253565b80638eca493a146104d657806395d89b41146104f257806399c5c8aa146105105780639c111aa41461052e5780639fac9abf1461054c57610253565b806342966c68116101d45780637564ac38116101985780637564ac381461045857806379cc6790146104625780637cf55ca51461047e5780638cd221c91461049a5780638da5cb5b146104b857610253565b806342966c68146103c857806348546971146103e4578063663c166e146103ee57806370a082311461041e578063715018a61461044e57610253565b806323b872dd1161021b57806323b872dd14610312578063313ce5671461034257806335e82f3a14610360578063395093511461037c57806340c10f19146103ac57610253565b806306fdde0314610258578063095ea7b31461027657806314fd0c0a146102a657806318160ddd146102d65780631a39d8ef146102f4575b600080fd5b6102606107c5565b60405161026d919061453f565b60405180910390f35b610290600480360381019061028b9190614609565b610857565b60405161029d9190614664565b60405180910390f35b6102c060048036038101906102bb919061467f565b61087a565b6040516102cd91906146bb565b60405180910390f35b6102de610895565b6040516102eb91906146bb565b60405180910390f35b6102fc61089f565b60405161030991906146bb565b60405180910390f35b61032c600480360381019061032791906146d6565b6108a5565b6040516103399190614664565b60405180910390f35b61034a6108d4565b6040516103579190614745565b60405180910390f35b61037a60048036038101906103759190614760565b6108dd565b005b61039660048036038101906103919190614609565b610a2b565b6040516103a39190614664565b60405180910390f35b6103c660048036038101906103c19190614609565b610a62565b005b6103e260048036038101906103dd919061467f565b610a78565b005b6103ec610a8c565b005b6104086004803603810190610403919061467f565b610b35565b60405161041591906146bb565b60405180910390f35b61043860048036038101906104339190614760565b610b52565b60405161044591906146bb565b60405180910390f35b610456610b9b565b005b610460610baf565b005b61047c60048036038101906104779190614609565b610cfb565b005b610498600480360381019061049391906147b9565b610d1b565b005b6104a2610ebb565b6040516104af91906146bb565b60405180910390f35b6104c0610ec1565b6040516104cd919061481b565b60405180910390f35b6104f060048036038101906104eb919061467f565b610eeb565b005b6104fa611171565b604051610507919061453f565b60405180910390f35b610518611203565b6040516105259190614895565b60405180910390f35b610536611229565b60405161054391906146bb565b60405180910390f35b61055461122f565b6040516105619190614664565b60405180910390f35b610584600480360381019061057f9190614609565b611242565b6040516105919190614664565b60405180910390f35b6105b460048036038101906105af9190614609565b6112b9565b6040516105c19190614664565b60405180910390f35b6105e460048036038101906105df919061467f565b6112dc565b6040516105f1919061496e565b60405180910390f35b610614600480360381019061060f919061467f565b61137d565b60405161062191906146bb565b60405180910390f35b610644600480360381019061063f9190614760565b611398565b005b610660600480360381019061065b9190614990565b61146b565b005b61066a61161a565b60405161067791906146bb565b60405180910390f35b610688611620565b60405161069591906146bb565b60405180910390f35b6106b860048036038101906106b3919061467f565b611626565b005b6106d460048036038101906106cf9190614b2b565b611719565b005b6106f060048036038101906106eb9190614ba3565b611939565b6040516106fd91906146bb565b60405180910390f35b610720600480360381019061071b9190614609565b6119c0565b6040516107389c9b9a99989796959493929190614be3565b60405180910390f35b61075b60048036038101906107569190614760565b611a9a565b005b61077760048036038101906107729190614760565b611bf1565b005b610793600480360381019061078e9190614c9d565b611c75565b005b6107af60048036038101906107aa9190614760565b612007565b6040516107bc9190614664565b60405180910390f35b6060603680546107d490614d33565b80601f016020809104026020016040519081016040528092919081815260200182805461080090614d33565b801561084d5780601f106108225761010080835404028352916020019161084d565b820191906000526020600020905b81548152906001019060200180831161083057829003601f168201915b5050505050905090565b600080610862612027565b905061086f81858561202f565b600191505092915050565b60d9816005811061088a57600080fd5b016000915090505481565b6000603554905090565b60d15481565b6000806108b0612027565b90506108bd8582856121fa565b6108c8858585612286565b60019150509392505050565b60006012905090565b60e360003373ffffffffffffffffffffffffffffffffffffffff1673ffffffffffffffffffffffffffffffffffffffff16815260200190815260200160002060009054906101000a900460ff16610969576040517f08c379a000000000000000000000000000000000000000000000000000000000815260040161096090614db1565b60405180910390fd5b600073ffffffffffffffffffffffffffffffffffffffff168173ffffffffffffffffffffffffffffffffffffffff1614156109d9576040517f08c379a00000000000000000000000000000000000000000000000000000000081526004016109d090614e1d565b60405180910390fd5b60e460008273ffffffffffffffffffffffffffffffffffffffff1673ffffffffffffffffffffffffffffffffffffffff16815260200190815260200160002060006101000a81549060ff021916905550565b600080610a36612027565b9050610a57818585610a488589611939565b610a529190614e6c565b61202f565b600191505092915050565b610a6a61250a565b610a748282612588565b5050565b610a89610a83612027565b826126e9565b50565b60e360003373ffffffffffffffffffffffffffffffffffffffff1673ffffffffffffffffffffffffffffffffffffffff16815260200190815260200160002060009054906101000a900460ff16610b18576040517f08c379a0000000000000000000000000000000000000000000000000000000008152600401610b0f90614db1565b60405180910390fd5b600160de60006101000a81548160ff021916908315150217905550565b600060df6000838152602001908152602001600020549050919050565b6000603360008373ffffffffffffffffffffffffffffffffffffffff1673ffffffffffffffffffffffffffffffffffffffff168152602001908152602001600020549050919050565b610ba361250a565b610bad60006128c2565b565b610bb761250a565b600060cc60009054906101000a900473ffffffffffffffffffffffffffffffffffffffff1673ffffffffffffffffffffffffffffffffffffffff166370a08231306040518263ffffffff1660e01b8152600401610c14919061481b565b602060405180830381865afa158015610c31573d6000803e3d6000fd5b505050506040513d601f19601f82011682018060405250810190610c559190614ed7565b905060cc60009054906101000a900473ffffffffffffffffffffffffffffffffffffffff1673ffffffffffffffffffffffffffffffffffffffff1663a9059cbb33836040518363ffffffff1660e01b8152600401610cb4929190614f04565b6020604051808303816000875af1158015610cd3573d6000803e3d6000fd5b505050506040513d601f19601f82011682018060405250810190610cf79190614f42565b5050565b610d0d82610d07612027565b836121fa565b610d1782826126e9565b5050565b6000610d25612027565b9050610d3081612988565b610d38612a29565b60e060008273ffffffffffffffffffffffffffffffffffffffff1673ffffffffffffffffffffffffffffffffffffffff168152602001908152602001600020600060d054815260200190815260200160002060080160009054906101000a900460ff16610db057610dab81858585612b71565b610dbb565b610dba8183612dda565b5b600060d35483610dcb9190614f6f565b905060cc60009054906101000a900473ffffffffffffffffffffffffffffffffffffffff1673ffffffffffffffffffffffffffffffffffffffff166323b872dd8330866040518463ffffffff1660e01b8152600401610e2c93929190614fc9565b6020604051808303816000875af1158015610e4b573d6000803e3d6000fd5b505050506040513d601f19601f82011682018060405250810190610e6f9190614f42565b50610e7b828285612fb5565b7f588b5112eade36803f912bc8ff71857e84630503b5bd9bb4c9f546e437b71cd78284604051610eac929190614f04565b60405180910390a15050505050565b60d05481565b6000609760009054906101000a900473ffffffffffffffffffffffffffffffffffffffff16905090565b6000610ef5612027565b905060008060e060008473ffffffffffffffffffffffffffffffffffffffff1673ffffffffffffffffffffffffffffffffffffffff16815260200190815260200160002060008581526020019081526020016000209050600060cc60009054906101000a900473ffffffffffffffffffffffffffffffffffffffff1673ffffffffffffffffffffffffffffffffffffffff166370a0823160cf60009054906101000a900473ffffffffffffffffffffffffffffffffffffffff166040518263ffffffff1660e01b8152600401610fcb919061481b565b602060405180830381865afa158015610fe8573d6000803e3d6000fd5b505050506040513d601f19601f8201168201806040525081019061100c9190614ed7565b905081600101548260000154111561102a5781600101549250611032565b816000015492505b60008260020154846110449190615000565b905081811115611089576040517f08c379a0000000000000000000000000000000000000000000000000000000008152600401611080906150a6565b60405180910390fd5b60cc60009054906101000a900473ffffffffffffffffffffffffffffffffffffffff1673ffffffffffffffffffffffffffffffffffffffff166323b872dd60cf60009054906101000a900473ffffffffffffffffffffffffffffffffffffffff1687846040518463ffffffff1660e01b815260040161110a93929190614fc9565b6020604051808303816000875af1158015611129573d6000803e3d6000fd5b505050506040513d601f19601f8201168201806040525081019061114d9190614f42565b50808360020160008282546111629190614e6c565b92505081905550505050505050565b60606037805461118090614d33565b80601f01602080910402602001604051908101604052809291908181526020018280546111ac90614d33565b80156111f95780601f106111ce576101008083540402835291602001916111f9565b820191906000526020600020905b8154815290600101906020018083116111dc57829003601f168201915b5050505050905090565b60cc60009054906101000a900473ffffffffffffffffffffffffffffffffffffffff1681565b60d35481565b60de60009054906101000a900460ff1681565b60008061124d612027565b9050600061125b8286611939565b9050838110156112a0576040517f08c379a000000000000000000000000000000000000000000000000000000000815260040161129790615138565b60405180910390fd5b6112ad828686840361202f565b60019250505092915050565b6000806112c4612027565b90506112d1818585612286565b600191505092915050565b606060e1600083815260200190815260200160002080548060200260200160405190810160405280929190818152602001828054801561137157602002820191906000526020600020905b8160009054906101000a900473ffffffffffffffffffffffffffffffffffffffff1673ffffffffffffffffffffffffffffffffffffffff1681526020019060010190808311611327575b50505050509050919050565b60d4816005811061138d57600080fd5b016000915090505481565b6113a061250a565b600073ffffffffffffffffffffffffffffffffffffffff168173ffffffffffffffffffffffffffffffffffffffff161415611410576040517f08c379a0000000000000000000000000000000000000000000000000000000008152600401611407906151a4565b60405180910390fd5b600160e360008373ffffffffffffffffffffffffffffffffffffffff1673ffffffffffffffffffffffffffffffffffffffff16815260200190815260200160002060006101000a81548160ff02191690831515021790555050565b60e360003373ffffffffffffffffffffffffffffffffffffffff1673ffffffffffffffffffffffffffffffffffffffff16815260200190815260200160002060009054906101000a900460ff166114f7576040517f08c379a00000000000000000000000000000000000000000000000000000000081526004016114ee90614db1565b60405180910390fd5b428311611539576040517f08c379a000000000000000000000000000000000000000000000000000000000815260040161153090615210565b60405180910390fd5b6000811161157c576040517f08c379a00000000000000000000000000000000000000000000000000000000081526004016115739061527c565b60405180910390fd5b60de60009054906101000a900460ff166115cb576040517f08c379a00000000000000000000000000000000000000000000000000000000081526004016115c2906152e8565b60405180910390fd5b600160d060008282546115de9190614e6c565b925050819055508160d1819055508260d2819055508060d381905550600060de60006101000a81548160ff021916908315150217905550505050565b60d25481565b60cb5481565b60e360003373ffffffffffffffffffffffffffffffffffffffff1673ffffffffffffffffffffffffffffffffffffffff16815260200190815260200160002060009054906101000a900460ff166116b2576040517f08c379a00000000000000000000000000000000000000000000000000000000081526004016116a990614db1565b60405180910390fd5b600181101580156116c4575060648111155b611703576040517f08c379a00000000000000000000000000000000000000000000000000000000081526004016116fa9061537a565b60405180910390fd5b6064816117109190614f6f565b60ca8190555050565b8160008151811061172d5761172c61539a565b5b602002602001015160d460006005811061174a5761174961539a565b5b0181905550816001815181106117635761176261539a565b5b602002602001015160d46001600581106117805761177f61539a565b5b0181905550816002815181106117995761179861539a565b5b602002602001015160d46002600581106117b6576117b561539a565b5b0181905550816003815181106117cf576117ce61539a565b5b602002602001015160d46003600581106117ec576117eb61539a565b5b0181905550816004815181106118055761180461539a565b5b602002602001015160d46004600581106118225761182161539a565b5b01819055508060008151811061183b5761183a61539a565b5b602002602001015160d96000600581106118585761185761539a565b5b0181905550806001815181106118715761187061539a565b5b602002602001015160d960016005811061188e5761188d61539a565b5b0181905550806002815181106118a7576118a661539a565b5b602002602001015160d96002600581106118c4576118c361539a565b5b0181905550806003815181106118dd576118dc61539a565b5b602002602001015160d96003600581106118fa576118f961539a565b5b0181905550806004815181106119135761191261539a565b5b602002602001015160d96004600581106119305761192f61539a565b5b01819055505050565b6000603460008473ffffffffffffffffffffffffffffffffffffffff1673ffffffffffffffffffffffffffffffffffffffff16815260200190815260200160002060008373ffffffffffffffffffffffffffffffffffffffff1673ffffffffffffffffffffffffffffffffffffffff16815260200190815260200160002054905092915050565b60e0602052816000526040600020602052806000526040600020600091509150508060000154908060010154908060020154908060030154908060040154908060050154908060060154908060070154908060080160009054906101000a900460ff16908060080160019054906101000a900473ffffffffffffffffffffffffffffffffffffffff16908060090160009054906101000a900473ffffffffffffffffffffffffffffffffffffffff169080600a0160009054906101000a900473ffffffffffffffffffffffffffffffffffffffff1690508c565b60e360003373ffffffffffffffffffffffffffffffffffffffff1673ffffffffffffffffffffffffffffffffffffffff16815260200190815260200160002060009054906101000a900460ff16611b26576040517f08c379a0000000000000000000000000000000000000000000000000000000008152600401611b1d90614db1565b60405180910390fd5b600073ffffffffffffffffffffffffffffffffffffffff168173ffffffffffffffffffffffffffffffffffffffff161415611b96576040517f08c379a0000000000000000000000000000000000000000000000000000000008152600401611b8d90614e1d565b60405180910390fd5b600160e460008373ffffffffffffffffffffffffffffffffffffffff1673ffffffffffffffffffffffffffffffffffffffff16815260200190815260200160002060006101000a81548160ff02191690831515021790555050565b611bf961250a565b600073ffffffffffffffffffffffffffffffffffffffff168173ffffffffffffffffffffffffffffffffffffffff161415611c69576040517f08c379a0000000000000000000000000000000000000000000000000000000008152600401611c609061543b565b60405180910390fd5b611c72816128c2565b50565b60008060019054906101000a900460ff16159050808015611ca65750600160008054906101000a900460ff1660ff16105b80611cd35750611cb530613188565b158015611cd25750600160008054906101000a900460ff1660ff16145b5b611d12576040517f08c379a0000000000000000000000000000000000000000000000000000000008152600401611d09906154cd565b60405180910390fd5b60016000806101000a81548160ff021916908360ff1602179055508015611d4f576001600060016101000a81548160ff0219169083151502179055505b600073ffffffffffffffffffffffffffffffffffffffff168573ffffffffffffffffffffffffffffffffffffffff161415611dbf576040517f08c379a0000000000000000000000000000000000000000000000000000000008152600401611db690615539565b60405180910390fd5b611e336040518060400160405280600681526020017f536f6d65466900000000000000000000000000000000000000000000000000008152506040518060400160405280600481526020017f534f4649000000000000000000000000000000000000000000000000000000008152506131ab565b611e3b613208565b611e50336a084595161401484a000000612588565b8460cc60006101000a81548173ffffffffffffffffffffffffffffffffffffffff021916908373ffffffffffffffffffffffffffffffffffffffff160217905550600160e360008673ffffffffffffffffffffffffffffffffffffffff1673ffffffffffffffffffffffffffffffffffffffff16815260200190815260200160002060006101000a81548160ff021916908315150217905550600160de60006101000a81548160ff0219169083151502179055508260ce60016101000a81548173ffffffffffffffffffffffffffffffffffffffff021916908373ffffffffffffffffffffffffffffffffffffffff1602179055508160cf60006101000a81548173ffffffffffffffffffffffffffffffffffffffff021916908373ffffffffffffffffffffffffffffffffffffffff16021790555061271060c98190555061138860ca81905550670de0b6b3a764000060cb8190555080156120005760008060016101000a81548160ff0219169083151502179055507f7f26b83ff96e1f2b6a682f133852f6798a09c465da95921460cefb38474024986001604051611ff79190615594565b60405180910390a15b5050505050565b60e46020528060005260406000206000915054906101000a900460ff1681565b600033905090565b600073ffffffffffffffffffffffffffffffffffffffff168373ffffffffffffffffffffffffffffffffffffffff16141561209f576040517f08c379a000000000000000000000000000000000000000000000000000000000815260040161209690615621565b60405180910390fd5b600073ffffffffffffffffffffffffffffffffffffffff168273ffffffffffffffffffffffffffffffffffffffff16141561210f576040517f08c379a0000000000000000000000000000000000000000000000000000000008152600401612106906156b3565b60405180910390fd5b80603460008573ffffffffffffffffffffffffffffffffffffffff1673ffffffffffffffffffffffffffffffffffffffff16815260200190815260200160002060008473ffffffffffffffffffffffffffffffffffffffff1673ffffffffffffffffffffffffffffffffffffffff168152602001908152602001600020819055508173ffffffffffffffffffffffffffffffffffffffff168373ffffffffffffffffffffffffffffffffffffffff167f8c5be1e5ebec7d5bd14f71427d1e84f3dd0314c0f7b2291e5b200ac8c7c3b925836040516121ed91906146bb565b60405180910390a3505050565b60006122068484611939565b90507fffffffffffffffffffffffffffffffffffffffffffffffffffffffffffffffff81146122805781811015612272576040517f08c379a00000000000000000000000000000000000000000000000000000000081526004016122699061571f565b60405180910390fd5b61227f848484840361202f565b5b50505050565b600073ffffffffffffffffffffffffffffffffffffffff168373ffffffffffffffffffffffffffffffffffffffff1614156122f6576040517f08c379a00000000000000000000000000000000000000000000000000000000081526004016122ed906157b1565b60405180910390fd5b600073ffffffffffffffffffffffffffffffffffffffff168273ffffffffffffffffffffffffffffffffffffffff161415612366576040517f08c379a000000000000000000000000000000000000000000000000000000000815260040161235d90615843565b60405180910390fd5b612371838383613261565b6000603360008573ffffffffffffffffffffffffffffffffffffffff1673ffffffffffffffffffffffffffffffffffffffff168152602001908152602001600020549050818110156123f8576040517f08c379a00000000000000000000000000000000000000000000000000000000081526004016123ef906158d5565b60405180910390fd5b818103603360008673ffffffffffffffffffffffffffffffffffffffff1673ffffffffffffffffffffffffffffffffffffffff1681526020019081526020016000208190555081603360008573ffffffffffffffffffffffffffffffffffffffff1673ffffffffffffffffffffffffffffffffffffffff168152602001908152602001600020600082825461248d9190614e6c565b925050819055508273ffffffffffffffffffffffffffffffffffffffff168473ffffffffffffffffffffffffffffffffffffffff167fddf252ad1be2c89b69c2b068fc378daa952ba7f163c4a11628f55a4df523b3ef846040516124f191906146bb565b60405180910390a3612504848484613266565b50505050565b612512612027565b73ffffffffffffffffffffffffffffffffffffffff16612530610ec1565b73ffffffffffffffffffffffffffffffffffffffff1614612586576040517f08c379a000000000000000000000000000000000000000000000000000000000815260040161257d90615941565b60405180910390fd5b565b600073ffffffffffffffffffffffffffffffffffffffff168273ffffffffffffffffffffffffffffffffffffffff1614156125f8576040517f08c379a00000000000000000000000000000000000000000000000000000000081526004016125ef906159ad565b60405180910390fd5b61260460008383613261565b80603560008282546126169190614e6c565b9250508190555080603360008473ffffffffffffffffffffffffffffffffffffffff1673ffffffffffffffffffffffffffffffffffffffff168152602001908152602001600020600082825461266c9190614e6c565b925050819055508173ffffffffffffffffffffffffffffffffffffffff16600073ffffffffffffffffffffffffffffffffffffffff167fddf252ad1be2c89b69c2b068fc378daa952ba7f163c4a11628f55a4df523b3ef836040516126d191906146bb565b60405180910390a36126e560008383613266565b5050565b600073ffffffffffffffffffffffffffffffffffffffff168273ffffffffffffffffffffffffffffffffffffffff161415612759576040517f08c379a000000000000000000000000000000000000000000000000000000000815260040161275090615a3f565b60405180910390fd5b61276582600083613261565b6000603360008473ffffffffffffffffffffffffffffffffffffffff1673ffffffffffffffffffffffffffffffffffffffff168152602001908152602001600020549050818110156127ec576040517f08c379a00000000000000000000000000000000000000000000000000000000081526004016127e390615ad1565b60405180910390fd5b818103603360008573ffffffffffffffffffffffffffffffffffffffff1673ffffffffffffffffffffffffffffffffffffffff1681526020019081526020016000208190555081603560008282546128449190615000565b92505081905550600073ffffffffffffffffffffffffffffffffffffffff168373ffffffffffffffffffffffffffffffffffffffff167fddf252ad1be2c89b69c2b068fc378daa952ba7f163c4a11628f55a4df523b3ef846040516128a991906146bb565b60405180910390a36128bd83600084613266565b505050565b6000609760009054906101000a900473ffffffffffffffffffffffffffffffffffffffff16905081609760006101000a81548173ffffffffffffffffffffffffffffffffffffffff021916908373ffffffffffffffffffffffffffffffffffffffff1602179055508173ffffffffffffffffffffffffffffffffffffffff168173ffffffffffffffffffffffffffffffffffffffff167f8be0079c531659141344cd1fd0a4f28419497f9722a3daafe3b4186f6b6457e060405160405180910390a35050565b60d2544210156129cd576040517f08c379a00000000000000000000000000000000000000000000000000000000081526004016129c490615b3d565b60405180910390fd5b60de60009054906101000a900460ff1615612a1d576040517f08c379a0000000000000000000000000000000000000000000000000000000008152600401612a1490615ba9565b60405180910390fd5b612a268161326b565b50565b60e260003373ffffffffffffffffffffffffffffffffffffffff1673ffffffffffffffffffffffffffffffffffffffff168152602001908152602001600020600060d054815260200190815260200160002060009054906101000a900460ff16612b6f57600160e260003373ffffffffffffffffffffffffffffffffffffffff1673ffffffffffffffffffffffffffffffffffffffff168152602001908152602001600020600060d054815260200190815260200160002060006101000a81548160ff02191690831515021790555060e1600060d0548152602001908152602001600020339080600181540180825580915050600190039060005260206000200160009091909190916101000a81548173ffffffffffffffffffffffffffffffffffffffff021916908373ffffffffffffffffffffffffffffffffffffffff1602179055505b565b6000806000612b7f8461336b565b925092509250600060e060008973ffffffffffffffffffffffffffffffffffffffff1673ffffffffffffffffffffffffffffffffffffffff168152602001908152602001600020600060d0548152602001908152602001600020905083816001018190555060018160080160006101000a81548160ff02191690831515021790555081816003018190555081816004018190555082816006018190555081816005016000828254612c309190614e6c565b92505081905550600073ffffffffffffffffffffffffffffffffffffffff168773ffffffffffffffffffffffffffffffffffffffff1614612dd057612c74876136ab565b612c7e8787613836565b868160080160016101000a81548173ffffffffffffffffffffffffffffffffffffffff021916908373ffffffffffffffffffffffffffffffffffffffff160217905550600060e060008973ffffffffffffffffffffffffffffffffffffffff1673ffffffffffffffffffffffffffffffffffffffff168152602001908152602001600020600060d0548152602001908152602001600020905082816005016000828254612d2b9190614e6c565b925050819055508615612d8057888160090160006101000a81548173ffffffffffffffffffffffffffffffffffffffff021916908373ffffffffffffffffffffffffffffffffffffffff160217905550612dc4565b8881600a0160006101000a81548173ffffffffffffffffffffffffffffffffffffffff021916908373ffffffffffffffffffffffffffffffffffffffff1602179055505b612dcd896139b1565b50505b5050505050505050565b6000806000612de88461336b565b925092509250600060e060008773ffffffffffffffffffffffffffffffffffffffff1673ffffffffffffffffffffffffffffffffffffffff168152602001908152602001600020600060d05481526020019081526020016000209050600060e060008360080160019054906101000a900473ffffffffffffffffffffffffffffffffffffffff1673ffffffffffffffffffffffffffffffffffffffff1673ffffffffffffffffffffffffffffffffffffffff168152602001908152602001600020600060d0548152602001908152602001600020905084826001016000828254612ed29190614e6c565b9250508190555082826005016000828254612eed9190614e6c565b9250508190555082826004016000828254612f089190614e6c565b9250508190555082816005016000828254612f239190614e6c565b925050819055508160060154841115612f49578382600601819055508282600301819055505b600073ffffffffffffffffffffffffffffffffffffffff168260080160019054906101000a900473ffffffffffffffffffffffffffffffffffffffff1673ffffffffffffffffffffffffffffffffffffffff1614612fac57612faa876139b1565b505b50505050505050565b6000600282612fc49190615bf8565b90508260df600060d05481526020019081526020016000206000828254612feb9190614e6c565b92505081905550612ffc8484612588565b60cc60009054906101000a900473ffffffffffffffffffffffffffffffffffffffff1673ffffffffffffffffffffffffffffffffffffffff1663a9059cbb60ce60019054906101000a900473ffffffffffffffffffffffffffffffffffffffff16836040518363ffffffff1660e01b815260040161307b929190614f04565b6020604051808303816000875af115801561309a573d6000803e3d6000fd5b505050506040513d601f19601f820116820180604052508101906130be9190614f42565b5060cc60009054906101000a900473ffffffffffffffffffffffffffffffffffffffff1673ffffffffffffffffffffffffffffffffffffffff1663a9059cbb60cf60009054906101000a900473ffffffffffffffffffffffffffffffffffffffff16836040518363ffffffff1660e01b815260040161313e929190614f04565b6020604051808303816000875af115801561315d573d6000803e3d6000fd5b505050506040513d601f19601f820116820180604052508101906131819190614f42565b5050505050565b6000808273ffffffffffffffffffffffffffffffffffffffff163b119050919050565b600060019054906101000a900460ff166131fa576040517f08c379a00000000000000000000000000000000000000000000000000000000081526004016131f190615c9b565b60405180910390fd5b61320482826140e8565b5050565b600060019054906101000a900460ff16613257576040517f08c379a000000000000000000000000000000000000000000000000000000000815260040161324e90615c9b565b60405180910390fd5b61325f614169565b565b505050565b505050565b600073ffffffffffffffffffffffffffffffffffffffff168173ffffffffffffffffffffffffffffffffffffffff1614156132db576040517f08c379a00000000000000000000000000000000000000000000000000000000081526004016132d290614e1d565b60405180910390fd5b60e460008273ffffffffffffffffffffffffffffffffffffffff1673ffffffffffffffffffffffffffffffffffffffff16815260200190815260200160002060009054906101000a900460ff1615613368576040517f08c379a000000000000000000000000000000000000000000000000000000000815260040161335f90615d07565b60405180910390fd5b50565b6000806000806000905060008060cb5460d46004600581106133905761338f61539a565b5b015461339c9190614f6f565b87106134185760cb54600360d46004600581106133bc576133bb61539a565b5b01546133c89190614f6f565b6133d29190614f6f565b925060d96004600581106133e9576133e861539a565b5b0154915060cb5460d46004600581106134055761340461539a565b5b01546134119190614f6f565b9050613698565b60cb5460d46003600581106134305761342f61539a565b5b015461343c9190614f6f565b87106134b85760cb54600360d460036005811061345c5761345b61539a565b5b01546134689190614f6f565b6134729190614f6f565b925060d96003600581106134895761348861539a565b5b0154915060cb5460d46003600581106134a5576134a461539a565b5b01546134b19190614f6f565b9050613697565b60cb5460d46002600581106134d0576134cf61539a565b5b01546134dc9190614f6f565b87106135585760cb54600360d46002600581106134fc576134fb61539a565b5b01546135089190614f6f565b6135129190614f6f565b925060d96002600581106135295761352861539a565b5b0154915060cb5460d46002600581106135455761354461539a565b5b01546135519190614f6f565b9050613696565b60cb5460d46001600581106135705761356f61539a565b5b015461357c9190614f6f565b87106135f85760cb54600360d460016005811061359c5761359b61539a565b5b01546135a89190614f6f565b6135b29190614f6f565b925060d96001600581106135c9576135c861539a565b5b0154915060cb5460d46001600581106135e5576135e461539a565b5b01546135f19190614f6f565b9050613695565b60cb5460d46000600581106136105761360f61539a565b5b015461361c9190614f6f565b87106136945760cb54600360d460006005811061363c5761363b61539a565b5b01546136489190614f6f565b6136529190614f6f565b925060d96000600581106136695761366861539a565b5b0154915060cb5460d46000600581106136855761368461539a565b5b01546136919190614f6f565b90505b5b5b5b5b8282829550955095505050509193909250565b600060e060008373ffffffffffffffffffffffffffffffffffffffff1673ffffffffffffffffffffffffffffffffffffffff168152602001908152602001600020600060d054815260200190815260200160002090508060080160009054906101000a900460ff16613749576040517f0aa59f6e00000000000000000000000000000000000000000000000000000000815260040160405180910390fd5b600073ffffffffffffffffffffffffffffffffffffffff168160090160009054906101000a900473ffffffffffffffffffffffffffffffffffffffff1673ffffffffffffffffffffffffffffffffffffffff16141580156137fb5750600073ffffffffffffffffffffffffffffffffffffffff1681600a0160009054906101000a900473ffffffffffffffffffffffffffffffffffffffff1673ffffffffffffffffffffffffffffffffffffffff1614155b15613832576040517f9df1595200000000000000000000000000000000000000000000000000000000815260040160405180910390fd5b5050565b600060e060008473ffffffffffffffffffffffffffffffffffffffff1673ffffffffffffffffffffffffffffffffffffffff168152602001908152602001600020600060d05481526020019081526020016000209050811561392157600073ffffffffffffffffffffffffffffffffffffffff168160090160009054906101000a900473ffffffffffffffffffffffffffffffffffffffff1673ffffffffffffffffffffffffffffffffffffffff161461391c576040517f66dc1e6000000000000000000000000000000000000000000000000000000000815260040160405180910390fd5b6139ac565b600073ffffffffffffffffffffffffffffffffffffffff1681600a0160009054906101000a900473ffffffffffffffffffffffffffffffffffffffff1673ffffffffffffffffffffffffffffffffffffffff16146139ab576040517f66dc1e6000000000000000000000000000000000000000000000000000000000815260040160405180910390fd5b5b505050565b60008060e060008473ffffffffffffffffffffffffffffffffffffffff1673ffffffffffffffffffffffffffffffffffffffff168152602001908152602001600020600060d05481526020019081526020016000209050600083905060005b600073ffffffffffffffffffffffffffffffffffffffff168360080160019054906101000a900473ffffffffffffffffffffffffffffffffffffffff1673ffffffffffffffffffffffffffffffffffffffff1614158015613a715750600a81105b156140dd57600060e060008560080160019054906101000a900473ffffffffffffffffffffffffffffffffffffffff1673ffffffffffffffffffffffffffffffffffffffff1673ffffffffffffffffffffffffffffffffffffffff168152602001908152602001600020600060d0548152602001908152602001600020905060e0600082600a0160009054906101000a900473ffffffffffffffffffffffffffffffffffffffff1673ffffffffffffffffffffffffffffffffffffffff1673ffffffffffffffffffffffffffffffffffffffff168152602001908152602001600020600060d05481526020019081526020016000206005015460e060008360090160009054906101000a900473ffffffffffffffffffffffffffffffffffffffff1673ffffffffffffffffffffffffffffffffffffffff1673ffffffffffffffffffffffffffffffffffffffff168152602001908152602001600020600060d0548152602001908152602001600020600501548260040154613bf39190614e6c565b613bfd9190614e6c565b81600501819055508060090160009054906101000a900473ffffffffffffffffffffffffffffffffffffffff1673ffffffffffffffffffffffffffffffffffffffff168373ffffffffffffffffffffffffffffffffffffffff161415613e7257600073ffffffffffffffffffffffffffffffffffffffff1681600a0160009054906101000a900473ffffffffffffffffffffffffffffffffffffffff1673ffffffffffffffffffffffffffffffffffffffff1614613e6d57600060e0600083600a0160009054906101000a900473ffffffffffffffffffffffffffffffffffffffff1673ffffffffffffffffffffffffffffffffffffffff1673ffffffffffffffffffffffffffffffffffffffff168152602001908152602001600020600060d05481526020019081526020016000209050806005015485600501541115613de957613d928560080160019054906101000a900473ffffffffffffffffffffffffffffffffffffffff1683600a0160009054906101000a900473ffffffffffffffffffffffffffffffffffffffff16866141ca565b613de48560080160019054906101000a900473ffffffffffffffffffffffffffffffffffffffff1683600a0160009054906101000a900473ffffffffffffffffffffffffffffffffffffffff1661431b565b613e6b565b613e3c8560080160019054906101000a900473ffffffffffffffffffffffffffffffffffffffff168584600a0160009054906101000a900473ffffffffffffffffffffffffffffffffffffffff166141ca565b613e6a8560080160019054906101000a900473ffffffffffffffffffffffffffffffffffffffff168561431b565b5b505b61402a565b600060e060008360090160009054906101000a900473ffffffffffffffffffffffffffffffffffffffff1673ffffffffffffffffffffffffffffffffffffffff1673ffffffffffffffffffffffffffffffffffffffff168152602001908152602001600020600060d05481526020019081526020016000209050806005015485600501541115613fa657613f4f8560080160019054906101000a900473ffffffffffffffffffffffffffffffffffffffff168360090160009054906101000a900473ffffffffffffffffffffffffffffffffffffffff16866141ca565b613fa18560080160019054906101000a900473ffffffffffffffffffffffffffffffffffffffff168360090160009054906101000a900473ffffffffffffffffffffffffffffffffffffffff1661431b565b614028565b613ff98560080160019054906101000a900473ffffffffffffffffffffffffffffffffffffffff16858460090160009054906101000a900473ffffffffffffffffffffffffffffffffffffffff166141ca565b6140278560080160019054906101000a900473ffffffffffffffffffffffffffffffffffffffff168561431b565b5b505b8360080160019054906101000a900473ffffffffffffffffffffffffffffffffffffffff16925060e060008560080160019054906101000a900473ffffffffffffffffffffffffffffffffffffffff1673ffffffffffffffffffffffffffffffffffffffff1673ffffffffffffffffffffffffffffffffffffffff168152602001908152602001600020600060d0548152602001908152602001600020935081806140d490615d27565b92505050613a10565b809350505050919050565b600060019054906101000a900460ff16614137576040517f08c379a000000000000000000000000000000000000000000000000000000000815260040161412e90615c9b565b60405180910390fd5b816036908051906020019061414d929190614403565b508060379080519060200190614164929190614403565b505050565b600060019054906101000a900460ff166141b8576040517f08c379a00000000000000000000000000000000000000000000000000000000081526004016141af90615c9b565b60405180910390fd5b6141c86141c3612027565b6128c2565b565b600060e060008573ffffffffffffffffffffffffffffffffffffffff1673ffffffffffffffffffffffffffffffffffffffff168152602001908152602001600020600060d05481526020019081526020016000209050600060e060008573ffffffffffffffffffffffffffffffffffffffff1673ffffffffffffffffffffffffffffffffffffffff168152602001908152602001600020600060d05481526020019081526020016000209050600060e060008573ffffffffffffffffffffffffffffffffffffffff1673ffffffffffffffffffffffffffffffffffffffff168152602001908152602001600020600060d054815260200190815260200160002090508060070154826007015460c954856006015485600501546142ed9190614f6f565b6142f79190615bf8565b6143019190614e6c565b61430b9190614e6c565b8360070181905550505050505050565b600060e060008473ffffffffffffffffffffffffffffffffffffffff1673ffffffffffffffffffffffffffffffffffffffff168152602001908152602001600020600060d05481526020019081526020016000209050600060e060008473ffffffffffffffffffffffffffffffffffffffff1673ffffffffffffffffffffffffffffffffffffffff168152602001908152602001600020600060d05481526020019081526020016000209050816007015460c95460ca5483600301546143e19190614f6f565b6143eb9190615bf8565b6143f59190614e6c565b826000018190555050505050565b82805461440f90614d33565b90600052602060002090601f0160209004810192826144315760008555614478565b82601f1061444a57805160ff1916838001178555614478565b82800160010185558215614478579182015b8281111561447757825182559160200191906001019061445c565b5b5090506144859190614489565b5090565b5b808211156144a257600081600090555060010161448a565b5090565b600081519050919050565b600082825260208201905092915050565b60005b838110156144e05780820151818401526020810190506144c5565b838111156144ef576000848401525b50505050565b6000601f19601f8301169050919050565b6000614511826144a6565b61451b81856144b1565b935061452b8185602086016144c2565b614534816144f5565b840191505092915050565b600060208201905081810360008301526145598184614506565b905092915050565b6000604051905090565b600080fd5b600080fd5b600073ffffffffffffffffffffffffffffffffffffffff82169050919050565b60006145a082614575565b9050919050565b6145b081614595565b81146145bb57600080fd5b50565b6000813590506145cd816145a7565b92915050565b6000819050919050565b6145e6816145d3565b81146145f157600080fd5b50565b600081359050614603816145dd565b92915050565b600080604083850312156146205761461f61456b565b5b600061462e858286016145be565b925050602061463f858286016145f4565b9150509250929050565b60008115159050919050565b61465e81614649565b82525050565b60006020820190506146796000830184614655565b92915050565b6000602082840312156146955761469461456b565b5b60006146a3848285016145f4565b91505092915050565b6146b5816145d3565b82525050565b60006020820190506146d060008301846146ac565b92915050565b6000806000606084860312156146ef576146ee61456b565b5b60006146fd868287016145be565b935050602061470e868287016145be565b925050604061471f868287016145f4565b9150509250925092565b600060ff82169050919050565b61473f81614729565b82525050565b600060208201905061475a6000830184614736565b92915050565b6000602082840312156147765761477561456b565b5b6000614784848285016145be565b91505092915050565b61479681614649565b81146147a157600080fd5b50565b6000813590506147b38161478d565b92915050565b6000806000606084860312156147d2576147d161456b565b5b60006147e0868287016145be565b93505060206147f1868287016147a4565b9250506040614802868287016145f4565b9150509250925092565b61481581614595565b82525050565b6000602082019050614830600083018461480c565b92915050565b6000819050919050565b600061485b61485661485184614575565b614836565b614575565b9050919050565b600061486d82614840565b9050919050565b600061487f82614862565b9050919050565b61488f81614874565b82525050565b60006020820190506148aa6000830184614886565b92915050565b600081519050919050565b600082825260208201905092915050565b6000819050602082019050919050565b6148e581614595565b82525050565b60006148f783836148dc565b60208301905092915050565b6000602082019050919050565b600061491b826148b0565b61492581856148bb565b9350614930836148cc565b8060005b8381101561496157815161494888826148eb565b975061495383614903565b925050600181019050614934565b5085935050505092915050565b600060208201905081810360008301526149888184614910565b905092915050565b6000806000606084860312156149a9576149a861456b565b5b60006149b7868287016145f4565b93505060206149c8868287016145f4565b92505060406149d9868287016145f4565b9150509250925092565b600080fd5b7f4e487b7100000000000000000000000000000000000000000000000000000000600052604160045260246000fd5b614a20826144f5565b810181811067ffffffffffffffff82111715614a3f57614a3e6149e8565b5b80604052505050565b6000614a52614561565b9050614a5e8282614a17565b919050565b600067ffffffffffffffff821115614a7e57614a7d6149e8565b5b602082029050602081019050919050565b600080fd5b6000614aa7614aa284614a63565b614a48565b90508083825260208201905060208402830185811115614aca57614ac9614a8f565b5b835b81811015614af35780614adf88826145f4565b845260208401935050602081019050614acc565b5050509392505050565b600082601f830112614b1257614b116149e3565b5b8135614b22848260208601614a94565b91505092915050565b60008060408385031215614b4257614b4161456b565b5b600083013567ffffffffffffffff811115614b6057614b5f614570565b5b614b6c85828601614afd565b925050602083013567ffffffffffffffff811115614b8d57614b8c614570565b5b614b9985828601614afd565b9150509250929050565b60008060408385031215614bba57614bb961456b565b5b6000614bc8858286016145be565b9250506020614bd9858286016145be565b9150509250929050565b600061018082019050614bf9600083018f6146ac565b614c06602083018e6146ac565b614c13604083018d6146ac565b614c20606083018c6146ac565b614c2d608083018b6146ac565b614c3a60a083018a6146ac565b614c4760c08301896146ac565b614c5460e08301886146ac565b614c62610100830187614655565b614c7061012083018661480c565b614c7e61014083018561480c565b614c8c61016083018461480c565b9d9c50505050505050505050505050565b60008060008060808587031215614cb757614cb661456b565b5b6000614cc5878288016145be565b9450506020614cd6878288016145be565b9350506040614ce7878288016145be565b9250506060614cf8878288016145be565b91505092959194509250565b7f4e487b7100000000000000000000000000000000000000000000000000000000600052602260045260246000fd5b60006002820490506001821680614d4b57607f821691505b60208210811415614d5f57614d5e614d04565b5b50919050565b7f6e6f742d6f70657261746f720000000000000000000000000000000000000000600082015250565b6000614d9b600c836144b1565b9150614da682614d65565b602082019050919050565b60006020820190508181036000830152614dca81614d8e565b9050919050565b7f7a65726f20616464726573730000000000000000000000000000000000000000600082015250565b6000614e07600c836144b1565b9150614e1282614dd1565b602082019050919050565b60006020820190508181036000830152614e3681614dfa565b9050919050565b7f4e487b7100000000000000000000000000000000000000000000000000000000600052601160045260246000fd5b6000614e77826145d3565b9150614e82836145d3565b9250827fffffffffffffffffffffffffffffffffffffffffffffffffffffffffffffffff03821115614eb757614eb6614e3d565b5b828201905092915050565b600081519050614ed1816145dd565b92915050565b600060208284031215614eed57614eec61456b565b5b6000614efb84828501614ec2565b91505092915050565b6000604082019050614f19600083018561480c565b614f2660208301846146ac565b9392505050565b600081519050614f3c8161478d565b92915050565b600060208284031215614f5857614f5761456b565b5b6000614f6684828501614f2d565b91505092915050565b6000614f7a826145d3565b9150614f85836145d3565b9250817fffffffffffffffffffffffffffffffffffffffffffffffffffffffffffffffff0483118215151615614fbe57614fbd614e3d565b5b828202905092915050565b6000606082019050614fde600083018661480c565b614feb602083018561480c565b614ff860408301846146ac565b949350505050565b600061500b826145d3565b9150615016836145d3565b92508282101561502957615028614e3d565b5b828203905092915050565b7f4d61696e2057616c6c6574207472616e7366657220616d6f756e74206578636560008201527f65647320616c6c6f77616e636500000000000000000000000000000000000000602082015250565b6000615090602d836144b1565b915061509b82615034565b604082019050919050565b600060208201905081810360008301526150bf81615083565b9050919050565b7f45524332303a2064656372656173656420616c6c6f77616e63652062656c6f7760008201527f207a65726f000000000000000000000000000000000000000000000000000000602082015250565b60006151226025836144b1565b915061512d826150c6565b604082019050919050565b6000602082019050818103600083015261515181615115565b9050919050565b7f43616e6e6f74206265207a65726f206164647265737300000000000000000000600082015250565b600061518e6016836144b1565b915061519982615158565b602082019050919050565b600060208201905081810360008301526151bd81615181565b9050919050565b7f696e76616c69642074696d650000000000000000000000000000000000000000600082015250565b60006151fa600c836144b1565b9150615205826151c4565b602082019050919050565b60006020820190508181036000830152615229816151ed565b9050919050565b7f696e76616c69642072617465206275792049434f206279205553445400000000600082015250565b6000615266601c836144b1565b915061527182615230565b602082019050919050565b6000602082019050818103600083015261529581615259565b9050919050565b7f49434f206d75737420656e640000000000000000000000000000000000000000600082015250565b60006152d2600c836144b1565b91506152dd8261529c565b602082019050919050565b60006020820190508181036000830152615301816152c5565b9050919050565b7f50657263656e74206d757374206265206265747765656e203120616e6420313060008201527f3000000000000000000000000000000000000000000000000000000000000000602082015250565b60006153646021836144b1565b915061536f82615308565b604082019050919050565b6000602082019050818103600083015261539381615357565b9050919050565b7f4e487b7100000000000000000000000000000000000000000000000000000000600052603260045260246000fd5b7f4f776e61626c653a206e6577206f776e657220697320746865207a65726f206160008201527f6464726573730000000000000000000000000000000000000000000000000000602082015250565b60006154256026836144b1565b9150615430826153c9565b604082019050919050565b6000602082019050818103600083015261545481615418565b9050919050565b7f496e697469616c697a61626c653a20636f6e747261637420697320616c72656160008201527f647920696e697469616c697a6564000000000000000000000000000000000000602082015250565b60006154b7602e836144b1565b91506154c28261545b565b604082019050919050565b600060208201905081810360008301526154e6816154aa565b9050919050565b7f696e76616c69642d555344540000000000000000000000000000000000000000600082015250565b6000615523600c836144b1565b915061552e826154ed565b602082019050919050565b6000602082019050818103600083015261555281615516565b9050919050565b6000819050919050565b600061557e61557961557484615559565b614836565b614729565b9050919050565b61558e81615563565b82525050565b60006020820190506155a96000830184615585565b92915050565b7f45524332303a20617070726f76652066726f6d20746865207a65726f2061646460008201527f7265737300000000000000000000000000000000000000000000000000000000602082015250565b600061560b6024836144b1565b9150615616826155af565b604082019050919050565b6000602082019050818103600083015261563a816155fe565b9050919050565b7f45524332303a20617070726f766520746f20746865207a65726f20616464726560008201527f7373000000000000000000000000000000000000000000000000000000000000602082015250565b600061569d6022836144b1565b91506156a882615641565b604082019050919050565b600060208201905081810360008301526156cc81615690565b9050919050565b7f45524332303a20696e73756666696369656e7420616c6c6f77616e6365000000600082015250565b6000615709601d836144b1565b9150615714826156d3565b602082019050919050565b60006020820190508181036000830152615738816156fc565b9050919050565b7f45524332303a207472616e736665722066726f6d20746865207a65726f20616460008201527f6472657373000000000000000000000000000000000000000000000000000000602082015250565b600061579b6025836144b1565b91506157a68261573f565b604082019050919050565b600060208201905081810360008301526157ca8161578e565b9050919050565b7f45524332303a207472616e7366657220746f20746865207a65726f206164647260008201527f6573730000000000000000000000000000000000000000000000000000000000602082015250565b600061582d6023836144b1565b9150615838826157d1565b604082019050919050565b6000602082019050818103600083015261585c81615820565b9050919050565b7f45524332303a207472616e7366657220616d6f756e742065786365656473206260008201527f616c616e63650000000000000000000000000000000000000000000000000000602082015250565b60006158bf6026836144b1565b91506158ca82615863565b604082019050919050565b600060208201905081810360008301526158ee816158b2565b9050919050565b7f4f776e61626c653a2063616c6c6572206973206e6f7420746865206f776e6572600082015250565b600061592b6020836144b1565b9150615936826158f5565b602082019050919050565b6000602082019050818103600083015261595a8161591e565b9050919050565b7f45524332303a206d696e7420746f20746865207a65726f206164647265737300600082015250565b6000615997601f836144b1565b91506159a282615961565b602082019050919050565b600060208201905081810360008301526159c68161598a565b9050919050565b7f45524332303a206275726e2066726f6d20746865207a65726f2061646472657360008201527f7300000000000000000000000000000000000000000000000000000000000000602082015250565b6000615a296021836144b1565b9150615a34826159cd565b604082019050919050565b60006020820190508181036000830152615a5881615a1c565b9050919050565b7f45524332303a206275726e20616d6f756e7420657863656564732062616c616e60008201527f6365000000000000000000000000000000000000000000000000000000000000602082015250565b6000615abb6022836144b1565b9150615ac682615a5f565b604082019050919050565b60006020820190508181036000830152615aea81615aae565b9050919050565b7f49434f2074696d6520646f6573206e6f74207374617274206e6f770000000000600082015250565b6000615b27601b836144b1565b9150615b3282615af1565b602082019050919050565b60006020820190508181036000830152615b5681615b1a565b9050919050565b7f49434f2074696d65206973206578706972656400000000000000000000000000600082015250565b6000615b936013836144b1565b9150615b9e82615b5d565b602082019050919050565b60006020820190508181036000830152615bc281615b86565b9050919050565b7f4e487b7100000000000000000000000000000000000000000000000000000000600052601260045260246000fd5b6000615c03826145d3565b9150615c0e836145d3565b925082615c1e57615c1d615bc9565b5b828204905092915050565b7f496e697469616c697a61626c653a20636f6e7472616374206973206e6f74206960008201527f6e697469616c697a696e67000000000000000000000000000000000000000000602082015250565b6000615c85602b836144b1565b9150615c9082615c29565b604082019050919050565b60006020820190508181036000830152615cb481615c78565b9050919050565b7f626c61636b6c6973742075736572000000000000000000000000000000000000600082015250565b6000615cf1600e836144b1565b9150615cfc82615cbb565b602082019050919050565b60006020820190508181036000830152615d2081615ce4565b9050919050565b6000615d32826145d3565b91507fffffffffffffffffffffffffffffffffffffffffffffffffffffffffffffffff821415615d6557615d64614e3d565b5b60018201905091905056fea2646970667358221220fbc29bdb81f89f1c64e54f9fc9645fe6c283fd8c977790de4897ea6db7fd6e3464736f6c634300080a0033",
  "linkReferences": {},
  "deployedLinkReferences": {}
}